{"abi":[{"inputs":[{"internalType":"uint256","name":"minimum","type":"uint256"},{"internalType":"address","name":"creator","type":"address"}],"stateMutability":"nonpayable","type":"constructor"},{"inputs":[{"internalType":"uint256","name":"index","type":"uint256"}],"name":"approveRequest","outputs":[],"stateMutability":"nonpayable","type":"function"},{"inputs":[{"internalType":"address","name":"","type":"address"}],"name":"approvers","outputs":[{"internalType":"bool","name":"","type":"bool"}],"stateMutability":"view","type":"function"},{"inputs":[],"name":"approversCount","outputs":[{"internalType":"uint256","name":"","type":"uint256"}],"stateMutability":"view","type":"function"},{"inputs":[],"name":"contribute","outputs":[],"stateMutability":"payable","type":"function"},{"inputs":[{"internalType":"string","name":"description","type":"string"},{"internalType":"uint256","name":"value","type":"uint256"},{"internalType":"address payable","name":"recipient","type":"address"}],"name":"createRequest","outputs":[],"stateMutability":"nonpayable","type":"function"},{"inputs":[{"internalType":"uint256","name":"index","type":"uint256"}],"name":"finalizeRequest","outputs":[],"stateMutability":"nonpayable","type":"function"},{"inputs":[],"name":"getRequestsCount","outputs":[{"internalType":"uint256","name":"","type":"uint256"}],"stateMutability":"view","type":"function"},{"inputs":[],"name":"getSummary","outputs":[{"internalType":"uint256","name":"","type":"uint256"},{"internalType":"uint256","name":"","type":"uint256"},{"internalType":"uint256","name":"","type":"uint256"},{"internalType":"uint256","name":"","type":"uint256"},{"internalType":"address","name":"","type":"address"}],"stateMutability":"view","type":"function"},{"inputs":[],"name":"manager","outputs":[{"internalType":"address","name":"","type":"address"}],"stateMutability":"view","type":"function"},{"inputs":[],"name":"minimumContribution","outputs":[{"internalType":"uint256","name":"","type":"uint256"}],"stateMutability":"view","type":"function"},{"inputs":[{"internalType":"uint256","name":"","type":"uint256"}],"name":"requests","outputs":[{"internalType":"uint256","name":"index","type":"uint256"},{"internalType":"string","name":"description","type":"string"},{"internalType":"uint256","name":"value","type":"uint256"},{"internalType":"address payable","name":"recipient","type":"address"},{"internalType":"bool","name":"complete","type":"bool"},{"internalType":"uint256","name":"approvalCount","type":"uint256"}],"stateMutability":"view","type":"function"}],"devdoc":{"kind":"dev","methods":{},"version":1},"evm":{"assembly":"    /* \"Contracts\":447:2769  contract Campaign {\r... */\n  mstore(0x40, 0x80)\n    /* \"Contracts\":1008:1130  constructor(uint256 minimum, address creator) {\r... */\n  callvalue\n  dup1\n  iszero\n  tag_1\n  jumpi\n  0x00\n  dup1\n  revert\ntag_1:\n  pop\n  mload(0x40)\n  sub(codesize, bytecodeSize)\n  dup1\n  bytecodeSize\n  dup4\n  codecopy\n  dup2\n  dup2\n  add\n  0x40\n  mstore\n  dup2\n  add\n  swap1\n  tag_2\n  swap2\n  swap1\n  tag_3\n  jump\t// in\ntag_2:\n    /* \"Contracts\":1075:1082  creator */\n  dup1\n    /* \"Contracts\":1065:1072  manager */\n  0x00\n  dup1\n    /* \"Contracts\":1065:1082  manager = creator */\n  0x0100\n  exp\n  dup2\n  sload\n  dup2\n  0xffffffffffffffffffffffffffffffffffffffff\n  mul\n  not\n  and\n  swap1\n  dup4\n  0xffffffffffffffffffffffffffffffffffffffff\n  and\n  mul\n  or\n  swap1\n  sstore\n  pop\n    /* \"Contracts\":1115:1122  minimum */\n  dup2\n    /* \"Contracts\":1093:1112  minimumContribution */\n  0x01\n    /* \"Contracts\":1093:1122  minimumContribution = minimum */\n  dup2\n  swap1\n  sstore\n  pop\n    /* \"Contracts\":1008:1130  constructor(uint256 minimum, address creator) {\r... */\n  pop\n  pop\n    /* \"Contracts\":447:2769  contract Campaign {\r... */\n  jump(tag_6)\n    /* \"#utility.yul\":7:150   */\ntag_8:\n  0x00\n    /* \"#utility.yul\":95:101   */\n  dup2\n    /* \"#utility.yul\":89:102   */\n  mload\n    /* \"#utility.yul\":80:102   */\n  swap1\n  pop\n    /* \"#utility.yul\":111:144   */\n  tag_10\n    /* \"#utility.yul\":138:143   */\n  dup2\n    /* \"#utility.yul\":111:144   */\n  tag_11\n  jump\t// in\ntag_10:\n    /* \"#utility.yul\":70:150   */\n  swap3\n  swap2\n  pop\n  pop\n  jump\t// out\n    /* \"#utility.yul\":156:299   */\ntag_12:\n  0x00\n    /* \"#utility.yul\":244:250   */\n  dup2\n    /* \"#utility.yul\":238:251   */\n  mload\n    /* \"#utility.yul\":229:251   */\n  swap1\n  pop\n    /* \"#utility.yul\":260:293   */\n  tag_14\n    /* \"#utility.yul\":287:292   */\n  dup2\n    /* \"#utility.yul\":260:293   */\n  tag_15\n  jump\t// in\ntag_14:\n    /* \"#utility.yul\":219:299   */\n  swap3\n  swap2\n  pop\n  pop\n  jump\t// out\n    /* \"#utility.yul\":305:745   */\ntag_3:\n  0x00\n  dup1\n    /* \"#utility.yul\":441:443   */\n  0x40\n    /* \"#utility.yul\":429:438   */\n  dup4\n    /* \"#utility.yul\":420:427   */\n  dup6\n    /* \"#utility.yul\":416:439   */\n  sub\n    /* \"#utility.yul\":412:444   */\n  slt\n    /* \"#utility.yul\":409:411   */\n  iszero\n  tag_17\n  jumpi\n    /* \"#utility.yul\":457:458   */\n  0x00\n    /* \"#utility.yul\":454:455   */\n  dup1\n    /* \"#utility.yul\":447:459   */\n  revert\n    /* \"#utility.yul\":409:411   */\ntag_17:\n    /* \"#utility.yul\":500:501   */\n  0x00\n    /* \"#utility.yul\":525:589   */\n  tag_18\n    /* \"#utility.yul\":581:588   */\n  dup6\n    /* \"#utility.yul\":572:578   */\n  dup3\n    /* \"#utility.yul\":561:570   */\n  dup7\n    /* \"#utility.yul\":557:579   */\n  add\n    /* \"#utility.yul\":525:589   */\n  tag_12\n  jump\t// in\ntag_18:\n    /* \"#utility.yul\":515:589   */\n  swap3\n  pop\n    /* \"#utility.yul\":471:599   */\n  pop\n    /* \"#utility.yul\":638:640   */\n  0x20\n    /* \"#utility.yul\":664:728   */\n  tag_19\n    /* \"#utility.yul\":720:727   */\n  dup6\n    /* \"#utility.yul\":711:717   */\n  dup3\n    /* \"#utility.yul\":700:709   */\n  dup7\n    /* \"#utility.yul\":696:718   */\n  add\n    /* \"#utility.yul\":664:728   */\n  tag_8\n  jump\t// in\ntag_19:\n    /* \"#utility.yul\":654:728   */\n  swap2\n  pop\n    /* \"#utility.yul\":609:738   */\n  pop\n    /* \"#utility.yul\":399:745   */\n  swap3\n  pop\n  swap3\n  swap1\n  pop\n  jump\t// out\n    /* \"#utility.yul\":751:847   */\ntag_20:\n  0x00\n    /* \"#utility.yul\":817:841   */\n  tag_22\n    /* \"#utility.yul\":835:840   */\n  dup3\n    /* \"#utility.yul\":817:841   */\n  tag_23\n  jump\t// in\ntag_22:\n    /* \"#utility.yul\":806:841   */\n  swap1\n  pop\n    /* \"#utility.yul\":796:847   */\n  swap2\n  swap1\n  pop\n  jump\t// out\n    /* \"#utility.yul\":853:979   */\ntag_23:\n  0x00\n    /* \"#utility.yul\":930:972   */\n  0xffffffffffffffffffffffffffffffffffffffff\n    /* \"#utility.yul\":923:928   */\n  dup3\n    /* \"#utility.yul\":919:973   */\n  and\n    /* \"#utility.yul\":908:973   */\n  swap1\n  pop\n    /* \"#utility.yul\":898:979   */\n  swap2\n  swap1\n  pop\n  jump\t// out\n    /* \"#utility.yul\":985:1062   */\ntag_25:\n  0x00\n    /* \"#utility.yul\":1051:1056   */\n  dup2\n    /* \"#utility.yul\":1040:1056   */\n  swap1\n  pop\n    /* \"#utility.yul\":1030:1062   */\n  swap2\n  swap1\n  pop\n  jump\t// out\n    /* \"#utility.yul\":1068:1190   */\ntag_11:\n    /* \"#utility.yul\":1141:1165   */\n  tag_28\n    /* \"#utility.yul\":1159:1164   */\n  dup2\n    /* \"#utility.yul\":1141:1165   */\n  tag_20\n  jump\t// in\ntag_28:\n    /* \"#utility.yul\":1134:1139   */\n  dup2\n    /* \"#utility.yul\":1131:1166   */\n  eq\n    /* \"#utility.yul\":1121:1123   */\n  tag_29\n  jumpi\n    /* \"#utility.yul\":1180:1181   */\n  0x00\n    /* \"#utility.yul\":1177:1178   */\n  dup1\n    /* \"#utility.yul\":1170:1182   */\n  revert\n    /* \"#utility.yul\":1121:1123   */\ntag_29:\n    /* \"#utility.yul\":1111:1190   */\n  pop\n  jump\t// out\n    /* \"#utility.yul\":1196:1318   */\ntag_15:\n    /* \"#utility.yul\":1269:1293   */\n  tag_31\n    /* \"#utility.yul\":1287:1292   */\n  dup2\n    /* \"#utility.yul\":1269:1293   */\n  tag_25\n  jump\t// in\ntag_31:\n    /* \"#utility.yul\":1262:1267   */\n  dup2\n    /* \"#utility.yul\":1259:1294   */\n  eq\n    /* \"#utility.yul\":1249:1251   */\n  tag_32\n  jumpi\n    /* \"#utility.yul\":1308:1309   */\n  0x00\n    /* \"#utility.yul\":1305:1306   */\n  dup1\n    /* \"#utility.yul\":1298:1310   */\n  revert\n    /* \"#utility.yul\":1249:1251   */\ntag_32:\n    /* \"#utility.yul\":1239:1318   */\n  pop\n  jump\t// out\n    /* \"Contracts\":447:2769  contract Campaign {\r... */\ntag_6:\n  dataSize(sub_0)\n  dup1\n  dataOffset(sub_0)\n  0x00\n  codecopy\n  0x00\n  return\nstop\n\nsub_0: assembly {\n        /* \"Contracts\":447:2769  contract Campaign {\r... */\n      mstore(0x40, 0x80)\n      jumpi(tag_1, lt(calldatasize, 0x04))\n      shr(0xe0, calldataload(0x00))\n      dup1\n      0x81d12c58\n      gt\n      tag_13\n      jumpi\n      dup1\n      0x81d12c58\n      eq\n      tag_7\n      jumpi\n      dup1\n      0x82fde093\n      eq\n      tag_8\n      jumpi\n      dup1\n      0x8a9cfd55\n      eq\n      tag_9\n      jumpi\n      dup1\n      0x937e09b1\n      eq\n      tag_10\n      jumpi\n      dup1\n      0xd7bb99ba\n      eq\n      tag_11\n      jumpi\n      dup1\n      0xd7d1bbdb\n      eq\n      tag_12\n      jumpi\n      jump(tag_1)\n    tag_13:\n      dup1\n      0x03441006\n      eq\n      tag_2\n      jumpi\n      dup1\n      0x0a144391\n      eq\n      tag_3\n      jumpi\n      dup1\n      0x3410452a\n      eq\n      tag_4\n      jumpi\n      dup1\n      0x4051ddac\n      eq\n      tag_5\n      jumpi\n      dup1\n      0x481c6a75\n      eq\n      tag_6\n      jumpi\n    tag_1:\n      0x00\n      dup1\n      revert\n        /* \"Contracts\":2060:2374  function finalizeRequest(uint index) public restricted {\r... */\n    tag_2:\n      callvalue\n      dup1\n      iszero\n      tag_14\n      jumpi\n      0x00\n      dup1\n      revert\n    tag_14:\n      pop\n      tag_15\n      0x04\n      dup1\n      calldatasize\n      sub\n      dup2\n      add\n      swap1\n      tag_16\n      swap2\n      swap1\n      tag_17\n      jump\t// in\n    tag_16:\n      tag_18\n      jump\t// in\n    tag_15:\n      stop\n        /* \"Contracts\":737:778  mapping(address => bool) public approvers */\n    tag_3:\n      callvalue\n      dup1\n      iszero\n      tag_19\n      jumpi\n      0x00\n      dup1\n      revert\n    tag_19:\n      pop\n      tag_20\n      0x04\n      dup1\n      calldatasize\n      sub\n      dup2\n      add\n      swap1\n      tag_21\n      swap2\n      swap1\n      tag_22\n      jump\t// in\n    tag_21:\n      tag_23\n      jump\t// in\n    tag_20:\n      mload(0x40)\n      tag_24\n      swap2\n      swap1\n      tag_25\n      jump\t// in\n    tag_24:\n      mload(0x40)\n      dup1\n      swap2\n      sub\n      swap1\n      return\n        /* \"Contracts\":2670:2766  function getRequestsCount() public view returns (uint) {\r... */\n    tag_4:\n      callvalue\n      dup1\n      iszero\n      tag_26\n      jumpi\n      0x00\n      dup1\n      revert\n    tag_26:\n      pop\n      tag_27\n      tag_28\n      jump\t// in\n    tag_27:\n      mload(0x40)\n      tag_29\n      swap2\n      swap1\n      tag_30\n      jump\t// in\n    tag_29:\n      mload(0x40)\n      dup1\n      swap2\n      sub\n      swap1\n      return\n        /* \"Contracts\":2382:2662  function getSummary() public view returns (\r... */\n    tag_5:\n      callvalue\n      dup1\n      iszero\n      tag_31\n      jumpi\n      0x00\n      dup1\n      revert\n    tag_31:\n      pop\n      tag_32\n      tag_33\n      jump\t// in\n    tag_32:\n      mload(0x40)\n      tag_34\n      swap6\n      swap5\n      swap4\n      swap3\n      swap2\n      swap1\n      tag_35\n      jump\t// in\n    tag_34:\n      mload(0x40)\n      dup1\n      swap2\n      sub\n      swap1\n      return\n        /* \"Contracts\":667:689  address public manager */\n    tag_6:\n      callvalue\n      dup1\n      iszero\n      tag_36\n      jumpi\n      0x00\n      dup1\n      revert\n    tag_36:\n      pop\n      tag_37\n      tag_38\n      jump\t// in\n    tag_37:\n      mload(0x40)\n      tag_39\n      swap2\n      swap1\n      tag_40\n      jump\t// in\n    tag_39:\n      mload(0x40)\n      dup1\n      swap2\n      sub\n      swap1\n      return\n        /* \"Contracts\":818:843  Request[] public requests */\n    tag_7:\n      callvalue\n      dup1\n      iszero\n      tag_41\n      jumpi\n      0x00\n      dup1\n      revert\n    tag_41:\n      pop\n      tag_42\n      0x04\n      dup1\n      calldatasize\n      sub\n      dup2\n      add\n      swap1\n      tag_43\n      swap2\n      swap1\n      tag_17\n      jump\t// in\n    tag_43:\n      tag_44\n      jump\t// in\n    tag_42:\n      mload(0x40)\n      tag_45\n      swap7\n      swap6\n      swap5\n      swap4\n      swap3\n      swap2\n      swap1\n      tag_46\n      jump\t// in\n    tag_45:\n      mload(0x40)\n      dup1\n      swap2\n      sub\n      swap1\n      return\n        /* \"Contracts\":785:811  uint public approversCount */\n    tag_8:\n      callvalue\n      dup1\n      iszero\n      tag_47\n      jumpi\n      0x00\n      dup1\n      revert\n    tag_47:\n      pop\n      tag_48\n      tag_49\n      jump\t// in\n    tag_48:\n      mload(0x40)\n      tag_50\n      swap2\n      swap1\n      tag_30\n      jump\t// in\n    tag_50:\n      mload(0x40)\n      dup1\n      swap2\n      sub\n      swap1\n      return\n        /* \"Contracts\":1310:1737  function createRequest(string memory description, uint value, address payable recipient) \r... */\n    tag_9:\n      callvalue\n      dup1\n      iszero\n      tag_51\n      jumpi\n      0x00\n      dup1\n      revert\n    tag_51:\n      pop\n      tag_52\n      0x04\n      dup1\n      calldatasize\n      sub\n      dup2\n      add\n      swap1\n      tag_53\n      swap2\n      swap1\n      tag_54\n      jump\t// in\n    tag_53:\n      tag_55\n      jump\t// in\n    tag_52:\n      stop\n        /* \"Contracts\":696:730  uint256 public minimumContribution */\n    tag_10:\n      callvalue\n      dup1\n      iszero\n      tag_56\n      jumpi\n      0x00\n      dup1\n      revert\n    tag_56:\n      pop\n      tag_57\n      tag_58\n      jump\t// in\n    tag_57:\n      mload(0x40)\n      tag_59\n      swap2\n      swap1\n      tag_30\n      jump\t// in\n    tag_59:\n      mload(0x40)\n      dup1\n      swap2\n      sub\n      swap1\n      return\n        /* \"Contracts\":1138:1302  function contribute() public payable {\r... */\n    tag_11:\n      tag_60\n      tag_61\n      jump\t// in\n    tag_60:\n      stop\n        /* \"Contracts\":1745:2052  function approveRequest(uint index) public {\r... */\n    tag_12:\n      callvalue\n      dup1\n      iszero\n      tag_62\n      jumpi\n      0x00\n      dup1\n      revert\n    tag_62:\n      pop\n      tag_63\n      0x04\n      dup1\n      calldatasize\n      sub\n      dup2\n      add\n      swap1\n      tag_64\n      swap2\n      swap1\n      tag_17\n      jump\t// in\n    tag_64:\n      tag_65\n      jump\t// in\n    tag_63:\n      stop\n        /* \"Contracts\":2060:2374  function finalizeRequest(uint index) public restricted {\r... */\n    tag_18:\n        /* \"Contracts\":972:979  manager */\n      0x00\n      dup1\n      sload\n      swap1\n      0x0100\n      exp\n      swap1\n      div\n      0xffffffffffffffffffffffffffffffffffffffff\n      and\n        /* \"Contracts\":958:979  msg.sender == manager */\n      0xffffffffffffffffffffffffffffffffffffffff\n      and\n        /* \"Contracts\":958:968  msg.sender */\n      caller\n        /* \"Contracts\":958:979  msg.sender == manager */\n      0xffffffffffffffffffffffffffffffffffffffff\n      and\n      eq\n        /* \"Contracts\":950:980  require(msg.sender == manager) */\n      tag_67\n      jumpi\n      0x00\n      dup1\n      revert\n    tag_67:\n        /* \"Contracts\":2126:2149  Request storage request */\n      0x00\n        /* \"Contracts\":2152:2160  requests */\n      0x04\n        /* \"Contracts\":2161:2166  index */\n      dup3\n        /* \"Contracts\":2152:2167  requests[index] */\n      dup2\n      sload\n      dup2\n      lt\n      tag_69\n      jumpi\n      mstore(0x00, 0x4e487b7100000000000000000000000000000000000000000000000000000000)\n      mstore(0x04, 0x32)\n      revert(0x00, 0x24)\n    tag_69:\n      swap1\n      0x00\n      mstore\n      keccak256(0x00, 0x20)\n      swap1\n      0x05\n      mul\n      add\n        /* \"Contracts\":2126:2167  Request storage request = requests[index] */\n      swap1\n      pop\n        /* \"Contracts\":2230:2231  2 */\n      0x02\n        /* \"Contracts\":2213:2227  approversCount */\n      sload(0x03)\n        /* \"Contracts\":2213:2231  approversCount / 2 */\n      tag_71\n      swap2\n      swap1\n      tag_72\n      jump\t// in\n    tag_71:\n        /* \"Contracts\":2188:2195  request */\n      dup2\n        /* \"Contracts\":2188:2209  request.approvalCount */\n      0x04\n      add\n      sload\n        /* \"Contracts\":2188:2232  request.approvalCount > (approversCount / 2) */\n      gt\n        /* \"Contracts\":2180:2233  require(request.approvalCount > (approversCount / 2)) */\n      tag_73\n      jumpi\n      0x00\n      dup1\n      revert\n    tag_73:\n        /* \"Contracts\":2253:2260  request */\n      dup1\n        /* \"Contracts\":2253:2269  request.complete */\n      0x03\n      add\n      0x14\n      swap1\n      sload\n      swap1\n      0x0100\n      exp\n      swap1\n      div\n      0xff\n      and\n        /* \"Contracts\":2252:2269  !request.complete */\n      iszero\n        /* \"Contracts\":2244:2270  require(!request.complete) */\n      tag_74\n      jumpi\n      0x00\n      dup1\n      revert\n    tag_74:\n        /* \"Contracts\":2291:2298  request */\n      dup1\n        /* \"Contracts\":2291:2308  request.recipient */\n      0x03\n      add\n      0x00\n      swap1\n      sload\n      swap1\n      0x0100\n      exp\n      swap1\n      div\n      0xffffffffffffffffffffffffffffffffffffffff\n      and\n        /* \"Contracts\":2291:2317  request.recipient.transfer */\n      0xffffffffffffffffffffffffffffffffffffffff\n      and\n        /* \"Contracts\":2291:2332  request.recipient.transfer(request.value) */\n      0x08fc\n        /* \"Contracts\":2318:2325  request */\n      dup3\n        /* \"Contracts\":2318:2331  request.value */\n      0x02\n      add\n      sload\n        /* \"Contracts\":2291:2332  request.recipient.transfer(request.value) */\n      swap1\n      dup2\n      iszero\n      mul\n      swap1\n      mload(0x40)\n      0x00\n      mload(0x40)\n      dup1\n      dup4\n      sub\n      dup2\n      dup6\n      dup9\n      dup9\n      call\n      swap4\n      pop\n      pop\n      pop\n      pop\n      iszero\n      dup1\n      iszero\n      tag_76\n      jumpi\n      returndatasize\n      0x00\n      dup1\n      returndatacopy\n      revert(0x00, returndatasize)\n    tag_76:\n      pop\n        /* \"Contracts\":2362:2366  true */\n      0x01\n        /* \"Contracts\":2343:2350  request */\n      dup2\n        /* \"Contracts\":2343:2359  request.complete */\n      0x03\n      add\n      0x14\n        /* \"Contracts\":2343:2366  request.complete = true */\n      0x0100\n      exp\n      dup2\n      sload\n      dup2\n      0xff\n      mul\n      not\n      and\n      swap1\n      dup4\n      iszero\n      iszero\n      mul\n      or\n      swap1\n      sstore\n      pop\n        /* \"Contracts\":991:992  _ */\n      pop\n        /* \"Contracts\":2060:2374  function finalizeRequest(uint index) public restricted {\r... */\n      pop\n      jump\t// out\n        /* \"Contracts\":737:778  mapping(address => bool) public approvers */\n    tag_23:\n      mstore(0x20, 0x02)\n      dup1\n      0x00\n      mstore\n      keccak256(0x00, 0x40)\n      0x00\n      swap2\n      pop\n      sload\n      swap1\n      0x0100\n      exp\n      swap1\n      div\n      0xff\n      and\n      dup2\n      jump\t// out\n        /* \"Contracts\":2670:2766  function getRequestsCount() public view returns (uint) {\r... */\n    tag_28:\n        /* \"Contracts\":2719:2723  uint */\n      0x00\n        /* \"Contracts\":2743:2751  requests */\n      0x04\n        /* \"Contracts\":2743:2758  requests.length */\n      dup1\n      sload\n      swap1\n      pop\n        /* \"Contracts\":2736:2758  return requests.length */\n      swap1\n      pop\n        /* \"Contracts\":2670:2766  function getRequestsCount() public view returns (uint) {\r... */\n      swap1\n      jump\t// out\n        /* \"Contracts\":2382:2662  function getSummary() public view returns (\r... */\n    tag_33:\n        /* \"Contracts\":2435:2439  uint */\n      0x00\n        /* \"Contracts\":2441:2445  uint */\n      dup1\n        /* \"Contracts\":2447:2451  uint */\n      0x00\n        /* \"Contracts\":2453:2457  uint */\n      dup1\n        /* \"Contracts\":2459:2466  address */\n      0x00\n        /* \"Contracts\":2507:2526  minimumContribution */\n      sload(0x01)\n        /* \"Contracts\":2541:2562  address(this).balance */\n      selfbalance\n        /* \"Contracts\":2577:2585  requests */\n      0x04\n        /* \"Contracts\":2577:2592  requests.length */\n      dup1\n      sload\n      swap1\n      pop\n        /* \"Contracts\":2607:2621  approversCount */\n      sload(0x03)\n        /* \"Contracts\":2636:2643  manager */\n      0x00\n      dup1\n      sload\n      swap1\n      0x0100\n      exp\n      swap1\n      div\n      0xffffffffffffffffffffffffffffffffffffffff\n      and\n        /* \"Contracts\":2485:2654  return (\r... */\n      swap5\n      pop\n      swap5\n      pop\n      swap5\n      pop\n      swap5\n      pop\n      swap5\n      pop\n        /* \"Contracts\":2382:2662  function getSummary() public view returns (\r... */\n      swap1\n      swap2\n      swap3\n      swap4\n      swap5\n      jump\t// out\n        /* \"Contracts\":667:689  address public manager */\n    tag_38:\n      0x00\n      dup1\n      sload\n      swap1\n      0x0100\n      exp\n      swap1\n      div\n      0xffffffffffffffffffffffffffffffffffffffff\n      and\n      dup2\n      jump\t// out\n        /* \"Contracts\":818:843  Request[] public requests */\n    tag_44:\n      0x04\n      dup2\n      dup2\n      sload\n      dup2\n      lt\n      tag_79\n      jumpi\n      0x00\n      dup1\n      revert\n    tag_79:\n      swap1\n      0x00\n      mstore\n      keccak256(0x00, 0x20)\n      swap1\n      0x05\n      mul\n      add\n      0x00\n      swap2\n      pop\n      swap1\n      pop\n      dup1\n      0x00\n      add\n      sload\n      swap1\n      dup1\n      0x01\n      add\n      dup1\n      sload\n      tag_81\n      swap1\n      tag_82\n      jump\t// in\n    tag_81:\n      dup1\n      0x1f\n      add\n      0x20\n      dup1\n      swap2\n      div\n      mul\n      0x20\n      add\n      mload(0x40)\n      swap1\n      dup2\n      add\n      0x40\n      mstore\n      dup1\n      swap3\n      swap2\n      swap1\n      dup2\n      dup2\n      mstore\n      0x20\n      add\n      dup3\n      dup1\n      sload\n      tag_83\n      swap1\n      tag_82\n      jump\t// in\n    tag_83:\n      dup1\n      iszero\n      tag_84\n      jumpi\n      dup1\n      0x1f\n      lt\n      tag_85\n      jumpi\n      0x0100\n      dup1\n      dup4\n      sload\n      div\n      mul\n      dup4\n      mstore\n      swap2\n      0x20\n      add\n      swap2\n      jump(tag_84)\n    tag_85:\n      dup3\n      add\n      swap2\n      swap1\n      0x00\n      mstore\n      keccak256(0x00, 0x20)\n      swap1\n    tag_86:\n      dup2\n      sload\n      dup2\n      mstore\n      swap1\n      0x01\n      add\n      swap1\n      0x20\n      add\n      dup1\n      dup4\n      gt\n      tag_86\n      jumpi\n      dup3\n      swap1\n      sub\n      0x1f\n      and\n      dup3\n      add\n      swap2\n    tag_84:\n      pop\n      pop\n      pop\n      pop\n      pop\n      swap1\n      dup1\n      0x02\n      add\n      sload\n      swap1\n      dup1\n      0x03\n      add\n      0x00\n      swap1\n      sload\n      swap1\n      0x0100\n      exp\n      swap1\n      div\n      0xffffffffffffffffffffffffffffffffffffffff\n      and\n      swap1\n      dup1\n      0x03\n      add\n      0x14\n      swap1\n      sload\n      swap1\n      0x0100\n      exp\n      swap1\n      div\n      0xff\n      and\n      swap1\n      dup1\n      0x04\n      add\n      sload\n      swap1\n      pop\n      dup7\n      jump\t// out\n        /* \"Contracts\":785:811  uint public approversCount */\n    tag_49:\n      sload(0x03)\n      dup2\n      jump\t// out\n        /* \"Contracts\":1310:1737  function createRequest(string memory description, uint value, address payable recipient) \r... */\n    tag_55:\n        /* \"Contracts\":972:979  manager */\n      0x00\n      dup1\n      sload\n      swap1\n      0x0100\n      exp\n      swap1\n      div\n      0xffffffffffffffffffffffffffffffffffffffff\n      and\n        /* \"Contracts\":958:979  msg.sender == manager */\n      0xffffffffffffffffffffffffffffffffffffffff\n      and\n        /* \"Contracts\":958:968  msg.sender */\n      caller\n        /* \"Contracts\":958:979  msg.sender == manager */\n      0xffffffffffffffffffffffffffffffffffffffff\n      and\n      eq\n        /* \"Contracts\":950:980  require(msg.sender == manager) */\n      tag_88\n      jumpi\n      0x00\n      dup1\n      revert\n    tag_88:\n        /* \"Contracts\":1444:1469  Request memory newRequest */\n      0x00\n        /* \"Contracts\":1472:1691  Request({\r... */\n      mload(0x40)\n      dup1\n      0xc0\n      add\n      0x40\n      mstore\n      dup1\n        /* \"Contracts\":1502:1510  requests */\n      0x04\n        /* \"Contracts\":1502:1517  requests.length */\n      dup1\n      sload\n      swap1\n      pop\n        /* \"Contracts\":1472:1691  Request({\r... */\n      dup2\n      mstore\n      0x20\n      add\n        /* \"Contracts\":1545:1556  description */\n      dup6\n        /* \"Contracts\":1472:1691  Request({\r... */\n      dup2\n      mstore\n      0x20\n      add\n        /* \"Contracts\":1578:1583  value */\n      dup5\n        /* \"Contracts\":1472:1691  Request({\r... */\n      dup2\n      mstore\n      0x20\n      add\n        /* \"Contracts\":1609:1618  recipient */\n      dup4\n        /* \"Contracts\":1472:1691  Request({\r... */\n      0xffffffffffffffffffffffffffffffffffffffff\n      and\n      dup2\n      mstore\n      0x20\n      add\n        /* \"Contracts\":1643:1648  false */\n      0x00\n        /* \"Contracts\":1472:1691  Request({\r... */\n      iszero\n      iszero\n      dup2\n      mstore\n      0x20\n      add\n        /* \"Contracts\":1678:1679  0 */\n      0x00\n        /* \"Contracts\":1472:1691  Request({\r... */\n      dup2\n      mstore\n      pop\n        /* \"Contracts\":1444:1691  Request memory newRequest = Request({\r... */\n      swap1\n      pop\n        /* \"Contracts\":1704:1712  requests */\n      0x04\n        /* \"Contracts\":1718:1728  newRequest */\n      dup2\n        /* \"Contracts\":1704:1729  requests.push(newRequest) */\n      swap1\n      dup1\n      0x01\n      dup2\n      sload\n      add\n      dup1\n      dup3\n      sstore\n      dup1\n      swap2\n      pop\n      pop\n      0x01\n      swap1\n      sub\n      swap1\n      0x00\n      mstore\n      keccak256(0x00, 0x20)\n      swap1\n      0x05\n      mul\n      add\n      0x00\n      swap1\n      swap2\n      swap1\n      swap2\n      swap1\n      swap2\n      pop\n      0x00\n      dup3\n      add\n      mload\n      dup2\n      0x00\n      add\n      sstore\n      0x20\n      dup3\n      add\n      mload\n      dup2\n      0x01\n      add\n      swap1\n      dup1\n      mload\n      swap1\n      0x20\n      add\n      swap1\n      tag_91\n      swap3\n      swap2\n      swap1\n      tag_92\n      jump\t// in\n    tag_91:\n      pop\n      0x40\n      dup3\n      add\n      mload\n      dup2\n      0x02\n      add\n      sstore\n      0x60\n      dup3\n      add\n      mload\n      dup2\n      0x03\n      add\n      exp(0x0100, 0x00)\n      dup2\n      sload\n      dup2\n      0xffffffffffffffffffffffffffffffffffffffff\n      mul\n      not\n      and\n      swap1\n      dup4\n      0xffffffffffffffffffffffffffffffffffffffff\n      and\n      mul\n      or\n      swap1\n      sstore\n      pop\n      0x80\n      dup3\n      add\n      mload\n      dup2\n      0x03\n      add\n      exp(0x0100, 0x14)\n      dup2\n      sload\n      dup2\n      0xff\n      mul\n      not\n      and\n      swap1\n      dup4\n      iszero\n      iszero\n      mul\n      or\n      swap1\n      sstore\n      pop\n      0xa0\n      dup3\n      add\n      mload\n      dup2\n      0x04\n      add\n      sstore\n      pop\n      pop\n        /* \"Contracts\":991:992  _ */\n      pop\n        /* \"Contracts\":1310:1737  function createRequest(string memory description, uint value, address payable recipient) \r... */\n      pop\n      pop\n      pop\n      jump\t// out\n        /* \"Contracts\":696:730  uint256 public minimumContribution */\n    tag_58:\n      sload(0x01)\n      dup2\n      jump\t// out\n        /* \"Contracts\":1138:1302  function contribute() public payable {\r... */\n    tag_61:\n        /* \"Contracts\":1206:1225  minimumContribution */\n      sload(0x01)\n        /* \"Contracts\":1194:1203  msg.value */\n      callvalue\n        /* \"Contracts\":1194:1225  msg.value > minimumContribution */\n      gt\n        /* \"Contracts\":1186:1226  require(msg.value > minimumContribution) */\n      tag_94\n      jumpi\n      0x00\n      dup1\n      revert\n    tag_94:\n        /* \"Contracts\":1263:1267  true */\n      0x01\n        /* \"Contracts\":1239:1248  approvers */\n      0x02\n        /* \"Contracts\":1239:1260  approvers[msg.sender] */\n      0x00\n        /* \"Contracts\":1249:1259  msg.sender */\n      caller\n        /* \"Contracts\":1239:1260  approvers[msg.sender] */\n      0xffffffffffffffffffffffffffffffffffffffff\n      and\n      0xffffffffffffffffffffffffffffffffffffffff\n      and\n      dup2\n      mstore\n      0x20\n      add\n      swap1\n      dup2\n      mstore\n      0x20\n      add\n      0x00\n      keccak256\n      0x00\n        /* \"Contracts\":1239:1267  approvers[msg.sender] = true */\n      0x0100\n      exp\n      dup2\n      sload\n      dup2\n      0xff\n      mul\n      not\n      and\n      swap1\n      dup4\n      iszero\n      iszero\n      mul\n      or\n      swap1\n      sstore\n      pop\n        /* \"Contracts\":1278:1292  approversCount */\n      0x03\n      0x00\n        /* \"Contracts\":1278:1294  approversCount++ */\n      dup2\n      sload\n      dup1\n      swap3\n      swap2\n      swap1\n      tag_95\n      swap1\n      tag_96\n      jump\t// in\n    tag_95:\n      swap2\n      swap1\n      pop\n      sstore\n      pop\n        /* \"Contracts\":1138:1302  function contribute() public payable {\r... */\n      jump\t// out\n        /* \"Contracts\":1745:2052  function approveRequest(uint index) public {\r... */\n    tag_65:\n        /* \"Contracts\":1799:1822  Request storage request */\n      0x00\n        /* \"Contracts\":1825:1833  requests */\n      0x04\n        /* \"Contracts\":1834:1839  index */\n      dup3\n        /* \"Contracts\":1825:1840  requests[index] */\n      dup2\n      sload\n      dup2\n      lt\n      tag_98\n      jumpi\n      mstore(0x00, 0x4e487b7100000000000000000000000000000000000000000000000000000000)\n      mstore(0x04, 0x32)\n      revert(0x00, 0x24)\n    tag_98:\n      swap1\n      0x00\n      mstore\n      keccak256(0x00, 0x20)\n      swap1\n      0x05\n      mul\n      add\n        /* \"Contracts\":1799:1840  Request storage request = requests[index] */\n      swap1\n      pop\n        /* \"Contracts\":1861:1870  approvers */\n      0x02\n        /* \"Contracts\":1861:1882  approvers[msg.sender] */\n      0x00\n        /* \"Contracts\":1871:1881  msg.sender */\n      caller\n        /* \"Contracts\":1861:1882  approvers[msg.sender] */\n      0xffffffffffffffffffffffffffffffffffffffff\n      and\n      0xffffffffffffffffffffffffffffffffffffffff\n      and\n      dup2\n      mstore\n      0x20\n      add\n      swap1\n      dup2\n      mstore\n      0x20\n      add\n      0x00\n      keccak256\n      0x00\n      swap1\n      sload\n      swap1\n      0x0100\n      exp\n      swap1\n      div\n      0xff\n      and\n        /* \"Contracts\":1853:1883  require(approvers[msg.sender]) */\n      tag_100\n      jumpi\n      0x00\n      dup1\n      revert\n    tag_100:\n        /* \"Contracts\":1903:1919  requestApprovals */\n      0x05\n        /* \"Contracts\":1903:1934  requestApprovals[request.index] */\n      0x00\n        /* \"Contracts\":1920:1927  request */\n      dup3\n        /* \"Contracts\":1920:1933  request.index */\n      0x00\n      add\n      sload\n        /* \"Contracts\":1903:1934  requestApprovals[request.index] */\n      dup2\n      mstore\n      0x20\n      add\n      swap1\n      dup2\n      mstore\n      0x20\n      add\n      0x00\n      keccak256\n        /* \"Contracts\":1903:1946  requestApprovals[request.index][msg.sender] */\n      0x00\n        /* \"Contracts\":1935:1945  msg.sender */\n      caller\n        /* \"Contracts\":1903:1946  requestApprovals[request.index][msg.sender] */\n      0xffffffffffffffffffffffffffffffffffffffff\n      and\n      0xffffffffffffffffffffffffffffffffffffffff\n      and\n      dup2\n      mstore\n      0x20\n      add\n      swap1\n      dup2\n      mstore\n      0x20\n      add\n      0x00\n      keccak256\n      0x00\n      swap1\n      sload\n      swap1\n      0x0100\n      exp\n      swap1\n      div\n      0xff\n      and\n        /* \"Contracts\":1902:1946  !requestApprovals[request.index][msg.sender] */\n      iszero\n        /* \"Contracts\":1894:1947  require(!requestApprovals[request.index][msg.sender]) */\n      tag_101\n      jumpi\n      0x00\n      dup1\n      revert\n    tag_101:\n        /* \"Contracts\":2006:2010  true */\n      0x01\n        /* \"Contracts\":1960:1976  requestApprovals */\n      0x05\n        /* \"Contracts\":1960:1991  requestApprovals[request.index] */\n      0x00\n        /* \"Contracts\":1977:1984  request */\n      dup4\n        /* \"Contracts\":1977:1990  request.index */\n      0x00\n      add\n      sload\n        /* \"Contracts\":1960:1991  requestApprovals[request.index] */\n      dup2\n      mstore\n      0x20\n      add\n      swap1\n      dup2\n      mstore\n      0x20\n      add\n      0x00\n      keccak256\n        /* \"Contracts\":1960:2003  requestApprovals[request.index][msg.sender] */\n      0x00\n        /* \"Contracts\":1992:2002  msg.sender */\n      caller\n        /* \"Contracts\":1960:2003  requestApprovals[request.index][msg.sender] */\n      0xffffffffffffffffffffffffffffffffffffffff\n      and\n      0xffffffffffffffffffffffffffffffffffffffff\n      and\n      dup2\n      mstore\n      0x20\n      add\n      swap1\n      dup2\n      mstore\n      0x20\n      add\n      0x00\n      keccak256\n      0x00\n        /* \"Contracts\":1960:2010  requestApprovals[request.index][msg.sender] = true */\n      0x0100\n      exp\n      dup2\n      sload\n      dup2\n      0xff\n      mul\n      not\n      and\n      swap1\n      dup4\n      iszero\n      iszero\n      mul\n      or\n      swap1\n      sstore\n      pop\n        /* \"Contracts\":2021:2028  request */\n      dup1\n        /* \"Contracts\":2021:2042  request.approvalCount */\n      0x04\n      add\n      0x00\n        /* \"Contracts\":2021:2044  request.approvalCount++ */\n      dup2\n      sload\n      dup1\n      swap3\n      swap2\n      swap1\n      tag_102\n      swap1\n      tag_96\n      jump\t// in\n    tag_102:\n      swap2\n      swap1\n      pop\n      sstore\n      pop\n        /* \"Contracts\":1745:2052  function approveRequest(uint index) public {\r... */\n      pop\n      pop\n      jump\t// out\n    tag_92:\n      dup3\n      dup1\n      sload\n      tag_103\n      swap1\n      tag_82\n      jump\t// in\n    tag_103:\n      swap1\n      0x00\n      mstore\n      keccak256(0x00, 0x20)\n      swap1\n      0x1f\n      add\n      0x20\n      swap1\n      div\n      dup2\n      add\n      swap3\n      dup3\n      tag_105\n      jumpi\n      0x00\n      dup6\n      sstore\n      jump(tag_104)\n    tag_105:\n      dup3\n      0x1f\n      lt\n      tag_106\n      jumpi\n      dup1\n      mload\n      not(0xff)\n      and\n      dup4\n      dup1\n      add\n      or\n      dup6\n      sstore\n      jump(tag_104)\n    tag_106:\n      dup3\n      dup1\n      add\n      0x01\n      add\n      dup6\n      sstore\n      dup3\n      iszero\n      tag_104\n      jumpi\n      swap2\n      dup3\n      add\n    tag_107:\n      dup3\n      dup2\n      gt\n      iszero\n      tag_108\n      jumpi\n      dup3\n      mload\n      dup3\n      sstore\n      swap2\n      0x20\n      add\n      swap2\n      swap1\n      0x01\n      add\n      swap1\n      jump(tag_107)\n    tag_108:\n    tag_104:\n      pop\n      swap1\n      pop\n      tag_109\n      swap2\n      swap1\n      tag_110\n      jump\t// in\n    tag_109:\n      pop\n      swap1\n      jump\t// out\n    tag_110:\n    tag_111:\n      dup1\n      dup3\n      gt\n      iszero\n      tag_112\n      jumpi\n      0x00\n      dup2\n      0x00\n      swap1\n      sstore\n      pop\n      0x01\n      add\n      jump(tag_111)\n    tag_112:\n      pop\n      swap1\n      jump\t// out\n        /* \"#utility.yul\":7:351   */\n    tag_114:\n      0x00\n        /* \"#utility.yul\":110:175   */\n      tag_116\n        /* \"#utility.yul\":125:174   */\n      tag_117\n        /* \"#utility.yul\":167:173   */\n      dup5\n        /* \"#utility.yul\":125:174   */\n      tag_118\n      jump\t// in\n    tag_117:\n        /* \"#utility.yul\":110:175   */\n      tag_119\n      jump\t// in\n    tag_116:\n        /* \"#utility.yul\":101:175   */\n      swap1\n      pop\n        /* \"#utility.yul\":198:204   */\n      dup3\n        /* \"#utility.yul\":191:196   */\n      dup2\n        /* \"#utility.yul\":184:205   */\n      mstore\n        /* \"#utility.yul\":236:240   */\n      0x20\n        /* \"#utility.yul\":229:234   */\n      dup2\n        /* \"#utility.yul\":225:241   */\n      add\n        /* \"#utility.yul\":274:277   */\n      dup5\n        /* \"#utility.yul\":265:271   */\n      dup5\n        /* \"#utility.yul\":260:263   */\n      dup5\n        /* \"#utility.yul\":256:272   */\n      add\n        /* \"#utility.yul\":253:278   */\n      gt\n        /* \"#utility.yul\":250:252   */\n      iszero\n      tag_120\n      jumpi\n        /* \"#utility.yul\":291:292   */\n      0x00\n        /* \"#utility.yul\":288:289   */\n      dup1\n        /* \"#utility.yul\":281:293   */\n      revert\n        /* \"#utility.yul\":250:252   */\n    tag_120:\n        /* \"#utility.yul\":304:345   */\n      tag_121\n        /* \"#utility.yul\":338:344   */\n      dup5\n        /* \"#utility.yul\":333:336   */\n      dup3\n        /* \"#utility.yul\":328:331   */\n      dup6\n        /* \"#utility.yul\":304:345   */\n      tag_122\n      jump\t// in\n    tag_121:\n        /* \"#utility.yul\":91:351   */\n      pop\n      swap4\n      swap3\n      pop\n      pop\n      pop\n      jump\t// out\n        /* \"#utility.yul\":357:496   */\n    tag_123:\n      0x00\n        /* \"#utility.yul\":441:447   */\n      dup2\n        /* \"#utility.yul\":428:448   */\n      calldataload\n        /* \"#utility.yul\":419:448   */\n      swap1\n      pop\n        /* \"#utility.yul\":457:490   */\n      tag_125\n        /* \"#utility.yul\":484:489   */\n      dup2\n        /* \"#utility.yul\":457:490   */\n      tag_126\n      jump\t// in\n    tag_125:\n        /* \"#utility.yul\":409:496   */\n      swap3\n      swap2\n      pop\n      pop\n      jump\t// out\n        /* \"#utility.yul\":502:657   */\n    tag_127:\n      0x00\n        /* \"#utility.yul\":594:600   */\n      dup2\n        /* \"#utility.yul\":581:601   */\n      calldataload\n        /* \"#utility.yul\":572:601   */\n      swap1\n      pop\n        /* \"#utility.yul\":610:651   */\n      tag_129\n        /* \"#utility.yul\":645:650   */\n      dup2\n        /* \"#utility.yul\":610:651   */\n      tag_130\n      jump\t// in\n    tag_129:\n        /* \"#utility.yul\":562:657   */\n      swap3\n      swap2\n      pop\n      pop\n      jump\t// out\n        /* \"#utility.yul\":677:950   */\n    tag_131:\n      0x00\n        /* \"#utility.yul\":782:785   */\n      dup3\n        /* \"#utility.yul\":775:779   */\n      0x1f\n        /* \"#utility.yul\":767:773   */\n      dup4\n        /* \"#utility.yul\":763:780   */\n      add\n        /* \"#utility.yul\":759:786   */\n      slt\n        /* \"#utility.yul\":749:751   */\n      tag_133\n      jumpi\n        /* \"#utility.yul\":800:801   */\n      0x00\n        /* \"#utility.yul\":797:798   */\n      dup1\n        /* \"#utility.yul\":790:802   */\n      revert\n        /* \"#utility.yul\":749:751   */\n    tag_133:\n        /* \"#utility.yul\":840:846   */\n      dup2\n        /* \"#utility.yul\":827:847   */\n      calldataload\n        /* \"#utility.yul\":865:944   */\n      tag_134\n        /* \"#utility.yul\":940:943   */\n      dup5\n        /* \"#utility.yul\":932:938   */\n      dup3\n        /* \"#utility.yul\":925:929   */\n      0x20\n        /* \"#utility.yul\":917:923   */\n      dup7\n        /* \"#utility.yul\":913:930   */\n      add\n        /* \"#utility.yul\":865:944   */\n      tag_114\n      jump\t// in\n    tag_134:\n        /* \"#utility.yul\":856:944   */\n      swap2\n      pop\n        /* \"#utility.yul\":739:950   */\n      pop\n      swap3\n      swap2\n      pop\n      pop\n      jump\t// out\n        /* \"#utility.yul\":956:1095   */\n    tag_135:\n      0x00\n        /* \"#utility.yul\":1040:1046   */\n      dup2\n        /* \"#utility.yul\":1027:1047   */\n      calldataload\n        /* \"#utility.yul\":1018:1047   */\n      swap1\n      pop\n        /* \"#utility.yul\":1056:1089   */\n      tag_137\n        /* \"#utility.yul\":1083:1088   */\n      dup2\n        /* \"#utility.yul\":1056:1089   */\n      tag_138\n      jump\t// in\n    tag_137:\n        /* \"#utility.yul\":1008:1095   */\n      swap3\n      swap2\n      pop\n      pop\n      jump\t// out\n        /* \"#utility.yul\":1101:1363   */\n    tag_22:\n      0x00\n        /* \"#utility.yul\":1209:1211   */\n      0x20\n        /* \"#utility.yul\":1197:1206   */\n      dup3\n        /* \"#utility.yul\":1188:1195   */\n      dup5\n        /* \"#utility.yul\":1184:1207   */\n      sub\n        /* \"#utility.yul\":1180:1212   */\n      slt\n        /* \"#utility.yul\":1177:1179   */\n      iszero\n      tag_140\n      jumpi\n        /* \"#utility.yul\":1225:1226   */\n      0x00\n        /* \"#utility.yul\":1222:1223   */\n      dup1\n        /* \"#utility.yul\":1215:1227   */\n      revert\n        /* \"#utility.yul\":1177:1179   */\n    tag_140:\n        /* \"#utility.yul\":1268:1269   */\n      0x00\n        /* \"#utility.yul\":1293:1346   */\n      tag_141\n        /* \"#utility.yul\":1338:1345   */\n      dup5\n        /* \"#utility.yul\":1329:1335   */\n      dup3\n        /* \"#utility.yul\":1318:1327   */\n      dup6\n        /* \"#utility.yul\":1314:1336   */\n      add\n        /* \"#utility.yul\":1293:1346   */\n      tag_123\n      jump\t// in\n    tag_141:\n        /* \"#utility.yul\":1283:1346   */\n      swap2\n      pop\n        /* \"#utility.yul\":1239:1356   */\n      pop\n        /* \"#utility.yul\":1167:1363   */\n      swap3\n      swap2\n      pop\n      pop\n      jump\t// out\n        /* \"#utility.yul\":1369:2050   */\n    tag_54:\n      0x00\n      dup1\n      0x00\n        /* \"#utility.yul\":1529:1531   */\n      0x60\n        /* \"#utility.yul\":1517:1526   */\n      dup5\n        /* \"#utility.yul\":1508:1515   */\n      dup7\n        /* \"#utility.yul\":1504:1527   */\n      sub\n        /* \"#utility.yul\":1500:1532   */\n      slt\n        /* \"#utility.yul\":1497:1499   */\n      iszero\n      tag_143\n      jumpi\n        /* \"#utility.yul\":1545:1546   */\n      0x00\n        /* \"#utility.yul\":1542:1543   */\n      dup1\n        /* \"#utility.yul\":1535:1547   */\n      revert\n        /* \"#utility.yul\":1497:1499   */\n    tag_143:\n        /* \"#utility.yul\":1616:1617   */\n      0x00\n        /* \"#utility.yul\":1605:1614   */\n      dup5\n        /* \"#utility.yul\":1601:1618   */\n      add\n        /* \"#utility.yul\":1588:1619   */\n      calldataload\n        /* \"#utility.yul\":1646:1664   */\n      0xffffffffffffffff\n        /* \"#utility.yul\":1638:1644   */\n      dup2\n        /* \"#utility.yul\":1635:1665   */\n      gt\n        /* \"#utility.yul\":1632:1634   */\n      iszero\n      tag_144\n      jumpi\n        /* \"#utility.yul\":1678:1679   */\n      0x00\n        /* \"#utility.yul\":1675:1676   */\n      dup1\n        /* \"#utility.yul\":1668:1680   */\n      revert\n        /* \"#utility.yul\":1632:1634   */\n    tag_144:\n        /* \"#utility.yul\":1706:1769   */\n      tag_145\n        /* \"#utility.yul\":1761:1768   */\n      dup7\n        /* \"#utility.yul\":1752:1758   */\n      dup3\n        /* \"#utility.yul\":1741:1750   */\n      dup8\n        /* \"#utility.yul\":1737:1759   */\n      add\n        /* \"#utility.yul\":1706:1769   */\n      tag_131\n      jump\t// in\n    tag_145:\n        /* \"#utility.yul\":1696:1769   */\n      swap4\n      pop\n        /* \"#utility.yul\":1559:1779   */\n      pop\n        /* \"#utility.yul\":1818:1820   */\n      0x20\n        /* \"#utility.yul\":1844:1897   */\n      tag_146\n        /* \"#utility.yul\":1889:1896   */\n      dup7\n        /* \"#utility.yul\":1880:1886   */\n      dup3\n        /* \"#utility.yul\":1869:1878   */\n      dup8\n        /* \"#utility.yul\":1865:1887   */\n      add\n        /* \"#utility.yul\":1844:1897   */\n      tag_135\n      jump\t// in\n    tag_146:\n        /* \"#utility.yul\":1834:1897   */\n      swap3\n      pop\n        /* \"#utility.yul\":1789:1907   */\n      pop\n        /* \"#utility.yul\":1946:1948   */\n      0x40\n        /* \"#utility.yul\":1972:2033   */\n      tag_147\n        /* \"#utility.yul\":2025:2032   */\n      dup7\n        /* \"#utility.yul\":2016:2022   */\n      dup3\n        /* \"#utility.yul\":2005:2014   */\n      dup8\n        /* \"#utility.yul\":2001:2023   */\n      add\n        /* \"#utility.yul\":1972:2033   */\n      tag_127\n      jump\t// in\n    tag_147:\n        /* \"#utility.yul\":1962:2033   */\n      swap2\n      pop\n        /* \"#utility.yul\":1917:2043   */\n      pop\n        /* \"#utility.yul\":1487:2050   */\n      swap3\n      pop\n      swap3\n      pop\n      swap3\n      jump\t// out\n        /* \"#utility.yul\":2056:2318   */\n    tag_17:\n      0x00\n        /* \"#utility.yul\":2164:2166   */\n      0x20\n        /* \"#utility.yul\":2152:2161   */\n      dup3\n        /* \"#utility.yul\":2143:2150   */\n      dup5\n        /* \"#utility.yul\":2139:2162   */\n      sub\n        /* \"#utility.yul\":2135:2167   */\n      slt\n        /* \"#utility.yul\":2132:2134   */\n      iszero\n      tag_149\n      jumpi\n        /* \"#utility.yul\":2180:2181   */\n      0x00\n        /* \"#utility.yul\":2177:2178   */\n      dup1\n        /* \"#utility.yul\":2170:2182   */\n      revert\n        /* \"#utility.yul\":2132:2134   */\n    tag_149:\n        /* \"#utility.yul\":2223:2224   */\n      0x00\n        /* \"#utility.yul\":2248:2301   */\n      tag_150\n        /* \"#utility.yul\":2293:2300   */\n      dup5\n        /* \"#utility.yul\":2284:2290   */\n      dup3\n        /* \"#utility.yul\":2273:2282   */\n      dup6\n        /* \"#utility.yul\":2269:2291   */\n      add\n        /* \"#utility.yul\":2248:2301   */\n      tag_135\n      jump\t// in\n    tag_150:\n        /* \"#utility.yul\":2238:2301   */\n      swap2\n      pop\n        /* \"#utility.yul\":2194:2311   */\n      pop\n        /* \"#utility.yul\":2122:2318   */\n      swap3\n      swap2\n      pop\n      pop\n      jump\t// out\n        /* \"#utility.yul\":2324:2466   */\n    tag_151:\n        /* \"#utility.yul\":2427:2459   */\n      tag_153\n        /* \"#utility.yul\":2453:2458   */\n      dup2\n        /* \"#utility.yul\":2427:2459   */\n      tag_154\n      jump\t// in\n    tag_153:\n        /* \"#utility.yul\":2422:2425   */\n      dup3\n        /* \"#utility.yul\":2415:2460   */\n      mstore\n        /* \"#utility.yul\":2405:2466   */\n      pop\n      pop\n      jump\t// out\n        /* \"#utility.yul\":2472:2590   */\n    tag_155:\n        /* \"#utility.yul\":2559:2583   */\n      tag_157\n        /* \"#utility.yul\":2577:2582   */\n      dup2\n        /* \"#utility.yul\":2559:2583   */\n      tag_158\n      jump\t// in\n    tag_157:\n        /* \"#utility.yul\":2554:2557   */\n      dup3\n        /* \"#utility.yul\":2547:2584   */\n      mstore\n        /* \"#utility.yul\":2537:2590   */\n      pop\n      pop\n      jump\t// out\n        /* \"#utility.yul\":2596:2705   */\n    tag_159:\n        /* \"#utility.yul\":2677:2698   */\n      tag_161\n        /* \"#utility.yul\":2692:2697   */\n      dup2\n        /* \"#utility.yul\":2677:2698   */\n      tag_162\n      jump\t// in\n    tag_161:\n        /* \"#utility.yul\":2672:2675   */\n      dup3\n        /* \"#utility.yul\":2665:2699   */\n      mstore\n        /* \"#utility.yul\":2655:2705   */\n      pop\n      pop\n      jump\t// out\n        /* \"#utility.yul\":2711:3075   */\n    tag_163:\n      0x00\n        /* \"#utility.yul\":2827:2866   */\n      tag_165\n        /* \"#utility.yul\":2860:2865   */\n      dup3\n        /* \"#utility.yul\":2827:2866   */\n      tag_166\n      jump\t// in\n    tag_165:\n        /* \"#utility.yul\":2882:2953   */\n      tag_167\n        /* \"#utility.yul\":2946:2952   */\n      dup2\n        /* \"#utility.yul\":2941:2944   */\n      dup6\n        /* \"#utility.yul\":2882:2953   */\n      tag_168\n      jump\t// in\n    tag_167:\n        /* \"#utility.yul\":2875:2953   */\n      swap4\n      pop\n        /* \"#utility.yul\":2962:3014   */\n      tag_169\n        /* \"#utility.yul\":3007:3013   */\n      dup2\n        /* \"#utility.yul\":3002:3005   */\n      dup6\n        /* \"#utility.yul\":2995:2999   */\n      0x20\n        /* \"#utility.yul\":2988:2993   */\n      dup7\n        /* \"#utility.yul\":2984:3000   */\n      add\n        /* \"#utility.yul\":2962:3014   */\n      tag_170\n      jump\t// in\n    tag_169:\n        /* \"#utility.yul\":3039:3068   */\n      tag_171\n        /* \"#utility.yul\":3061:3067   */\n      dup2\n        /* \"#utility.yul\":3039:3068   */\n      tag_172\n      jump\t// in\n    tag_171:\n        /* \"#utility.yul\":3034:3037   */\n      dup5\n        /* \"#utility.yul\":3030:3069   */\n      add\n        /* \"#utility.yul\":3023:3069   */\n      swap2\n      pop\n        /* \"#utility.yul\":2803:3075   */\n      pop\n      swap3\n      swap2\n      pop\n      pop\n      jump\t// out\n        /* \"#utility.yul\":3081:3199   */\n    tag_173:\n        /* \"#utility.yul\":3168:3192   */\n      tag_175\n        /* \"#utility.yul\":3186:3191   */\n      dup2\n        /* \"#utility.yul\":3168:3192   */\n      tag_176\n      jump\t// in\n    tag_175:\n        /* \"#utility.yul\":3163:3166   */\n      dup3\n        /* \"#utility.yul\":3156:3193   */\n      mstore\n        /* \"#utility.yul\":3146:3199   */\n      pop\n      pop\n      jump\t// out\n        /* \"#utility.yul\":3205:3427   */\n    tag_40:\n      0x00\n        /* \"#utility.yul\":3336:3338   */\n      0x20\n        /* \"#utility.yul\":3325:3334   */\n      dup3\n        /* \"#utility.yul\":3321:3339   */\n      add\n        /* \"#utility.yul\":3313:3339   */\n      swap1\n      pop\n        /* \"#utility.yul\":3349:3420   */\n      tag_178\n        /* \"#utility.yul\":3417:3418   */\n      0x00\n        /* \"#utility.yul\":3406:3415   */\n      dup4\n        /* \"#utility.yul\":3402:3419   */\n      add\n        /* \"#utility.yul\":3393:3399   */\n      dup5\n        /* \"#utility.yul\":3349:3420   */\n      tag_155\n      jump\t// in\n    tag_178:\n        /* \"#utility.yul\":3303:3427   */\n      swap3\n      swap2\n      pop\n      pop\n      jump\t// out\n        /* \"#utility.yul\":3433:3643   */\n    tag_25:\n      0x00\n        /* \"#utility.yul\":3558:3560   */\n      0x20\n        /* \"#utility.yul\":3547:3556   */\n      dup3\n        /* \"#utility.yul\":3543:3561   */\n      add\n        /* \"#utility.yul\":3535:3561   */\n      swap1\n      pop\n        /* \"#utility.yul\":3571:3636   */\n      tag_180\n        /* \"#utility.yul\":3633:3634   */\n      0x00\n        /* \"#utility.yul\":3622:3631   */\n      dup4\n        /* \"#utility.yul\":3618:3635   */\n      add\n        /* \"#utility.yul\":3609:3615   */\n      dup5\n        /* \"#utility.yul\":3571:3636   */\n      tag_159\n      jump\t// in\n    tag_180:\n        /* \"#utility.yul\":3525:3643   */\n      swap3\n      swap2\n      pop\n      pop\n      jump\t// out\n        /* \"#utility.yul\":3649:3871   */\n    tag_30:\n      0x00\n        /* \"#utility.yul\":3780:3782   */\n      0x20\n        /* \"#utility.yul\":3769:3778   */\n      dup3\n        /* \"#utility.yul\":3765:3783   */\n      add\n        /* \"#utility.yul\":3757:3783   */\n      swap1\n      pop\n        /* \"#utility.yul\":3793:3864   */\n      tag_182\n        /* \"#utility.yul\":3861:3862   */\n      0x00\n        /* \"#utility.yul\":3850:3859   */\n      dup4\n        /* \"#utility.yul\":3846:3863   */\n      add\n        /* \"#utility.yul\":3837:3843   */\n      dup5\n        /* \"#utility.yul\":3793:3864   */\n      tag_173\n      jump\t// in\n    tag_182:\n        /* \"#utility.yul\":3747:3871   */\n      swap3\n      swap2\n      pop\n      pop\n      jump\t// out\n        /* \"#utility.yul\":3877:4763   */\n    tag_46:\n      0x00\n        /* \"#utility.yul\":4178:4181   */\n      0xc0\n        /* \"#utility.yul\":4167:4176   */\n      dup3\n        /* \"#utility.yul\":4163:4182   */\n      add\n        /* \"#utility.yul\":4155:4182   */\n      swap1\n      pop\n        /* \"#utility.yul\":4192:4263   */\n      tag_184\n        /* \"#utility.yul\":4260:4261   */\n      0x00\n        /* \"#utility.yul\":4249:4258   */\n      dup4\n        /* \"#utility.yul\":4245:4262   */\n      add\n        /* \"#utility.yul\":4236:4242   */\n      dup10\n        /* \"#utility.yul\":4192:4263   */\n      tag_173\n      jump\t// in\n    tag_184:\n        /* \"#utility.yul\":4310:4319   */\n      dup2\n        /* \"#utility.yul\":4304:4308   */\n      dup2\n        /* \"#utility.yul\":4300:4320   */\n      sub\n        /* \"#utility.yul\":4295:4297   */\n      0x20\n        /* \"#utility.yul\":4284:4293   */\n      dup4\n        /* \"#utility.yul\":4280:4298   */\n      add\n        /* \"#utility.yul\":4273:4321   */\n      mstore\n        /* \"#utility.yul\":4338:4416   */\n      tag_185\n        /* \"#utility.yul\":4411:4415   */\n      dup2\n        /* \"#utility.yul\":4402:4408   */\n      dup9\n        /* \"#utility.yul\":4338:4416   */\n      tag_163\n      jump\t// in\n    tag_185:\n        /* \"#utility.yul\":4330:4416   */\n      swap1\n      pop\n        /* \"#utility.yul\":4426:4498   */\n      tag_186\n        /* \"#utility.yul\":4494:4496   */\n      0x40\n        /* \"#utility.yul\":4483:4492   */\n      dup4\n        /* \"#utility.yul\":4479:4497   */\n      add\n        /* \"#utility.yul\":4470:4476   */\n      dup8\n        /* \"#utility.yul\":4426:4498   */\n      tag_173\n      jump\t// in\n    tag_186:\n        /* \"#utility.yul\":4508:4596   */\n      tag_187\n        /* \"#utility.yul\":4592:4594   */\n      0x60\n        /* \"#utility.yul\":4581:4590   */\n      dup4\n        /* \"#utility.yul\":4577:4595   */\n      add\n        /* \"#utility.yul\":4568:4574   */\n      dup7\n        /* \"#utility.yul\":4508:4596   */\n      tag_151\n      jump\t// in\n    tag_187:\n        /* \"#utility.yul\":4606:4673   */\n      tag_188\n        /* \"#utility.yul\":4668:4671   */\n      0x80\n        /* \"#utility.yul\":4657:4666   */\n      dup4\n        /* \"#utility.yul\":4653:4672   */\n      add\n        /* \"#utility.yul\":4644:4650   */\n      dup6\n        /* \"#utility.yul\":4606:4673   */\n      tag_159\n      jump\t// in\n    tag_188:\n        /* \"#utility.yul\":4683:4756   */\n      tag_189\n        /* \"#utility.yul\":4751:4754   */\n      0xa0\n        /* \"#utility.yul\":4740:4749   */\n      dup4\n        /* \"#utility.yul\":4736:4755   */\n      add\n        /* \"#utility.yul\":4727:4733   */\n      dup5\n        /* \"#utility.yul\":4683:4756   */\n      tag_173\n      jump\t// in\n    tag_189:\n        /* \"#utility.yul\":4145:4763   */\n      swap8\n      swap7\n      pop\n      pop\n      pop\n      pop\n      pop\n      pop\n      pop\n      jump\t// out\n        /* \"#utility.yul\":4769:5433   */\n    tag_35:\n      0x00\n        /* \"#utility.yul\":5012:5015   */\n      0xa0\n        /* \"#utility.yul\":5001:5010   */\n      dup3\n        /* \"#utility.yul\":4997:5016   */\n      add\n        /* \"#utility.yul\":4989:5016   */\n      swap1\n      pop\n        /* \"#utility.yul\":5026:5097   */\n      tag_191\n        /* \"#utility.yul\":5094:5095   */\n      0x00\n        /* \"#utility.yul\":5083:5092   */\n      dup4\n        /* \"#utility.yul\":5079:5096   */\n      add\n        /* \"#utility.yul\":5070:5076   */\n      dup9\n        /* \"#utility.yul\":5026:5097   */\n      tag_173\n      jump\t// in\n    tag_191:\n        /* \"#utility.yul\":5107:5179   */\n      tag_192\n        /* \"#utility.yul\":5175:5177   */\n      0x20\n        /* \"#utility.yul\":5164:5173   */\n      dup4\n        /* \"#utility.yul\":5160:5178   */\n      add\n        /* \"#utility.yul\":5151:5157   */\n      dup8\n        /* \"#utility.yul\":5107:5179   */\n      tag_173\n      jump\t// in\n    tag_192:\n        /* \"#utility.yul\":5189:5261   */\n      tag_193\n        /* \"#utility.yul\":5257:5259   */\n      0x40\n        /* \"#utility.yul\":5246:5255   */\n      dup4\n        /* \"#utility.yul\":5242:5260   */\n      add\n        /* \"#utility.yul\":5233:5239   */\n      dup7\n        /* \"#utility.yul\":5189:5261   */\n      tag_173\n      jump\t// in\n    tag_193:\n        /* \"#utility.yul\":5271:5343   */\n      tag_194\n        /* \"#utility.yul\":5339:5341   */\n      0x60\n        /* \"#utility.yul\":5328:5337   */\n      dup4\n        /* \"#utility.yul\":5324:5342   */\n      add\n        /* \"#utility.yul\":5315:5321   */\n      dup6\n        /* \"#utility.yul\":5271:5343   */\n      tag_173\n      jump\t// in\n    tag_194:\n        /* \"#utility.yul\":5353:5426   */\n      tag_195\n        /* \"#utility.yul\":5421:5424   */\n      0x80\n        /* \"#utility.yul\":5410:5419   */\n      dup4\n        /* \"#utility.yul\":5406:5425   */\n      add\n        /* \"#utility.yul\":5397:5403   */\n      dup5\n        /* \"#utility.yul\":5353:5426   */\n      tag_155\n      jump\t// in\n    tag_195:\n        /* \"#utility.yul\":4979:5433   */\n      swap7\n      swap6\n      pop\n      pop\n      pop\n      pop\n      pop\n      pop\n      jump\t// out\n        /* \"#utility.yul\":5439:5722   */\n    tag_119:\n      0x00\n        /* \"#utility.yul\":5505:5507   */\n      0x40\n        /* \"#utility.yul\":5499:5508   */\n      mload\n        /* \"#utility.yul\":5489:5508   */\n      swap1\n      pop\n        /* \"#utility.yul\":5547:5551   */\n      dup2\n        /* \"#utility.yul\":5539:5545   */\n      dup2\n        /* \"#utility.yul\":5535:5552   */\n      add\n        /* \"#utility.yul\":5654:5660   */\n      dup2\n        /* \"#utility.yul\":5642:5652   */\n      dup2\n        /* \"#utility.yul\":5639:5661   */\n      lt\n        /* \"#utility.yul\":5618:5636   */\n      0xffffffffffffffff\n        /* \"#utility.yul\":5606:5616   */\n      dup3\n        /* \"#utility.yul\":5603:5637   */\n      gt\n        /* \"#utility.yul\":5600:5662   */\n      or\n        /* \"#utility.yul\":5597:5599   */\n      iszero\n      tag_197\n      jumpi\n        /* \"#utility.yul\":5665:5683   */\n      tag_198\n      tag_199\n      jump\t// in\n    tag_198:\n        /* \"#utility.yul\":5597:5599   */\n    tag_197:\n        /* \"#utility.yul\":5705:5715   */\n      dup1\n        /* \"#utility.yul\":5701:5703   */\n      0x40\n        /* \"#utility.yul\":5694:5716   */\n      mstore\n        /* \"#utility.yul\":5479:5722   */\n      pop\n      swap2\n      swap1\n      pop\n      jump\t// out\n        /* \"#utility.yul\":5728:6060   */\n    tag_118:\n      0x00\n        /* \"#utility.yul\":5880:5898   */\n      0xffffffffffffffff\n        /* \"#utility.yul\":5872:5878   */\n      dup3\n        /* \"#utility.yul\":5869:5899   */\n      gt\n        /* \"#utility.yul\":5866:5868   */\n      iszero\n      tag_201\n      jumpi\n        /* \"#utility.yul\":5902:5920   */\n      tag_202\n      tag_199\n      jump\t// in\n    tag_202:\n        /* \"#utility.yul\":5866:5868   */\n    tag_201:\n        /* \"#utility.yul\":5987:5991   */\n      0x1f\n        /* \"#utility.yul\":5983:5992   */\n      not\n        /* \"#utility.yul\":5976:5980   */\n      0x1f\n        /* \"#utility.yul\":5968:5974   */\n      dup4\n        /* \"#utility.yul\":5964:5981   */\n      add\n        /* \"#utility.yul\":5960:5993   */\n      and\n        /* \"#utility.yul\":5952:5993   */\n      swap1\n      pop\n        /* \"#utility.yul\":6048:6052   */\n      0x20\n        /* \"#utility.yul\":6042:6046   */\n      dup2\n        /* \"#utility.yul\":6038:6053   */\n      add\n        /* \"#utility.yul\":6030:6053   */\n      swap1\n      pop\n        /* \"#utility.yul\":5795:6060   */\n      swap2\n      swap1\n      pop\n      jump\t// out\n        /* \"#utility.yul\":6066:6165   */\n    tag_166:\n      0x00\n        /* \"#utility.yul\":6152:6157   */\n      dup2\n        /* \"#utility.yul\":6146:6158   */\n      mload\n        /* \"#utility.yul\":6136:6158   */\n      swap1\n      pop\n        /* \"#utility.yul\":6125:6165   */\n      swap2\n      swap1\n      pop\n      jump\t// out\n        /* \"#utility.yul\":6171:6340   */\n    tag_168:\n      0x00\n        /* \"#utility.yul\":6289:6295   */\n      dup3\n        /* \"#utility.yul\":6284:6287   */\n      dup3\n        /* \"#utility.yul\":6277:6296   */\n      mstore\n        /* \"#utility.yul\":6329:6333   */\n      0x20\n        /* \"#utility.yul\":6324:6327   */\n      dup3\n        /* \"#utility.yul\":6320:6334   */\n      add\n        /* \"#utility.yul\":6305:6334   */\n      swap1\n      pop\n        /* \"#utility.yul\":6267:6340   */\n      swap3\n      swap2\n      pop\n      pop\n      jump\t// out\n        /* \"#utility.yul\":6346:6531   */\n    tag_72:\n      0x00\n        /* \"#utility.yul\":6403:6423   */\n      tag_206\n        /* \"#utility.yul\":6421:6422   */\n      dup3\n        /* \"#utility.yul\":6403:6423   */\n      tag_176\n      jump\t// in\n    tag_206:\n        /* \"#utility.yul\":6398:6423   */\n      swap2\n      pop\n        /* \"#utility.yul\":6437:6457   */\n      tag_207\n        /* \"#utility.yul\":6455:6456   */\n      dup4\n        /* \"#utility.yul\":6437:6457   */\n      tag_176\n      jump\t// in\n    tag_207:\n        /* \"#utility.yul\":6432:6457   */\n      swap3\n      pop\n        /* \"#utility.yul\":6476:6477   */\n      dup3\n        /* \"#utility.yul\":6466:6468   */\n      tag_208\n      jumpi\n        /* \"#utility.yul\":6481:6499   */\n      tag_209\n      tag_210\n      jump\t// in\n    tag_209:\n        /* \"#utility.yul\":6466:6468   */\n    tag_208:\n        /* \"#utility.yul\":6523:6524   */\n      dup3\n        /* \"#utility.yul\":6520:6521   */\n      dup3\n        /* \"#utility.yul\":6516:6525   */\n      div\n        /* \"#utility.yul\":6511:6525   */\n      swap1\n      pop\n        /* \"#utility.yul\":6388:6531   */\n      swap3\n      swap2\n      pop\n      pop\n      jump\t// out\n        /* \"#utility.yul\":6537:6633   */\n    tag_158:\n      0x00\n        /* \"#utility.yul\":6603:6627   */\n      tag_212\n        /* \"#utility.yul\":6621:6626   */\n      dup3\n        /* \"#utility.yul\":6603:6627   */\n      tag_213\n      jump\t// in\n    tag_212:\n        /* \"#utility.yul\":6592:6627   */\n      swap1\n      pop\n        /* \"#utility.yul\":6582:6633   */\n      swap2\n      swap1\n      pop\n      jump\t// out\n        /* \"#utility.yul\":6639:6743   */\n    tag_154:\n      0x00\n        /* \"#utility.yul\":6713:6737   */\n      tag_215\n        /* \"#utility.yul\":6731:6736   */\n      dup3\n        /* \"#utility.yul\":6713:6737   */\n      tag_213\n      jump\t// in\n    tag_215:\n        /* \"#utility.yul\":6702:6737   */\n      swap1\n      pop\n        /* \"#utility.yul\":6692:6743   */\n      swap2\n      swap1\n      pop\n      jump\t// out\n        /* \"#utility.yul\":6749:6839   */\n    tag_162:\n      0x00\n        /* \"#utility.yul\":6826:6831   */\n      dup2\n        /* \"#utility.yul\":6819:6832   */\n      iszero\n        /* \"#utility.yul\":6812:6833   */\n      iszero\n        /* \"#utility.yul\":6801:6833   */\n      swap1\n      pop\n        /* \"#utility.yul\":6791:6839   */\n      swap2\n      swap1\n      pop\n      jump\t// out\n        /* \"#utility.yul\":6845:6971   */\n    tag_213:\n      0x00\n        /* \"#utility.yul\":6922:6964   */\n      0xffffffffffffffffffffffffffffffffffffffff\n        /* \"#utility.yul\":6915:6920   */\n      dup3\n        /* \"#utility.yul\":6911:6965   */\n      and\n        /* \"#utility.yul\":6900:6965   */\n      swap1\n      pop\n        /* \"#utility.yul\":6890:6971   */\n      swap2\n      swap1\n      pop\n      jump\t// out\n        /* \"#utility.yul\":6977:7054   */\n    tag_176:\n      0x00\n        /* \"#utility.yul\":7043:7048   */\n      dup2\n        /* \"#utility.yul\":7032:7048   */\n      swap1\n      pop\n        /* \"#utility.yul\":7022:7054   */\n      swap2\n      swap1\n      pop\n      jump\t// out\n        /* \"#utility.yul\":7060:7214   */\n    tag_122:\n        /* \"#utility.yul\":7144:7150   */\n      dup3\n        /* \"#utility.yul\":7139:7142   */\n      dup2\n        /* \"#utility.yul\":7134:7137   */\n      dup4\n        /* \"#utility.yul\":7121:7151   */\n      calldatacopy\n        /* \"#utility.yul\":7206:7207   */\n      0x00\n        /* \"#utility.yul\":7197:7203   */\n      dup4\n        /* \"#utility.yul\":7192:7195   */\n      dup4\n        /* \"#utility.yul\":7188:7204   */\n      add\n        /* \"#utility.yul\":7181:7208   */\n      mstore\n        /* \"#utility.yul\":7111:7214   */\n      pop\n      pop\n      pop\n      jump\t// out\n        /* \"#utility.yul\":7220:7527   */\n    tag_170:\n        /* \"#utility.yul\":7288:7289   */\n      0x00\n        /* \"#utility.yul\":7298:7411   */\n    tag_221:\n        /* \"#utility.yul\":7312:7318   */\n      dup4\n        /* \"#utility.yul\":7309:7310   */\n      dup2\n        /* \"#utility.yul\":7306:7319   */\n      lt\n        /* \"#utility.yul\":7298:7411   */\n      iszero\n      tag_223\n      jumpi\n        /* \"#utility.yul\":7397:7398   */\n      dup1\n        /* \"#utility.yul\":7392:7395   */\n      dup3\n        /* \"#utility.yul\":7388:7399   */\n      add\n        /* \"#utility.yul\":7382:7400   */\n      mload\n        /* \"#utility.yul\":7378:7379   */\n      dup2\n        /* \"#utility.yul\":7373:7376   */\n      dup5\n        /* \"#utility.yul\":7369:7380   */\n      add\n        /* \"#utility.yul\":7362:7401   */\n      mstore\n        /* \"#utility.yul\":7334:7336   */\n      0x20\n        /* \"#utility.yul\":7331:7332   */\n      dup2\n        /* \"#utility.yul\":7327:7337   */\n      add\n        /* \"#utility.yul\":7322:7337   */\n      swap1\n      pop\n        /* \"#utility.yul\":7298:7411   */\n      jump(tag_221)\n    tag_223:\n        /* \"#utility.yul\":7429:7435   */\n      dup4\n        /* \"#utility.yul\":7426:7427   */\n      dup2\n        /* \"#utility.yul\":7423:7436   */\n      gt\n        /* \"#utility.yul\":7420:7422   */\n      iszero\n      tag_224\n      jumpi\n        /* \"#utility.yul\":7509:7510   */\n      0x00\n        /* \"#utility.yul\":7500:7506   */\n      dup5\n        /* \"#utility.yul\":7495:7498   */\n      dup5\n        /* \"#utility.yul\":7491:7507   */\n      add\n        /* \"#utility.yul\":7484:7511   */\n      mstore\n        /* \"#utility.yul\":7420:7422   */\n    tag_224:\n        /* \"#utility.yul\":7269:7527   */\n      pop\n      pop\n      pop\n      pop\n      jump\t// out\n        /* \"#utility.yul\":7533:7853   */\n    tag_82:\n      0x00\n        /* \"#utility.yul\":7614:7615   */\n      0x02\n        /* \"#utility.yul\":7608:7612   */\n      dup3\n        /* \"#utility.yul\":7604:7616   */\n      div\n        /* \"#utility.yul\":7594:7616   */\n      swap1\n      pop\n        /* \"#utility.yul\":7661:7662   */\n      0x01\n        /* \"#utility.yul\":7655:7659   */\n      dup3\n        /* \"#utility.yul\":7651:7663   */\n      and\n        /* \"#utility.yul\":7682:7700   */\n      dup1\n        /* \"#utility.yul\":7672:7674   */\n      tag_226\n      jumpi\n        /* \"#utility.yul\":7738:7742   */\n      0x7f\n        /* \"#utility.yul\":7730:7736   */\n      dup3\n        /* \"#utility.yul\":7726:7743   */\n      and\n        /* \"#utility.yul\":7716:7743   */\n      swap2\n      pop\n        /* \"#utility.yul\":7672:7674   */\n    tag_226:\n        /* \"#utility.yul\":7800:7802   */\n      0x20\n        /* \"#utility.yul\":7792:7798   */\n      dup3\n        /* \"#utility.yul\":7789:7803   */\n      lt\n        /* \"#utility.yul\":7769:7787   */\n      dup2\n        /* \"#utility.yul\":7766:7804   */\n      eq\n        /* \"#utility.yul\":7763:7765   */\n      iszero\n      tag_227\n      jumpi\n        /* \"#utility.yul\":7819:7837   */\n      tag_228\n      tag_229\n      jump\t// in\n    tag_228:\n        /* \"#utility.yul\":7763:7765   */\n    tag_227:\n        /* \"#utility.yul\":7584:7853   */\n      pop\n      swap2\n      swap1\n      pop\n      jump\t// out\n        /* \"#utility.yul\":7859:8092   */\n    tag_96:\n      0x00\n        /* \"#utility.yul\":7921:7945   */\n      tag_231\n        /* \"#utility.yul\":7939:7944   */\n      dup3\n        /* \"#utility.yul\":7921:7945   */\n      tag_176\n      jump\t// in\n    tag_231:\n        /* \"#utility.yul\":7912:7945   */\n      swap2\n      pop\n        /* \"#utility.yul\":7967:8033   */\n      0xffffffffffffffffffffffffffffffffffffffffffffffffffffffffffffffff\n        /* \"#utility.yul\":7960:7965   */\n      dup3\n        /* \"#utility.yul\":7957:8034   */\n      eq\n        /* \"#utility.yul\":7954:7956   */\n      iszero\n      tag_232\n      jumpi\n        /* \"#utility.yul\":8037:8055   */\n      tag_233\n      tag_234\n      jump\t// in\n    tag_233:\n        /* \"#utility.yul\":7954:7956   */\n    tag_232:\n        /* \"#utility.yul\":8084:8085   */\n      0x01\n        /* \"#utility.yul\":8077:8082   */\n      dup3\n        /* \"#utility.yul\":8073:8086   */\n      add\n        /* \"#utility.yul\":8066:8086   */\n      swap1\n      pop\n        /* \"#utility.yul\":7902:8092   */\n      swap2\n      swap1\n      pop\n      jump\t// out\n        /* \"#utility.yul\":8098:8278   */\n    tag_234:\n        /* \"#utility.yul\":8146:8223   */\n      0x4e487b7100000000000000000000000000000000000000000000000000000000\n        /* \"#utility.yul\":8143:8144   */\n      0x00\n        /* \"#utility.yul\":8136:8224   */\n      mstore\n        /* \"#utility.yul\":8243:8247   */\n      0x11\n        /* \"#utility.yul\":8240:8241   */\n      0x04\n        /* \"#utility.yul\":8233:8248   */\n      mstore\n        /* \"#utility.yul\":8267:8271   */\n      0x24\n        /* \"#utility.yul\":8264:8265   */\n      0x00\n        /* \"#utility.yul\":8257:8272   */\n      revert\n        /* \"#utility.yul\":8284:8464   */\n    tag_210:\n        /* \"#utility.yul\":8332:8409   */\n      0x4e487b7100000000000000000000000000000000000000000000000000000000\n        /* \"#utility.yul\":8329:8330   */\n      0x00\n        /* \"#utility.yul\":8322:8410   */\n      mstore\n        /* \"#utility.yul\":8429:8433   */\n      0x12\n        /* \"#utility.yul\":8426:8427   */\n      0x04\n        /* \"#utility.yul\":8419:8434   */\n      mstore\n        /* \"#utility.yul\":8453:8457   */\n      0x24\n        /* \"#utility.yul\":8450:8451   */\n      0x00\n        /* \"#utility.yul\":8443:8458   */\n      revert\n        /* \"#utility.yul\":8470:8650   */\n    tag_229:\n        /* \"#utility.yul\":8518:8595   */\n      0x4e487b7100000000000000000000000000000000000000000000000000000000\n        /* \"#utility.yul\":8515:8516   */\n      0x00\n        /* \"#utility.yul\":8508:8596   */\n      mstore\n        /* \"#utility.yul\":8615:8619   */\n      0x22\n        /* \"#utility.yul\":8612:8613   */\n      0x04\n        /* \"#utility.yul\":8605:8620   */\n      mstore\n        /* \"#utility.yul\":8639:8643   */\n      0x24\n        /* \"#utility.yul\":8636:8637   */\n      0x00\n        /* \"#utility.yul\":8629:8644   */\n      revert\n        /* \"#utility.yul\":8656:8836   */\n    tag_199:\n        /* \"#utility.yul\":8704:8781   */\n      0x4e487b7100000000000000000000000000000000000000000000000000000000\n        /* \"#utility.yul\":8701:8702   */\n      0x00\n        /* \"#utility.yul\":8694:8782   */\n      mstore\n        /* \"#utility.yul\":8801:8805   */\n      0x41\n        /* \"#utility.yul\":8798:8799   */\n      0x04\n        /* \"#utility.yul\":8791:8806   */\n      mstore\n        /* \"#utility.yul\":8825:8829   */\n      0x24\n        /* \"#utility.yul\":8822:8823   */\n      0x00\n        /* \"#utility.yul\":8815:8830   */\n      revert\n        /* \"#utility.yul\":8842:8944   */\n    tag_172:\n      0x00\n        /* \"#utility.yul\":8934:8936   */\n      0x1f\n        /* \"#utility.yul\":8930:8937   */\n      not\n        /* \"#utility.yul\":8925:8927   */\n      0x1f\n        /* \"#utility.yul\":8918:8923   */\n      dup4\n        /* \"#utility.yul\":8914:8928   */\n      add\n        /* \"#utility.yul\":8910:8938   */\n      and\n        /* \"#utility.yul\":8900:8938   */\n      swap1\n      pop\n        /* \"#utility.yul\":8890:8944   */\n      swap2\n      swap1\n      pop\n      jump\t// out\n        /* \"#utility.yul\":8950:9072   */\n    tag_126:\n        /* \"#utility.yul\":9023:9047   */\n      tag_241\n        /* \"#utility.yul\":9041:9046   */\n      dup2\n        /* \"#utility.yul\":9023:9047   */\n      tag_158\n      jump\t// in\n    tag_241:\n        /* \"#utility.yul\":9016:9021   */\n      dup2\n        /* \"#utility.yul\":9013:9048   */\n      eq\n        /* \"#utility.yul\":9003:9005   */\n      tag_242\n      jumpi\n        /* \"#utility.yul\":9062:9063   */\n      0x00\n        /* \"#utility.yul\":9059:9060   */\n      dup1\n        /* \"#utility.yul\":9052:9064   */\n      revert\n        /* \"#utility.yul\":9003:9005   */\n    tag_242:\n        /* \"#utility.yul\":8993:9072   */\n      pop\n      jump\t// out\n        /* \"#utility.yul\":9078:9216   */\n    tag_130:\n        /* \"#utility.yul\":9159:9191   */\n      tag_244\n        /* \"#utility.yul\":9185:9190   */\n      dup2\n        /* \"#utility.yul\":9159:9191   */\n      tag_154\n      jump\t// in\n    tag_244:\n        /* \"#utility.yul\":9152:9157   */\n      dup2\n        /* \"#utility.yul\":9149:9192   */\n      eq\n        /* \"#utility.yul\":9139:9141   */\n      tag_245\n      jumpi\n        /* \"#utility.yul\":9206:9207   */\n      0x00\n        /* \"#utility.yul\":9203:9204   */\n      dup1\n        /* \"#utility.yul\":9196:9208   */\n      revert\n        /* \"#utility.yul\":9139:9141   */\n    tag_245:\n        /* \"#utility.yul\":9129:9216   */\n      pop\n      jump\t// out\n        /* \"#utility.yul\":9222:9344   */\n    tag_138:\n        /* \"#utility.yul\":9295:9319   */\n      tag_247\n        /* \"#utility.yul\":9313:9318   */\n      dup2\n        /* \"#utility.yul\":9295:9319   */\n      tag_176\n      jump\t// in\n    tag_247:\n        /* \"#utility.yul\":9288:9293   */\n      dup2\n        /* \"#utility.yul\":9285:9320   */\n      eq\n        /* \"#utility.yul\":9275:9277   */\n      tag_248\n      jumpi\n        /* \"#utility.yul\":9334:9335   */\n      0x00\n        /* \"#utility.yul\":9331:9332   */\n      dup1\n        /* \"#utility.yul\":9324:9336   */\n      revert\n        /* \"#utility.yul\":9275:9277   */\n    tag_248:\n        /* \"#utility.yul\":9265:9344   */\n      pop\n      jump\t// out\n\n    auxdata: 0xa2646970667358221220244e7dffd4d39883180f2b3a239e7b8ecfba568cb0230e5dc907da3186f1b64f64736f6c63430008000033\n}\n","bytecode":{"linkReferences":{},"object":"60806040523480156200001157600080fd5b5060405162001132380380620011328339818101604052810190620000379190620000b4565b806000806101000a81548173ffffffffffffffffffffffffffffffffffffffff021916908373ffffffffffffffffffffffffffffffffffffffff16021790555081600181905550505062000167565b600081519050620000978162000133565b92915050565b600081519050620000ae816200014d565b92915050565b60008060408385031215620000c857600080fd5b6000620000d8858286016200009d565b9250506020620000eb8582860162000086565b9150509250929050565b6000620001028262000109565b9050919050565b600073ffffffffffffffffffffffffffffffffffffffff82169050919050565b6000819050919050565b6200013e81620000f5565b81146200014a57600080fd5b50565b620001588162000129565b81146200016457600080fd5b50565b610fbb80620001776000396000f3fe60806040526004361061009c5760003560e01c806381d12c581161006457806381d12c581461018c57806382fde093146101ce5780638a9cfd55146101f9578063937e09b114610222578063d7bb99ba1461024d578063d7d1bbdb146102575761009c565b806303441006146100a15780630a144391146100ca5780633410452a146101075780634051ddac14610132578063481c6a7514610161575b600080fd5b3480156100ad57600080fd5b506100c860048036038101906100c39190610b04565b610280565b005b3480156100d657600080fd5b506100f160048036038101906100ec9190610a74565b6103ee565b6040516100fe9190610bbd565b60405180910390f35b34801561011357600080fd5b5061011c61040e565b6040516101299190610bd8565b60405180910390f35b34801561013e57600080fd5b5061014761041b565b604051610158959493929190610c5b565b60405180910390f35b34801561016d57600080fd5b50610176610462565b6040516101839190610ba2565b60405180910390f35b34801561019857600080fd5b506101b360048036038101906101ae9190610b04565b610486565b6040516101c596959493929190610bf3565b60405180910390f35b3480156101da57600080fd5b506101e3610587565b6040516101f09190610bd8565b60405180910390f35b34801561020557600080fd5b50610220600480360381019061021b9190610a9d565b61058d565b005b34801561022e57600080fd5b5061023761070b565b6040516102449190610bd8565b60405180910390f35b610255610711565b005b34801561026357600080fd5b5061027e60048036038101906102799190610b04565b610791565b005b60008054906101000a900473ffffffffffffffffffffffffffffffffffffffff1673ffffffffffffffffffffffffffffffffffffffff163373ffffffffffffffffffffffffffffffffffffffff16146102d857600080fd5b600060048281548110610314577f4e487b7100000000000000000000000000000000000000000000000000000000600052603260045260246000fd5b9060005260206000209060050201905060026003546103339190610d2b565b81600401541161034257600080fd5b8060030160149054906101000a900460ff161561035e57600080fd5b8060030160009054906101000a900473ffffffffffffffffffffffffffffffffffffffff1673ffffffffffffffffffffffffffffffffffffffff166108fc82600201549081150290604051600060405180830381858888f193505050501580156103cc573d6000803e3d6000fd5b5060018160030160146101000a81548160ff0219169083151502179055505050565b60026020528060005260406000206000915054906101000a900460ff1681565b6000600480549050905090565b60008060008060006001544760048054905060035460008054906101000a900473ffffffffffffffffffffffffffffffffffffffff16945094509450945094509091929394565b60008054906101000a900473ffffffffffffffffffffffffffffffffffffffff1681565b6004818154811061049657600080fd5b90600052602060002090600502016000915090508060000154908060010180546104bf90610df8565b80601f01602080910402602001604051908101604052809291908181526020018280546104eb90610df8565b80156105385780601f1061050d57610100808354040283529160200191610538565b820191906000526020600020905b81548152906001019060200180831161051b57829003601f168201915b5050505050908060020154908060030160009054906101000a900473ffffffffffffffffffffffffffffffffffffffff16908060030160149054906101000a900460ff16908060040154905086565b60035481565b60008054906101000a900473ffffffffffffffffffffffffffffffffffffffff1673ffffffffffffffffffffffffffffffffffffffff163373ffffffffffffffffffffffffffffffffffffffff16146105e557600080fd5b60006040518060c0016040528060048054905081526020018581526020018481526020018373ffffffffffffffffffffffffffffffffffffffff16815260200160001515815260200160008152509050600481908060018154018082558091505060019003906000526020600020906005020160009091909190915060008201518160000155602082015181600101908051906020019061068792919061092a565b506040820151816002015560608201518160030160006101000a81548173ffffffffffffffffffffffffffffffffffffffff021916908373ffffffffffffffffffffffffffffffffffffffff16021790555060808201518160030160146101000a81548160ff02191690831515021790555060a08201518160040155505050505050565b60015481565b600154341161071f57600080fd5b6001600260003373ffffffffffffffffffffffffffffffffffffffff1673ffffffffffffffffffffffffffffffffffffffff16815260200190815260200160002060006101000a81548160ff0219169083151502179055506003600081548092919061078a90610e2a565b9190505550565b6000600482815481106107cd577f4e487b7100000000000000000000000000000000000000000000000000000000600052603260045260246000fd5b90600052602060002090600502019050600260003373ffffffffffffffffffffffffffffffffffffffff1673ffffffffffffffffffffffffffffffffffffffff16815260200190815260200160002060009054906101000a900460ff1661083357600080fd5b600560008260000154815260200190815260200160002060003373ffffffffffffffffffffffffffffffffffffffff1673ffffffffffffffffffffffffffffffffffffffff16815260200190815260200160002060009054906101000a900460ff161561089f57600080fd5b6001600560008360000154815260200190815260200160002060003373ffffffffffffffffffffffffffffffffffffffff1673ffffffffffffffffffffffffffffffffffffffff16815260200190815260200160002060006101000a81548160ff02191690831515021790555080600401600081548092919061092190610e2a565b91905055505050565b82805461093690610df8565b90600052602060002090601f016020900481019282610958576000855561099f565b82601f1061097157805160ff191683800117855561099f565b8280016001018555821561099f579182015b8281111561099e578251825591602001919060010190610983565b5b5090506109ac91906109b0565b5090565b5b808211156109c95760008160009055506001016109b1565b5090565b60006109e06109db84610cdf565b610cae565b9050828152602081018484840111156109f857600080fd5b610a03848285610db6565b509392505050565b600081359050610a1a81610f40565b92915050565b600081359050610a2f81610f57565b92915050565b600082601f830112610a4657600080fd5b8135610a568482602086016109cd565b91505092915050565b600081359050610a6e81610f6e565b92915050565b600060208284031215610a8657600080fd5b6000610a9484828501610a0b565b91505092915050565b600080600060608486031215610ab257600080fd5b600084013567ffffffffffffffff811115610acc57600080fd5b610ad886828701610a35565b9350506020610ae986828701610a5f565b9250506040610afa86828701610a20565b9150509250925092565b600060208284031215610b1657600080fd5b6000610b2484828501610a5f565b91505092915050565b610b3681610d6e565b82525050565b610b4581610d5c565b82525050565b610b5481610d80565b82525050565b6000610b6582610d0f565b610b6f8185610d1a565b9350610b7f818560208601610dc5565b610b8881610f2f565b840191505092915050565b610b9c81610dac565b82525050565b6000602082019050610bb76000830184610b3c565b92915050565b6000602082019050610bd26000830184610b4b565b92915050565b6000602082019050610bed6000830184610b93565b92915050565b600060c082019050610c086000830189610b93565b8181036020830152610c1a8188610b5a565b9050610c296040830187610b93565b610c366060830186610b2d565b610c436080830185610b4b565b610c5060a0830184610b93565b979650505050505050565b600060a082019050610c706000830188610b93565b610c7d6020830187610b93565b610c8a6040830186610b93565b610c976060830185610b93565b610ca46080830184610b3c565b9695505050505050565b6000604051905081810181811067ffffffffffffffff82111715610cd557610cd4610f00565b5b8060405250919050565b600067ffffffffffffffff821115610cfa57610cf9610f00565b5b601f19601f8301169050602081019050919050565b600081519050919050565b600082825260208201905092915050565b6000610d3682610dac565b9150610d4183610dac565b925082610d5157610d50610ea2565b5b828204905092915050565b6000610d6782610d8c565b9050919050565b6000610d7982610d8c565b9050919050565b60008115159050919050565b600073ffffffffffffffffffffffffffffffffffffffff82169050919050565b6000819050919050565b82818337600083830152505050565b60005b83811015610de3578082015181840152602081019050610dc8565b83811115610df2576000848401525b50505050565b60006002820490506001821680610e1057607f821691505b60208210811415610e2457610e23610ed1565b5b50919050565b6000610e3582610dac565b91507fffffffffffffffffffffffffffffffffffffffffffffffffffffffffffffffff821415610e6857610e67610e73565b5b600182019050919050565b7f4e487b7100000000000000000000000000000000000000000000000000000000600052601160045260246000fd5b7f4e487b7100000000000000000000000000000000000000000000000000000000600052601260045260246000fd5b7f4e487b7100000000000000000000000000000000000000000000000000000000600052602260045260246000fd5b7f4e487b7100000000000000000000000000000000000000000000000000000000600052604160045260246000fd5b6000601f19601f8301169050919050565b610f4981610d5c565b8114610f5457600080fd5b50565b610f6081610d6e565b8114610f6b57600080fd5b50565b610f7781610dac565b8114610f8257600080fd5b5056fea2646970667358221220244e7dffd4d39883180f2b3a239e7b8ecfba568cb0230e5dc907da3186f1b64f64736f6c63430008000033","opcodes":"PUSH1 0x80 PUSH1 0x40 MSTORE CALLVALUE DUP1 ISZERO PUSH3 0x11 JUMPI PUSH1 0x0 DUP1 REVERT JUMPDEST POP PUSH1 0x40 MLOAD PUSH3 0x1132 CODESIZE SUB DUP1 PUSH3 0x1132 DUP4 CODECOPY DUP2 DUP2 ADD PUSH1 0x40 MSTORE DUP2 ADD SWAP1 PUSH3 0x37 SWAP2 SWAP1 PUSH3 0xB4 JUMP JUMPDEST DUP1 PUSH1 0x0 DUP1 PUSH2 0x100 EXP DUP2 SLOAD DUP2 PUSH20 0xFFFFFFFFFFFFFFFFFFFFFFFFFFFFFFFFFFFFFFFF MUL NOT AND SWAP1 DUP4 PUSH20 0xFFFFFFFFFFFFFFFFFFFFFFFFFFFFFFFFFFFFFFFF AND MUL OR SWAP1 SSTORE POP DUP2 PUSH1 0x1 DUP2 SWAP1 SSTORE POP POP POP PUSH3 0x167 JUMP JUMPDEST PUSH1 0x0 DUP2 MLOAD SWAP1 POP PUSH3 0x97 DUP2 PUSH3 0x133 JUMP JUMPDEST SWAP3 SWAP2 POP POP JUMP JUMPDEST PUSH1 0x0 DUP2 MLOAD SWAP1 POP PUSH3 0xAE DUP2 PUSH3 0x14D JUMP JUMPDEST SWAP3 SWAP2 POP POP JUMP JUMPDEST PUSH1 0x0 DUP1 PUSH1 0x40 DUP4 DUP6 SUB SLT ISZERO PUSH3 0xC8 JUMPI PUSH1 0x0 DUP1 REVERT JUMPDEST PUSH1 0x0 PUSH3 0xD8 DUP6 DUP3 DUP7 ADD PUSH3 0x9D JUMP JUMPDEST SWAP3 POP POP PUSH1 0x20 PUSH3 0xEB DUP6 DUP3 DUP7 ADD PUSH3 0x86 JUMP JUMPDEST SWAP2 POP POP SWAP3 POP SWAP3 SWAP1 POP JUMP JUMPDEST PUSH1 0x0 PUSH3 0x102 DUP3 PUSH3 0x109 JUMP JUMPDEST SWAP1 POP SWAP2 SWAP1 POP JUMP JUMPDEST PUSH1 0x0 PUSH20 0xFFFFFFFFFFFFFFFFFFFFFFFFFFFFFFFFFFFFFFFF DUP3 AND SWAP1 POP SWAP2 SWAP1 POP JUMP JUMPDEST PUSH1 0x0 DUP2 SWAP1 POP SWAP2 SWAP1 POP JUMP JUMPDEST PUSH3 0x13E DUP2 PUSH3 0xF5 JUMP JUMPDEST DUP2 EQ PUSH3 0x14A JUMPI PUSH1 0x0 DUP1 REVERT JUMPDEST POP JUMP JUMPDEST PUSH3 0x158 DUP2 PUSH3 0x129 JUMP JUMPDEST DUP2 EQ PUSH3 0x164 JUMPI PUSH1 0x0 DUP1 REVERT JUMPDEST POP JUMP JUMPDEST PUSH2 0xFBB DUP1 PUSH3 0x177 PUSH1 0x0 CODECOPY PUSH1 0x0 RETURN INVALID PUSH1 0x80 PUSH1 0x40 MSTORE PUSH1 0x4 CALLDATASIZE LT PUSH2 0x9C JUMPI PUSH1 0x0 CALLDATALOAD PUSH1 0xE0 SHR DUP1 PUSH4 0x81D12C58 GT PUSH2 0x64 JUMPI DUP1 PUSH4 0x81D12C58 EQ PUSH2 0x18C JUMPI DUP1 PUSH4 0x82FDE093 EQ PUSH2 0x1CE JUMPI DUP1 PUSH4 0x8A9CFD55 EQ PUSH2 0x1F9 JUMPI DUP1 PUSH4 0x937E09B1 EQ PUSH2 0x222 JUMPI DUP1 PUSH4 0xD7BB99BA EQ PUSH2 0x24D JUMPI DUP1 PUSH4 0xD7D1BBDB EQ PUSH2 0x257 JUMPI PUSH2 0x9C JUMP JUMPDEST DUP1 PUSH4 0x3441006 EQ PUSH2 0xA1 JUMPI DUP1 PUSH4 0xA144391 EQ PUSH2 0xCA JUMPI DUP1 PUSH4 0x3410452A EQ PUSH2 0x107 JUMPI DUP1 PUSH4 0x4051DDAC EQ PUSH2 0x132 JUMPI DUP1 PUSH4 0x481C6A75 EQ PUSH2 0x161 JUMPI JUMPDEST PUSH1 0x0 DUP1 REVERT JUMPDEST CALLVALUE DUP1 ISZERO PUSH2 0xAD JUMPI PUSH1 0x0 DUP1 REVERT JUMPDEST POP PUSH2 0xC8 PUSH1 0x4 DUP1 CALLDATASIZE SUB DUP2 ADD SWAP1 PUSH2 0xC3 SWAP2 SWAP1 PUSH2 0xB04 JUMP JUMPDEST PUSH2 0x280 JUMP JUMPDEST STOP JUMPDEST CALLVALUE DUP1 ISZERO PUSH2 0xD6 JUMPI PUSH1 0x0 DUP1 REVERT JUMPDEST POP PUSH2 0xF1 PUSH1 0x4 DUP1 CALLDATASIZE SUB DUP2 ADD SWAP1 PUSH2 0xEC SWAP2 SWAP1 PUSH2 0xA74 JUMP JUMPDEST PUSH2 0x3EE JUMP JUMPDEST PUSH1 0x40 MLOAD PUSH2 0xFE SWAP2 SWAP1 PUSH2 0xBBD JUMP JUMPDEST PUSH1 0x40 MLOAD DUP1 SWAP2 SUB SWAP1 RETURN JUMPDEST CALLVALUE DUP1 ISZERO PUSH2 0x113 JUMPI PUSH1 0x0 DUP1 REVERT JUMPDEST POP PUSH2 0x11C PUSH2 0x40E JUMP JUMPDEST PUSH1 0x40 MLOAD PUSH2 0x129 SWAP2 SWAP1 PUSH2 0xBD8 JUMP JUMPDEST PUSH1 0x40 MLOAD DUP1 SWAP2 SUB SWAP1 RETURN JUMPDEST CALLVALUE DUP1 ISZERO PUSH2 0x13E JUMPI PUSH1 0x0 DUP1 REVERT JUMPDEST POP PUSH2 0x147 PUSH2 0x41B JUMP JUMPDEST PUSH1 0x40 MLOAD PUSH2 0x158 SWAP6 SWAP5 SWAP4 SWAP3 SWAP2 SWAP1 PUSH2 0xC5B JUMP JUMPDEST PUSH1 0x40 MLOAD DUP1 SWAP2 SUB SWAP1 RETURN JUMPDEST CALLVALUE DUP1 ISZERO PUSH2 0x16D JUMPI PUSH1 0x0 DUP1 REVERT JUMPDEST POP PUSH2 0x176 PUSH2 0x462 JUMP JUMPDEST PUSH1 0x40 MLOAD PUSH2 0x183 SWAP2 SWAP1 PUSH2 0xBA2 JUMP JUMPDEST PUSH1 0x40 MLOAD DUP1 SWAP2 SUB SWAP1 RETURN JUMPDEST CALLVALUE DUP1 ISZERO PUSH2 0x198 JUMPI PUSH1 0x0 DUP1 REVERT JUMPDEST POP PUSH2 0x1B3 PUSH1 0x4 DUP1 CALLDATASIZE SUB DUP2 ADD SWAP1 PUSH2 0x1AE SWAP2 SWAP1 PUSH2 0xB04 JUMP JUMPDEST PUSH2 0x486 JUMP JUMPDEST PUSH1 0x40 MLOAD PUSH2 0x1C5 SWAP7 SWAP6 SWAP5 SWAP4 SWAP3 SWAP2 SWAP1 PUSH2 0xBF3 JUMP JUMPDEST PUSH1 0x40 MLOAD DUP1 SWAP2 SUB SWAP1 RETURN JUMPDEST CALLVALUE DUP1 ISZERO PUSH2 0x1DA JUMPI PUSH1 0x0 DUP1 REVERT JUMPDEST POP PUSH2 0x1E3 PUSH2 0x587 JUMP JUMPDEST PUSH1 0x40 MLOAD PUSH2 0x1F0 SWAP2 SWAP1 PUSH2 0xBD8 JUMP JUMPDEST PUSH1 0x40 MLOAD DUP1 SWAP2 SUB SWAP1 RETURN JUMPDEST CALLVALUE DUP1 ISZERO PUSH2 0x205 JUMPI PUSH1 0x0 DUP1 REVERT JUMPDEST POP PUSH2 0x220 PUSH1 0x4 DUP1 CALLDATASIZE SUB DUP2 ADD SWAP1 PUSH2 0x21B SWAP2 SWAP1 PUSH2 0xA9D JUMP JUMPDEST PUSH2 0x58D JUMP JUMPDEST STOP JUMPDEST CALLVALUE DUP1 ISZERO PUSH2 0x22E JUMPI PUSH1 0x0 DUP1 REVERT JUMPDEST POP PUSH2 0x237 PUSH2 0x70B JUMP JUMPDEST PUSH1 0x40 MLOAD PUSH2 0x244 SWAP2 SWAP1 PUSH2 0xBD8 JUMP JUMPDEST PUSH1 0x40 MLOAD DUP1 SWAP2 SUB SWAP1 RETURN JUMPDEST PUSH2 0x255 PUSH2 0x711 JUMP JUMPDEST STOP JUMPDEST CALLVALUE DUP1 ISZERO PUSH2 0x263 JUMPI PUSH1 0x0 DUP1 REVERT JUMPDEST POP PUSH2 0x27E PUSH1 0x4 DUP1 CALLDATASIZE SUB DUP2 ADD SWAP1 PUSH2 0x279 SWAP2 SWAP1 PUSH2 0xB04 JUMP JUMPDEST PUSH2 0x791 JUMP JUMPDEST STOP JUMPDEST PUSH1 0x0 DUP1 SLOAD SWAP1 PUSH2 0x100 EXP SWAP1 DIV PUSH20 0xFFFFFFFFFFFFFFFFFFFFFFFFFFFFFFFFFFFFFFFF AND PUSH20 0xFFFFFFFFFFFFFFFFFFFFFFFFFFFFFFFFFFFFFFFF AND CALLER PUSH20 0xFFFFFFFFFFFFFFFFFFFFFFFFFFFFFFFFFFFFFFFF AND EQ PUSH2 0x2D8 JUMPI PUSH1 0x0 DUP1 REVERT JUMPDEST PUSH1 0x0 PUSH1 0x4 DUP3 DUP2 SLOAD DUP2 LT PUSH2 0x314 JUMPI PUSH32 0x4E487B7100000000000000000000000000000000000000000000000000000000 PUSH1 0x0 MSTORE PUSH1 0x32 PUSH1 0x4 MSTORE PUSH1 0x24 PUSH1 0x0 REVERT JUMPDEST SWAP1 PUSH1 0x0 MSTORE PUSH1 0x20 PUSH1 0x0 KECCAK256 SWAP1 PUSH1 0x5 MUL ADD SWAP1 POP PUSH1 0x2 PUSH1 0x3 SLOAD PUSH2 0x333 SWAP2 SWAP1 PUSH2 0xD2B JUMP JUMPDEST DUP2 PUSH1 0x4 ADD SLOAD GT PUSH2 0x342 JUMPI PUSH1 0x0 DUP1 REVERT JUMPDEST DUP1 PUSH1 0x3 ADD PUSH1 0x14 SWAP1 SLOAD SWAP1 PUSH2 0x100 EXP SWAP1 DIV PUSH1 0xFF AND ISZERO PUSH2 0x35E JUMPI PUSH1 0x0 DUP1 REVERT JUMPDEST DUP1 PUSH1 0x3 ADD PUSH1 0x0 SWAP1 SLOAD SWAP1 PUSH2 0x100 EXP SWAP1 DIV PUSH20 0xFFFFFFFFFFFFFFFFFFFFFFFFFFFFFFFFFFFFFFFF AND PUSH20 0xFFFFFFFFFFFFFFFFFFFFFFFFFFFFFFFFFFFFFFFF AND PUSH2 0x8FC DUP3 PUSH1 0x2 ADD SLOAD SWAP1 DUP2 ISZERO MUL SWAP1 PUSH1 0x40 MLOAD PUSH1 0x0 PUSH1 0x40 MLOAD DUP1 DUP4 SUB DUP2 DUP6 DUP9 DUP9 CALL SWAP4 POP POP POP POP ISZERO DUP1 ISZERO PUSH2 0x3CC JUMPI RETURNDATASIZE PUSH1 0x0 DUP1 RETURNDATACOPY RETURNDATASIZE PUSH1 0x0 REVERT JUMPDEST POP PUSH1 0x1 DUP2 PUSH1 0x3 ADD PUSH1 0x14 PUSH2 0x100 EXP DUP2 SLOAD DUP2 PUSH1 0xFF MUL NOT AND SWAP1 DUP4 ISZERO ISZERO MUL OR SWAP1 SSTORE POP POP POP JUMP JUMPDEST PUSH1 0x2 PUSH1 0x20 MSTORE DUP1 PUSH1 0x0 MSTORE PUSH1 0x40 PUSH1 0x0 KECCAK256 PUSH1 0x0 SWAP2 POP SLOAD SWAP1 PUSH2 0x100 EXP SWAP1 DIV PUSH1 0xFF AND DUP2 JUMP JUMPDEST PUSH1 0x0 PUSH1 0x4 DUP1 SLOAD SWAP1 POP SWAP1 POP SWAP1 JUMP JUMPDEST PUSH1 0x0 DUP1 PUSH1 0x0 DUP1 PUSH1 0x0 PUSH1 0x1 SLOAD SELFBALANCE PUSH1 0x4 DUP1 SLOAD SWAP1 POP PUSH1 0x3 SLOAD PUSH1 0x0 DUP1 SLOAD SWAP1 PUSH2 0x100 EXP SWAP1 DIV PUSH20 0xFFFFFFFFFFFFFFFFFFFFFFFFFFFFFFFFFFFFFFFF AND SWAP5 POP SWAP5 POP SWAP5 POP SWAP5 POP SWAP5 POP SWAP1 SWAP2 SWAP3 SWAP4 SWAP5 JUMP JUMPDEST PUSH1 0x0 DUP1 SLOAD SWAP1 PUSH2 0x100 EXP SWAP1 DIV PUSH20 0xFFFFFFFFFFFFFFFFFFFFFFFFFFFFFFFFFFFFFFFF AND DUP2 JUMP JUMPDEST PUSH1 0x4 DUP2 DUP2 SLOAD DUP2 LT PUSH2 0x496 JUMPI PUSH1 0x0 DUP1 REVERT JUMPDEST SWAP1 PUSH1 0x0 MSTORE PUSH1 0x20 PUSH1 0x0 KECCAK256 SWAP1 PUSH1 0x5 MUL ADD PUSH1 0x0 SWAP2 POP SWAP1 POP DUP1 PUSH1 0x0 ADD SLOAD SWAP1 DUP1 PUSH1 0x1 ADD DUP1 SLOAD PUSH2 0x4BF SWAP1 PUSH2 0xDF8 JUMP JUMPDEST DUP1 PUSH1 0x1F ADD PUSH1 0x20 DUP1 SWAP2 DIV MUL PUSH1 0x20 ADD PUSH1 0x40 MLOAD SWAP1 DUP2 ADD PUSH1 0x40 MSTORE DUP1 SWAP3 SWAP2 SWAP1 DUP2 DUP2 MSTORE PUSH1 0x20 ADD DUP3 DUP1 SLOAD PUSH2 0x4EB SWAP1 PUSH2 0xDF8 JUMP JUMPDEST DUP1 ISZERO PUSH2 0x538 JUMPI DUP1 PUSH1 0x1F LT PUSH2 0x50D JUMPI PUSH2 0x100 DUP1 DUP4 SLOAD DIV MUL DUP4 MSTORE SWAP2 PUSH1 0x20 ADD SWAP2 PUSH2 0x538 JUMP JUMPDEST DUP3 ADD SWAP2 SWAP1 PUSH1 0x0 MSTORE PUSH1 0x20 PUSH1 0x0 KECCAK256 SWAP1 JUMPDEST DUP2 SLOAD DUP2 MSTORE SWAP1 PUSH1 0x1 ADD SWAP1 PUSH1 0x20 ADD DUP1 DUP4 GT PUSH2 0x51B JUMPI DUP3 SWAP1 SUB PUSH1 0x1F AND DUP3 ADD SWAP2 JUMPDEST POP POP POP POP POP SWAP1 DUP1 PUSH1 0x2 ADD SLOAD SWAP1 DUP1 PUSH1 0x3 ADD PUSH1 0x0 SWAP1 SLOAD SWAP1 PUSH2 0x100 EXP SWAP1 DIV PUSH20 0xFFFFFFFFFFFFFFFFFFFFFFFFFFFFFFFFFFFFFFFF AND SWAP1 DUP1 PUSH1 0x3 ADD PUSH1 0x14 SWAP1 SLOAD SWAP1 PUSH2 0x100 EXP SWAP1 DIV PUSH1 0xFF AND SWAP1 DUP1 PUSH1 0x4 ADD SLOAD SWAP1 POP DUP7 JUMP JUMPDEST PUSH1 0x3 SLOAD DUP2 JUMP JUMPDEST PUSH1 0x0 DUP1 SLOAD SWAP1 PUSH2 0x100 EXP SWAP1 DIV PUSH20 0xFFFFFFFFFFFFFFFFFFFFFFFFFFFFFFFFFFFFFFFF AND PUSH20 0xFFFFFFFFFFFFFFFFFFFFFFFFFFFFFFFFFFFFFFFF AND CALLER PUSH20 0xFFFFFFFFFFFFFFFFFFFFFFFFFFFFFFFFFFFFFFFF AND EQ PUSH2 0x5E5 JUMPI PUSH1 0x0 DUP1 REVERT JUMPDEST PUSH1 0x0 PUSH1 0x40 MLOAD DUP1 PUSH1 0xC0 ADD PUSH1 0x40 MSTORE DUP1 PUSH1 0x4 DUP1 SLOAD SWAP1 POP DUP2 MSTORE PUSH1 0x20 ADD DUP6 DUP2 MSTORE PUSH1 0x20 ADD DUP5 DUP2 MSTORE PUSH1 0x20 ADD DUP4 PUSH20 0xFFFFFFFFFFFFFFFFFFFFFFFFFFFFFFFFFFFFFFFF AND DUP2 MSTORE PUSH1 0x20 ADD PUSH1 0x0 ISZERO ISZERO DUP2 MSTORE PUSH1 0x20 ADD PUSH1 0x0 DUP2 MSTORE POP SWAP1 POP PUSH1 0x4 DUP2 SWAP1 DUP1 PUSH1 0x1 DUP2 SLOAD ADD DUP1 DUP3 SSTORE DUP1 SWAP2 POP POP PUSH1 0x1 SWAP1 SUB SWAP1 PUSH1 0x0 MSTORE PUSH1 0x20 PUSH1 0x0 KECCAK256 SWAP1 PUSH1 0x5 MUL ADD PUSH1 0x0 SWAP1 SWAP2 SWAP1 SWAP2 SWAP1 SWAP2 POP PUSH1 0x0 DUP3 ADD MLOAD DUP2 PUSH1 0x0 ADD SSTORE PUSH1 0x20 DUP3 ADD MLOAD DUP2 PUSH1 0x1 ADD SWAP1 DUP1 MLOAD SWAP1 PUSH1 0x20 ADD SWAP1 PUSH2 0x687 SWAP3 SWAP2 SWAP1 PUSH2 0x92A JUMP JUMPDEST POP PUSH1 0x40 DUP3 ADD MLOAD DUP2 PUSH1 0x2 ADD SSTORE PUSH1 0x60 DUP3 ADD MLOAD DUP2 PUSH1 0x3 ADD PUSH1 0x0 PUSH2 0x100 EXP DUP2 SLOAD DUP2 PUSH20 0xFFFFFFFFFFFFFFFFFFFFFFFFFFFFFFFFFFFFFFFF MUL NOT AND SWAP1 DUP4 PUSH20 0xFFFFFFFFFFFFFFFFFFFFFFFFFFFFFFFFFFFFFFFF AND MUL OR SWAP1 SSTORE POP PUSH1 0x80 DUP3 ADD MLOAD DUP2 PUSH1 0x3 ADD PUSH1 0x14 PUSH2 0x100 EXP DUP2 SLOAD DUP2 PUSH1 0xFF MUL NOT AND SWAP1 DUP4 ISZERO ISZERO MUL OR SWAP1 SSTORE POP PUSH1 0xA0 DUP3 ADD MLOAD DUP2 PUSH1 0x4 ADD SSTORE POP POP POP POP POP POP JUMP JUMPDEST PUSH1 0x1 SLOAD DUP2 JUMP JUMPDEST PUSH1 0x1 SLOAD CALLVALUE GT PUSH2 0x71F JUMPI PUSH1 0x0 DUP1 REVERT JUMPDEST PUSH1 0x1 PUSH1 0x2 PUSH1 0x0 CALLER PUSH20 0xFFFFFFFFFFFFFFFFFFFFFFFFFFFFFFFFFFFFFFFF AND PUSH20 0xFFFFFFFFFFFFFFFFFFFFFFFFFFFFFFFFFFFFFFFF AND DUP2 MSTORE PUSH1 0x20 ADD SWAP1 DUP2 MSTORE PUSH1 0x20 ADD PUSH1 0x0 KECCAK256 PUSH1 0x0 PUSH2 0x100 EXP DUP2 SLOAD DUP2 PUSH1 0xFF MUL NOT AND SWAP1 DUP4 ISZERO ISZERO MUL OR SWAP1 SSTORE POP PUSH1 0x3 PUSH1 0x0 DUP2 SLOAD DUP1 SWAP3 SWAP2 SWAP1 PUSH2 0x78A SWAP1 PUSH2 0xE2A JUMP JUMPDEST SWAP2 SWAP1 POP SSTORE POP JUMP JUMPDEST PUSH1 0x0 PUSH1 0x4 DUP3 DUP2 SLOAD DUP2 LT PUSH2 0x7CD JUMPI PUSH32 0x4E487B7100000000000000000000000000000000000000000000000000000000 PUSH1 0x0 MSTORE PUSH1 0x32 PUSH1 0x4 MSTORE PUSH1 0x24 PUSH1 0x0 REVERT JUMPDEST SWAP1 PUSH1 0x0 MSTORE PUSH1 0x20 PUSH1 0x0 KECCAK256 SWAP1 PUSH1 0x5 MUL ADD SWAP1 POP PUSH1 0x2 PUSH1 0x0 CALLER PUSH20 0xFFFFFFFFFFFFFFFFFFFFFFFFFFFFFFFFFFFFFFFF AND PUSH20 0xFFFFFFFFFFFFFFFFFFFFFFFFFFFFFFFFFFFFFFFF AND DUP2 MSTORE PUSH1 0x20 ADD SWAP1 DUP2 MSTORE PUSH1 0x20 ADD PUSH1 0x0 KECCAK256 PUSH1 0x0 SWAP1 SLOAD SWAP1 PUSH2 0x100 EXP SWAP1 DIV PUSH1 0xFF AND PUSH2 0x833 JUMPI PUSH1 0x0 DUP1 REVERT JUMPDEST PUSH1 0x5 PUSH1 0x0 DUP3 PUSH1 0x0 ADD SLOAD DUP2 MSTORE PUSH1 0x20 ADD SWAP1 DUP2 MSTORE PUSH1 0x20 ADD PUSH1 0x0 KECCAK256 PUSH1 0x0 CALLER PUSH20 0xFFFFFFFFFFFFFFFFFFFFFFFFFFFFFFFFFFFFFFFF AND PUSH20 0xFFFFFFFFFFFFFFFFFFFFFFFFFFFFFFFFFFFFFFFF AND DUP2 MSTORE PUSH1 0x20 ADD SWAP1 DUP2 MSTORE PUSH1 0x20 ADD PUSH1 0x0 KECCAK256 PUSH1 0x0 SWAP1 SLOAD SWAP1 PUSH2 0x100 EXP SWAP1 DIV PUSH1 0xFF AND ISZERO PUSH2 0x89F JUMPI PUSH1 0x0 DUP1 REVERT JUMPDEST PUSH1 0x1 PUSH1 0x5 PUSH1 0x0 DUP4 PUSH1 0x0 ADD SLOAD DUP2 MSTORE PUSH1 0x20 ADD SWAP1 DUP2 MSTORE PUSH1 0x20 ADD PUSH1 0x0 KECCAK256 PUSH1 0x0 CALLER PUSH20 0xFFFFFFFFFFFFFFFFFFFFFFFFFFFFFFFFFFFFFFFF AND PUSH20 0xFFFFFFFFFFFFFFFFFFFFFFFFFFFFFFFFFFFFFFFF AND DUP2 MSTORE PUSH1 0x20 ADD SWAP1 DUP2 MSTORE PUSH1 0x20 ADD PUSH1 0x0 KECCAK256 PUSH1 0x0 PUSH2 0x100 EXP DUP2 SLOAD DUP2 PUSH1 0xFF MUL NOT AND SWAP1 DUP4 ISZERO ISZERO MUL OR SWAP1 SSTORE POP DUP1 PUSH1 0x4 ADD PUSH1 0x0 DUP2 SLOAD DUP1 SWAP3 SWAP2 SWAP1 PUSH2 0x921 SWAP1 PUSH2 0xE2A JUMP JUMPDEST SWAP2 SWAP1 POP SSTORE POP POP POP JUMP JUMPDEST DUP3 DUP1 SLOAD PUSH2 0x936 SWAP1 PUSH2 0xDF8 JUMP JUMPDEST SWAP1 PUSH1 0x0 MSTORE PUSH1 0x20 PUSH1 0x0 KECCAK256 SWAP1 PUSH1 0x1F ADD PUSH1 0x20 SWAP1 DIV DUP2 ADD SWAP3 DUP3 PUSH2 0x958 JUMPI PUSH1 0x0 DUP6 SSTORE PUSH2 0x99F JUMP JUMPDEST DUP3 PUSH1 0x1F LT PUSH2 0x971 JUMPI DUP1 MLOAD PUSH1 0xFF NOT AND DUP4 DUP1 ADD OR DUP6 SSTORE PUSH2 0x99F JUMP JUMPDEST DUP3 DUP1 ADD PUSH1 0x1 ADD DUP6 SSTORE DUP3 ISZERO PUSH2 0x99F JUMPI SWAP2 DUP3 ADD JUMPDEST DUP3 DUP2 GT ISZERO PUSH2 0x99E JUMPI DUP3 MLOAD DUP3 SSTORE SWAP2 PUSH1 0x20 ADD SWAP2 SWAP1 PUSH1 0x1 ADD SWAP1 PUSH2 0x983 JUMP JUMPDEST JUMPDEST POP SWAP1 POP PUSH2 0x9AC SWAP2 SWAP1 PUSH2 0x9B0 JUMP JUMPDEST POP SWAP1 JUMP JUMPDEST JUMPDEST DUP1 DUP3 GT ISZERO PUSH2 0x9C9 JUMPI PUSH1 0x0 DUP2 PUSH1 0x0 SWAP1 SSTORE POP PUSH1 0x1 ADD PUSH2 0x9B1 JUMP JUMPDEST POP SWAP1 JUMP JUMPDEST PUSH1 0x0 PUSH2 0x9E0 PUSH2 0x9DB DUP5 PUSH2 0xCDF JUMP JUMPDEST PUSH2 0xCAE JUMP JUMPDEST SWAP1 POP DUP3 DUP2 MSTORE PUSH1 0x20 DUP2 ADD DUP5 DUP5 DUP5 ADD GT ISZERO PUSH2 0x9F8 JUMPI PUSH1 0x0 DUP1 REVERT JUMPDEST PUSH2 0xA03 DUP5 DUP3 DUP6 PUSH2 0xDB6 JUMP JUMPDEST POP SWAP4 SWAP3 POP POP POP JUMP JUMPDEST PUSH1 0x0 DUP2 CALLDATALOAD SWAP1 POP PUSH2 0xA1A DUP2 PUSH2 0xF40 JUMP JUMPDEST SWAP3 SWAP2 POP POP JUMP JUMPDEST PUSH1 0x0 DUP2 CALLDATALOAD SWAP1 POP PUSH2 0xA2F DUP2 PUSH2 0xF57 JUMP JUMPDEST SWAP3 SWAP2 POP POP JUMP JUMPDEST PUSH1 0x0 DUP3 PUSH1 0x1F DUP4 ADD SLT PUSH2 0xA46 JUMPI PUSH1 0x0 DUP1 REVERT JUMPDEST DUP2 CALLDATALOAD PUSH2 0xA56 DUP5 DUP3 PUSH1 0x20 DUP7 ADD PUSH2 0x9CD JUMP JUMPDEST SWAP2 POP POP SWAP3 SWAP2 POP POP JUMP JUMPDEST PUSH1 0x0 DUP2 CALLDATALOAD SWAP1 POP PUSH2 0xA6E DUP2 PUSH2 0xF6E JUMP JUMPDEST SWAP3 SWAP2 POP POP JUMP JUMPDEST PUSH1 0x0 PUSH1 0x20 DUP3 DUP5 SUB SLT ISZERO PUSH2 0xA86 JUMPI PUSH1 0x0 DUP1 REVERT JUMPDEST PUSH1 0x0 PUSH2 0xA94 DUP5 DUP3 DUP6 ADD PUSH2 0xA0B JUMP JUMPDEST SWAP2 POP POP SWAP3 SWAP2 POP POP JUMP JUMPDEST PUSH1 0x0 DUP1 PUSH1 0x0 PUSH1 0x60 DUP5 DUP7 SUB SLT ISZERO PUSH2 0xAB2 JUMPI PUSH1 0x0 DUP1 REVERT JUMPDEST PUSH1 0x0 DUP5 ADD CALLDATALOAD PUSH8 0xFFFFFFFFFFFFFFFF DUP2 GT ISZERO PUSH2 0xACC JUMPI PUSH1 0x0 DUP1 REVERT JUMPDEST PUSH2 0xAD8 DUP7 DUP3 DUP8 ADD PUSH2 0xA35 JUMP JUMPDEST SWAP4 POP POP PUSH1 0x20 PUSH2 0xAE9 DUP7 DUP3 DUP8 ADD PUSH2 0xA5F JUMP JUMPDEST SWAP3 POP POP PUSH1 0x40 PUSH2 0xAFA DUP7 DUP3 DUP8 ADD PUSH2 0xA20 JUMP JUMPDEST SWAP2 POP POP SWAP3 POP SWAP3 POP SWAP3 JUMP JUMPDEST PUSH1 0x0 PUSH1 0x20 DUP3 DUP5 SUB SLT ISZERO PUSH2 0xB16 JUMPI PUSH1 0x0 DUP1 REVERT JUMPDEST PUSH1 0x0 PUSH2 0xB24 DUP5 DUP3 DUP6 ADD PUSH2 0xA5F JUMP JUMPDEST SWAP2 POP POP SWAP3 SWAP2 POP POP JUMP JUMPDEST PUSH2 0xB36 DUP2 PUSH2 0xD6E JUMP JUMPDEST DUP3 MSTORE POP POP JUMP JUMPDEST PUSH2 0xB45 DUP2 PUSH2 0xD5C JUMP JUMPDEST DUP3 MSTORE POP POP JUMP JUMPDEST PUSH2 0xB54 DUP2 PUSH2 0xD80 JUMP JUMPDEST DUP3 MSTORE POP POP JUMP JUMPDEST PUSH1 0x0 PUSH2 0xB65 DUP3 PUSH2 0xD0F JUMP JUMPDEST PUSH2 0xB6F DUP2 DUP6 PUSH2 0xD1A JUMP JUMPDEST SWAP4 POP PUSH2 0xB7F DUP2 DUP6 PUSH1 0x20 DUP7 ADD PUSH2 0xDC5 JUMP JUMPDEST PUSH2 0xB88 DUP2 PUSH2 0xF2F JUMP JUMPDEST DUP5 ADD SWAP2 POP POP SWAP3 SWAP2 POP POP JUMP JUMPDEST PUSH2 0xB9C DUP2 PUSH2 0xDAC JUMP JUMPDEST DUP3 MSTORE POP POP JUMP JUMPDEST PUSH1 0x0 PUSH1 0x20 DUP3 ADD SWAP1 POP PUSH2 0xBB7 PUSH1 0x0 DUP4 ADD DUP5 PUSH2 0xB3C JUMP JUMPDEST SWAP3 SWAP2 POP POP JUMP JUMPDEST PUSH1 0x0 PUSH1 0x20 DUP3 ADD SWAP1 POP PUSH2 0xBD2 PUSH1 0x0 DUP4 ADD DUP5 PUSH2 0xB4B JUMP JUMPDEST SWAP3 SWAP2 POP POP JUMP JUMPDEST PUSH1 0x0 PUSH1 0x20 DUP3 ADD SWAP1 POP PUSH2 0xBED PUSH1 0x0 DUP4 ADD DUP5 PUSH2 0xB93 JUMP JUMPDEST SWAP3 SWAP2 POP POP JUMP JUMPDEST PUSH1 0x0 PUSH1 0xC0 DUP3 ADD SWAP1 POP PUSH2 0xC08 PUSH1 0x0 DUP4 ADD DUP10 PUSH2 0xB93 JUMP JUMPDEST DUP2 DUP2 SUB PUSH1 0x20 DUP4 ADD MSTORE PUSH2 0xC1A DUP2 DUP9 PUSH2 0xB5A JUMP JUMPDEST SWAP1 POP PUSH2 0xC29 PUSH1 0x40 DUP4 ADD DUP8 PUSH2 0xB93 JUMP JUMPDEST PUSH2 0xC36 PUSH1 0x60 DUP4 ADD DUP7 PUSH2 0xB2D JUMP JUMPDEST PUSH2 0xC43 PUSH1 0x80 DUP4 ADD DUP6 PUSH2 0xB4B JUMP JUMPDEST PUSH2 0xC50 PUSH1 0xA0 DUP4 ADD DUP5 PUSH2 0xB93 JUMP JUMPDEST SWAP8 SWAP7 POP POP POP POP POP POP POP JUMP JUMPDEST PUSH1 0x0 PUSH1 0xA0 DUP3 ADD SWAP1 POP PUSH2 0xC70 PUSH1 0x0 DUP4 ADD DUP9 PUSH2 0xB93 JUMP JUMPDEST PUSH2 0xC7D PUSH1 0x20 DUP4 ADD DUP8 PUSH2 0xB93 JUMP JUMPDEST PUSH2 0xC8A PUSH1 0x40 DUP4 ADD DUP7 PUSH2 0xB93 JUMP JUMPDEST PUSH2 0xC97 PUSH1 0x60 DUP4 ADD DUP6 PUSH2 0xB93 JUMP JUMPDEST PUSH2 0xCA4 PUSH1 0x80 DUP4 ADD DUP5 PUSH2 0xB3C JUMP JUMPDEST SWAP7 SWAP6 POP POP POP POP POP POP JUMP JUMPDEST PUSH1 0x0 PUSH1 0x40 MLOAD SWAP1 POP DUP2 DUP2 ADD DUP2 DUP2 LT PUSH8 0xFFFFFFFFFFFFFFFF DUP3 GT OR ISZERO PUSH2 0xCD5 JUMPI PUSH2 0xCD4 PUSH2 0xF00 JUMP JUMPDEST JUMPDEST DUP1 PUSH1 0x40 MSTORE POP SWAP2 SWAP1 POP JUMP JUMPDEST PUSH1 0x0 PUSH8 0xFFFFFFFFFFFFFFFF DUP3 GT ISZERO PUSH2 0xCFA JUMPI PUSH2 0xCF9 PUSH2 0xF00 JUMP JUMPDEST JUMPDEST PUSH1 0x1F NOT PUSH1 0x1F DUP4 ADD AND SWAP1 POP PUSH1 0x20 DUP2 ADD SWAP1 POP SWAP2 SWAP1 POP JUMP JUMPDEST PUSH1 0x0 DUP2 MLOAD SWAP1 POP SWAP2 SWAP1 POP JUMP JUMPDEST PUSH1 0x0 DUP3 DUP3 MSTORE PUSH1 0x20 DUP3 ADD SWAP1 POP SWAP3 SWAP2 POP POP JUMP JUMPDEST PUSH1 0x0 PUSH2 0xD36 DUP3 PUSH2 0xDAC JUMP JUMPDEST SWAP2 POP PUSH2 0xD41 DUP4 PUSH2 0xDAC JUMP JUMPDEST SWAP3 POP DUP3 PUSH2 0xD51 JUMPI PUSH2 0xD50 PUSH2 0xEA2 JUMP JUMPDEST JUMPDEST DUP3 DUP3 DIV SWAP1 POP SWAP3 SWAP2 POP POP JUMP JUMPDEST PUSH1 0x0 PUSH2 0xD67 DUP3 PUSH2 0xD8C JUMP JUMPDEST SWAP1 POP SWAP2 SWAP1 POP JUMP JUMPDEST PUSH1 0x0 PUSH2 0xD79 DUP3 PUSH2 0xD8C JUMP JUMPDEST SWAP1 POP SWAP2 SWAP1 POP JUMP JUMPDEST PUSH1 0x0 DUP2 ISZERO ISZERO SWAP1 POP SWAP2 SWAP1 POP JUMP JUMPDEST PUSH1 0x0 PUSH20 0xFFFFFFFFFFFFFFFFFFFFFFFFFFFFFFFFFFFFFFFF DUP3 AND SWAP1 POP SWAP2 SWAP1 POP JUMP JUMPDEST PUSH1 0x0 DUP2 SWAP1 POP SWAP2 SWAP1 POP JUMP JUMPDEST DUP3 DUP2 DUP4 CALLDATACOPY PUSH1 0x0 DUP4 DUP4 ADD MSTORE POP POP POP JUMP JUMPDEST PUSH1 0x0 JUMPDEST DUP4 DUP2 LT ISZERO PUSH2 0xDE3 JUMPI DUP1 DUP3 ADD MLOAD DUP2 DUP5 ADD MSTORE PUSH1 0x20 DUP2 ADD SWAP1 POP PUSH2 0xDC8 JUMP JUMPDEST DUP4 DUP2 GT ISZERO PUSH2 0xDF2 JUMPI PUSH1 0x0 DUP5 DUP5 ADD MSTORE JUMPDEST POP POP POP POP JUMP JUMPDEST PUSH1 0x0 PUSH1 0x2 DUP3 DIV SWAP1 POP PUSH1 0x1 DUP3 AND DUP1 PUSH2 0xE10 JUMPI PUSH1 0x7F DUP3 AND SWAP2 POP JUMPDEST PUSH1 0x20 DUP3 LT DUP2 EQ ISZERO PUSH2 0xE24 JUMPI PUSH2 0xE23 PUSH2 0xED1 JUMP JUMPDEST JUMPDEST POP SWAP2 SWAP1 POP JUMP JUMPDEST PUSH1 0x0 PUSH2 0xE35 DUP3 PUSH2 0xDAC JUMP JUMPDEST SWAP2 POP PUSH32 0xFFFFFFFFFFFFFFFFFFFFFFFFFFFFFFFFFFFFFFFFFFFFFFFFFFFFFFFFFFFFFFFF DUP3 EQ ISZERO PUSH2 0xE68 JUMPI PUSH2 0xE67 PUSH2 0xE73 JUMP JUMPDEST JUMPDEST PUSH1 0x1 DUP3 ADD SWAP1 POP SWAP2 SWAP1 POP JUMP JUMPDEST PUSH32 0x4E487B7100000000000000000000000000000000000000000000000000000000 PUSH1 0x0 MSTORE PUSH1 0x11 PUSH1 0x4 MSTORE PUSH1 0x24 PUSH1 0x0 REVERT JUMPDEST PUSH32 0x4E487B7100000000000000000000000000000000000000000000000000000000 PUSH1 0x0 MSTORE PUSH1 0x12 PUSH1 0x4 MSTORE PUSH1 0x24 PUSH1 0x0 REVERT JUMPDEST PUSH32 0x4E487B7100000000000000000000000000000000000000000000000000000000 PUSH1 0x0 MSTORE PUSH1 0x22 PUSH1 0x4 MSTORE PUSH1 0x24 PUSH1 0x0 REVERT JUMPDEST PUSH32 0x4E487B7100000000000000000000000000000000000000000000000000000000 PUSH1 0x0 MSTORE PUSH1 0x41 PUSH1 0x4 MSTORE PUSH1 0x24 PUSH1 0x0 REVERT JUMPDEST PUSH1 0x0 PUSH1 0x1F NOT PUSH1 0x1F DUP4 ADD AND SWAP1 POP SWAP2 SWAP1 POP JUMP JUMPDEST PUSH2 0xF49 DUP2 PUSH2 0xD5C JUMP JUMPDEST DUP2 EQ PUSH2 0xF54 JUMPI PUSH1 0x0 DUP1 REVERT JUMPDEST POP JUMP JUMPDEST PUSH2 0xF60 DUP2 PUSH2 0xD6E JUMP JUMPDEST DUP2 EQ PUSH2 0xF6B JUMPI PUSH1 0x0 DUP1 REVERT JUMPDEST POP JUMP JUMPDEST PUSH2 0xF77 DUP2 PUSH2 0xDAC JUMP JUMPDEST DUP2 EQ PUSH2 0xF82 JUMPI PUSH1 0x0 DUP1 REVERT JUMPDEST POP JUMP INVALID LOG2 PUSH5 0x6970667358 0x22 SLT KECCAK256 0x24 0x4E PUSH30 0xFFD4D39883180F2B3A239E7B8ECFBA568CB0230E5DC907DA3186F1B64F64 PUSH20 0x6F6C634300080000330000000000000000000000 "},"gasEstimates":{"creation":{"codeDepositCost":"805400","executionCost":"infinite","totalCost":"infinite"},"external":{"approveRequest(uint256)":"infinite","approvers(address)":"1568","approversCount()":"1151","contribute()":"42946","createRequest(string,uint256,address)":"infinite","finalizeRequest(uint256)":"infinite","getRequestsCount()":"1190","getSummary()":"infinite","manager()":"1300","minimumContribution()":"1195","requests(uint256)":"infinite"}},"methodIdentifiers":{"approveRequest(uint256)":"d7d1bbdb","approvers(address)":"0a144391","approversCount()":"82fde093","contribute()":"d7bb99ba","createRequest(string,uint256,address)":"8a9cfd55","finalizeRequest(uint256)":"03441006","getRequestsCount()":"3410452a","getSummary()":"4051ddac","manager()":"481c6a75","minimumContribution()":"937e09b1","requests(uint256)":"81d12c58"}},"storageLayout":{"storage":[{"astId":54,"contract":"Contracts:Campaign","label":"manager","offset":0,"slot":"0","type":"t_address"},{"astId":56,"contract":"Contracts:Campaign","label":"minimumContribution","offset":0,"slot":"1","type":"t_uint256"},{"astId":60,"contract":"Contracts:Campaign","label":"approvers","offset":0,"slot":"2","type":"t_mapping(t_address,t_bool)"},{"astId":62,"contract":"Contracts:Campaign","label":"approversCount","offset":0,"slot":"3","type":"t_uint256"},{"astId":66,"contract":"Contracts:Campaign","label":"requests","offset":0,"slot":"4","type":"t_array(t_struct(Request)52_storage)dyn_storage"},{"astId":72,"contract":"Contracts:Campaign","label":"requestApprovals","offset":0,"slot":"5","type":"t_mapping(t_uint256,t_mapping(t_address,t_bool))"}],"types":{"t_address":{"encoding":"inplace","label":"address","numberOfBytes":"20"},"t_address_payable":{"encoding":"inplace","label":"address payable","numberOfBytes":"20"},"t_array(t_struct(Request)52_storage)dyn_storage":{"base":"t_struct(Request)52_storage","encoding":"dynamic_array","label":"struct Campaign.Request[]","numberOfBytes":"32"},"t_bool":{"encoding":"inplace","label":"bool","numberOfBytes":"1"},"t_mapping(t_address,t_bool)":{"encoding":"mapping","key":"t_address","label":"mapping(address => bool)","numberOfBytes":"32","value":"t_bool"},"t_mapping(t_uint256,t_mapping(t_address,t_bool))":{"encoding":"mapping","key":"t_uint256","label":"mapping(uint256 => mapping(address => bool))","numberOfBytes":"32","value":"t_mapping(t_address,t_bool)"},"t_string_storage":{"encoding":"bytes","label":"string","numberOfBytes":"32"},"t_struct(Request)52_storage":{"encoding":"inplace","label":"struct Campaign.Request","members":[{"astId":41,"contract":"Contracts:Campaign","label":"index","offset":0,"slot":"0","type":"t_uint256"},{"astId":43,"contract":"Contracts:Campaign","label":"description","offset":0,"slot":"1","type":"t_string_storage"},{"astId":45,"contract":"Contracts:Campaign","label":"value","offset":0,"slot":"2","type":"t_uint256"},{"astId":47,"contract":"Contracts:Campaign","label":"recipient","offset":0,"slot":"3","type":"t_address_payable"},{"astId":49,"contract":"Contracts:Campaign","label":"complete","offset":20,"slot":"3","type":"t_bool"},{"astId":51,"contract":"Contracts:Campaign","label":"approvalCount","offset":0,"slot":"4","type":"t_uint256"}],"numberOfBytes":"160"},"t_uint256":{"encoding":"inplace","label":"uint256","numberOfBytes":"32"}}},"userdoc":{"kind":"user","methods":{},"version":1}}