{"abi":[{"inputs":[{"internalType":"uint256","name":"minimum","type":"uint256"},{"internalType":"address","name":"creator","type":"address"}],"stateMutability":"nonpayable","type":"constructor"},{"inputs":[{"internalType":"uint256","name":"index","type":"uint256"}],"name":"approveRequest","outputs":[],"stateMutability":"nonpayable","type":"function"},{"inputs":[],"name":"approversCount","outputs":[{"internalType":"uint256","name":"","type":"uint256"}],"stateMutability":"view","type":"function"},{"inputs":[],"name":"contribute","outputs":[],"stateMutability":"payable","type":"function"},{"inputs":[{"internalType":"string","name":"description","type":"string"},{"internalType":"uint256","name":"value","type":"uint256"},{"internalType":"address payable","name":"recipient","type":"address"}],"name":"createRequest","outputs":[],"stateMutability":"nonpayable","type":"function"},{"inputs":[{"internalType":"uint256","name":"index","type":"uint256"}],"name":"finalizeRequest","outputs":[],"stateMutability":"nonpayable","type":"function"},{"inputs":[],"name":"manager","outputs":[{"internalType":"address","name":"","type":"address"}],"stateMutability":"view","type":"function"},{"inputs":[],"name":"minimumContribution","outputs":[{"internalType":"uint256","name":"","type":"uint256"}],"stateMutability":"view","type":"function"},{"inputs":[{"internalType":"uint256","name":"","type":"uint256"}],"name":"requests","outputs":[{"internalType":"uint256","name":"index","type":"uint256"},{"internalType":"string","name":"description","type":"string"},{"internalType":"uint256","name":"value","type":"uint256"},{"internalType":"address payable","name":"recipient","type":"address"},{"internalType":"bool","name":"complete","type":"bool"},{"internalType":"uint256","name":"approvalCount","type":"uint256"}],"stateMutability":"view","type":"function"}],"devdoc":{"kind":"dev","methods":{},"version":1},"evm":{"assembly":"    /* \"Contracts\":447:2370  contract Campaign {\r... */\n  mstore(0x40, 0x80)\n    /* \"Contracts\":1001:1123  constructor(uint256 minimum, address creator) {\r... */\n  callvalue\n  dup1\n  iszero\n  tag_1\n  jumpi\n  0x00\n  dup1\n  revert\ntag_1:\n  pop\n  mload(0x40)\n  sub(codesize, bytecodeSize)\n  dup1\n  bytecodeSize\n  dup4\n  codecopy\n  dup2\n  dup2\n  add\n  0x40\n  mstore\n  dup2\n  add\n  swap1\n  tag_2\n  swap2\n  swap1\n  tag_3\n  jump\t// in\ntag_2:\n    /* \"Contracts\":1068:1075  creator */\n  dup1\n    /* \"Contracts\":1058:1065  manager */\n  0x00\n  dup1\n    /* \"Contracts\":1058:1075  manager = creator */\n  0x0100\n  exp\n  dup2\n  sload\n  dup2\n  0xffffffffffffffffffffffffffffffffffffffff\n  mul\n  not\n  and\n  swap1\n  dup4\n  0xffffffffffffffffffffffffffffffffffffffff\n  and\n  mul\n  or\n  swap1\n  sstore\n  pop\n    /* \"Contracts\":1108:1115  minimum */\n  dup2\n    /* \"Contracts\":1086:1105  minimumContribution */\n  0x01\n    /* \"Contracts\":1086:1115  minimumContribution = minimum */\n  dup2\n  swap1\n  sstore\n  pop\n    /* \"Contracts\":1001:1123  constructor(uint256 minimum, address creator) {\r... */\n  pop\n  pop\n    /* \"Contracts\":447:2370  contract Campaign {\r... */\n  jump(tag_6)\n    /* \"#utility.yul\":7:150   */\ntag_8:\n  0x00\n    /* \"#utility.yul\":95:101   */\n  dup2\n    /* \"#utility.yul\":89:102   */\n  mload\n    /* \"#utility.yul\":80:102   */\n  swap1\n  pop\n    /* \"#utility.yul\":111:144   */\n  tag_10\n    /* \"#utility.yul\":138:143   */\n  dup2\n    /* \"#utility.yul\":111:144   */\n  tag_11\n  jump\t// in\ntag_10:\n    /* \"#utility.yul\":70:150   */\n  swap3\n  swap2\n  pop\n  pop\n  jump\t// out\n    /* \"#utility.yul\":156:299   */\ntag_12:\n  0x00\n    /* \"#utility.yul\":244:250   */\n  dup2\n    /* \"#utility.yul\":238:251   */\n  mload\n    /* \"#utility.yul\":229:251   */\n  swap1\n  pop\n    /* \"#utility.yul\":260:293   */\n  tag_14\n    /* \"#utility.yul\":287:292   */\n  dup2\n    /* \"#utility.yul\":260:293   */\n  tag_15\n  jump\t// in\ntag_14:\n    /* \"#utility.yul\":219:299   */\n  swap3\n  swap2\n  pop\n  pop\n  jump\t// out\n    /* \"#utility.yul\":305:745   */\ntag_3:\n  0x00\n  dup1\n    /* \"#utility.yul\":441:443   */\n  0x40\n    /* \"#utility.yul\":429:438   */\n  dup4\n    /* \"#utility.yul\":420:427   */\n  dup6\n    /* \"#utility.yul\":416:439   */\n  sub\n    /* \"#utility.yul\":412:444   */\n  slt\n    /* \"#utility.yul\":409:411   */\n  iszero\n  tag_17\n  jumpi\n    /* \"#utility.yul\":457:458   */\n  0x00\n    /* \"#utility.yul\":454:455   */\n  dup1\n    /* \"#utility.yul\":447:459   */\n  revert\n    /* \"#utility.yul\":409:411   */\ntag_17:\n    /* \"#utility.yul\":500:501   */\n  0x00\n    /* \"#utility.yul\":525:589   */\n  tag_18\n    /* \"#utility.yul\":581:588   */\n  dup6\n    /* \"#utility.yul\":572:578   */\n  dup3\n    /* \"#utility.yul\":561:570   */\n  dup7\n    /* \"#utility.yul\":557:579   */\n  add\n    /* \"#utility.yul\":525:589   */\n  tag_12\n  jump\t// in\ntag_18:\n    /* \"#utility.yul\":515:589   */\n  swap3\n  pop\n    /* \"#utility.yul\":471:599   */\n  pop\n    /* \"#utility.yul\":638:640   */\n  0x20\n    /* \"#utility.yul\":664:728   */\n  tag_19\n    /* \"#utility.yul\":720:727   */\n  dup6\n    /* \"#utility.yul\":711:717   */\n  dup3\n    /* \"#utility.yul\":700:709   */\n  dup7\n    /* \"#utility.yul\":696:718   */\n  add\n    /* \"#utility.yul\":664:728   */\n  tag_8\n  jump\t// in\ntag_19:\n    /* \"#utility.yul\":654:728   */\n  swap2\n  pop\n    /* \"#utility.yul\":609:738   */\n  pop\n    /* \"#utility.yul\":399:745   */\n  swap3\n  pop\n  swap3\n  swap1\n  pop\n  jump\t// out\n    /* \"#utility.yul\":751:847   */\ntag_20:\n  0x00\n    /* \"#utility.yul\":817:841   */\n  tag_22\n    /* \"#utility.yul\":835:840   */\n  dup3\n    /* \"#utility.yul\":817:841   */\n  tag_23\n  jump\t// in\ntag_22:\n    /* \"#utility.yul\":806:841   */\n  swap1\n  pop\n    /* \"#utility.yul\":796:847   */\n  swap2\n  swap1\n  pop\n  jump\t// out\n    /* \"#utility.yul\":853:979   */\ntag_23:\n  0x00\n    /* \"#utility.yul\":930:972   */\n  0xffffffffffffffffffffffffffffffffffffffff\n    /* \"#utility.yul\":923:928   */\n  dup3\n    /* \"#utility.yul\":919:973   */\n  and\n    /* \"#utility.yul\":908:973   */\n  swap1\n  pop\n    /* \"#utility.yul\":898:979   */\n  swap2\n  swap1\n  pop\n  jump\t// out\n    /* \"#utility.yul\":985:1062   */\ntag_25:\n  0x00\n    /* \"#utility.yul\":1051:1056   */\n  dup2\n    /* \"#utility.yul\":1040:1056   */\n  swap1\n  pop\n    /* \"#utility.yul\":1030:1062   */\n  swap2\n  swap1\n  pop\n  jump\t// out\n    /* \"#utility.yul\":1068:1190   */\ntag_11:\n    /* \"#utility.yul\":1141:1165   */\n  tag_28\n    /* \"#utility.yul\":1159:1164   */\n  dup2\n    /* \"#utility.yul\":1141:1165   */\n  tag_20\n  jump\t// in\ntag_28:\n    /* \"#utility.yul\":1134:1139   */\n  dup2\n    /* \"#utility.yul\":1131:1166   */\n  eq\n    /* \"#utility.yul\":1121:1123   */\n  tag_29\n  jumpi\n    /* \"#utility.yul\":1180:1181   */\n  0x00\n    /* \"#utility.yul\":1177:1178   */\n  dup1\n    /* \"#utility.yul\":1170:1182   */\n  revert\n    /* \"#utility.yul\":1121:1123   */\ntag_29:\n    /* \"#utility.yul\":1111:1190   */\n  pop\n  jump\t// out\n    /* \"#utility.yul\":1196:1318   */\ntag_15:\n    /* \"#utility.yul\":1269:1293   */\n  tag_31\n    /* \"#utility.yul\":1287:1292   */\n  dup2\n    /* \"#utility.yul\":1269:1293   */\n  tag_25\n  jump\t// in\ntag_31:\n    /* \"#utility.yul\":1262:1267   */\n  dup2\n    /* \"#utility.yul\":1259:1294   */\n  eq\n    /* \"#utility.yul\":1249:1251   */\n  tag_32\n  jumpi\n    /* \"#utility.yul\":1308:1309   */\n  0x00\n    /* \"#utility.yul\":1305:1306   */\n  dup1\n    /* \"#utility.yul\":1298:1310   */\n  revert\n    /* \"#utility.yul\":1249:1251   */\ntag_32:\n    /* \"#utility.yul\":1239:1318   */\n  pop\n  jump\t// out\n    /* \"Contracts\":447:2370  contract Campaign {\r... */\ntag_6:\n  dataSize(sub_0)\n  dup1\n  dataOffset(sub_0)\n  0x00\n  codecopy\n  0x00\n  return\nstop\n\nsub_0: assembly {\n        /* \"Contracts\":447:2370  contract Campaign {\r... */\n      mstore(0x40, 0x80)\n      jumpi(tag_1, lt(calldatasize, 0x04))\n      shr(0xe0, calldataload(0x00))\n      dup1\n      0x8a9cfd55\n      gt\n      tag_10\n      jumpi\n      dup1\n      0x8a9cfd55\n      eq\n      tag_6\n      jumpi\n      dup1\n      0x937e09b1\n      eq\n      tag_7\n      jumpi\n      dup1\n      0xd7bb99ba\n      eq\n      tag_8\n      jumpi\n      dup1\n      0xd7d1bbdb\n      eq\n      tag_9\n      jumpi\n      jump(tag_1)\n    tag_10:\n      dup1\n      0x03441006\n      eq\n      tag_2\n      jumpi\n      dup1\n      0x481c6a75\n      eq\n      tag_3\n      jumpi\n      dup1\n      0x81d12c58\n      eq\n      tag_4\n      jumpi\n      dup1\n      0x82fde093\n      eq\n      tag_5\n      jumpi\n    tag_1:\n      0x00\n      dup1\n      revert\n        /* \"Contracts\":2053:2367  function finalizeRequest(uint index) public restricted {\r... */\n    tag_2:\n      callvalue\n      dup1\n      iszero\n      tag_11\n      jumpi\n      0x00\n      dup1\n      revert\n    tag_11:\n      pop\n      tag_12\n      0x04\n      dup1\n      calldatasize\n      sub\n      dup2\n      add\n      swap1\n      tag_13\n      swap2\n      swap1\n      tag_14\n      jump\t// in\n    tag_13:\n      tag_15\n      jump\t// in\n    tag_12:\n      stop\n        /* \"Contracts\":667:689  address public manager */\n    tag_3:\n      callvalue\n      dup1\n      iszero\n      tag_16\n      jumpi\n      0x00\n      dup1\n      revert\n    tag_16:\n      pop\n      tag_17\n      tag_18\n      jump\t// in\n    tag_17:\n      mload(0x40)\n      tag_19\n      swap2\n      swap1\n      tag_20\n      jump\t// in\n    tag_19:\n      mload(0x40)\n      dup1\n      swap2\n      sub\n      swap1\n      return\n        /* \"Contracts\":811:836  Request[] public requests */\n    tag_4:\n      callvalue\n      dup1\n      iszero\n      tag_21\n      jumpi\n      0x00\n      dup1\n      revert\n    tag_21:\n      pop\n      tag_22\n      0x04\n      dup1\n      calldatasize\n      sub\n      dup2\n      add\n      swap1\n      tag_23\n      swap2\n      swap1\n      tag_14\n      jump\t// in\n    tag_23:\n      tag_24\n      jump\t// in\n    tag_22:\n      mload(0x40)\n      tag_25\n      swap7\n      swap6\n      swap5\n      swap4\n      swap3\n      swap2\n      swap1\n      tag_26\n      jump\t// in\n    tag_25:\n      mload(0x40)\n      dup1\n      swap2\n      sub\n      swap1\n      return\n        /* \"Contracts\":778:804  uint public approversCount */\n    tag_5:\n      callvalue\n      dup1\n      iszero\n      tag_27\n      jumpi\n      0x00\n      dup1\n      revert\n    tag_27:\n      pop\n      tag_28\n      tag_29\n      jump\t// in\n    tag_28:\n      mload(0x40)\n      tag_30\n      swap2\n      swap1\n      tag_31\n      jump\t// in\n    tag_30:\n      mload(0x40)\n      dup1\n      swap2\n      sub\n      swap1\n      return\n        /* \"Contracts\":1303:1730  function createRequest(string memory description, uint value, address payable recipient) \r... */\n    tag_6:\n      callvalue\n      dup1\n      iszero\n      tag_32\n      jumpi\n      0x00\n      dup1\n      revert\n    tag_32:\n      pop\n      tag_33\n      0x04\n      dup1\n      calldatasize\n      sub\n      dup2\n      add\n      swap1\n      tag_34\n      swap2\n      swap1\n      tag_35\n      jump\t// in\n    tag_34:\n      tag_36\n      jump\t// in\n    tag_33:\n      stop\n        /* \"Contracts\":696:730  uint256 public minimumContribution */\n    tag_7:\n      callvalue\n      dup1\n      iszero\n      tag_37\n      jumpi\n      0x00\n      dup1\n      revert\n    tag_37:\n      pop\n      tag_38\n      tag_39\n      jump\t// in\n    tag_38:\n      mload(0x40)\n      tag_40\n      swap2\n      swap1\n      tag_31\n      jump\t// in\n    tag_40:\n      mload(0x40)\n      dup1\n      swap2\n      sub\n      swap1\n      return\n        /* \"Contracts\":1131:1295  function contribute() public payable {\r... */\n    tag_8:\n      tag_41\n      tag_42\n      jump\t// in\n    tag_41:\n      stop\n        /* \"Contracts\":1738:2045  function approveRequest(uint index) public {\r... */\n    tag_9:\n      callvalue\n      dup1\n      iszero\n      tag_43\n      jumpi\n      0x00\n      dup1\n      revert\n    tag_43:\n      pop\n      tag_44\n      0x04\n      dup1\n      calldatasize\n      sub\n      dup2\n      add\n      swap1\n      tag_45\n      swap2\n      swap1\n      tag_14\n      jump\t// in\n    tag_45:\n      tag_46\n      jump\t// in\n    tag_44:\n      stop\n        /* \"Contracts\":2053:2367  function finalizeRequest(uint index) public restricted {\r... */\n    tag_15:\n        /* \"Contracts\":965:972  manager */\n      0x00\n      dup1\n      sload\n      swap1\n      0x0100\n      exp\n      swap1\n      div\n      0xffffffffffffffffffffffffffffffffffffffff\n      and\n        /* \"Contracts\":951:972  msg.sender == manager */\n      0xffffffffffffffffffffffffffffffffffffffff\n      and\n        /* \"Contracts\":951:961  msg.sender */\n      caller\n        /* \"Contracts\":951:972  msg.sender == manager */\n      0xffffffffffffffffffffffffffffffffffffffff\n      and\n      eq\n        /* \"Contracts\":943:973  require(msg.sender == manager) */\n      tag_48\n      jumpi\n      0x00\n      dup1\n      revert\n    tag_48:\n        /* \"Contracts\":2119:2142  Request storage request */\n      0x00\n        /* \"Contracts\":2145:2153  requests */\n      0x04\n        /* \"Contracts\":2154:2159  index */\n      dup3\n        /* \"Contracts\":2145:2160  requests[index] */\n      dup2\n      sload\n      dup2\n      lt\n      tag_50\n      jumpi\n      mstore(0x00, 0x4e487b7100000000000000000000000000000000000000000000000000000000)\n      mstore(0x04, 0x32)\n      revert(0x00, 0x24)\n    tag_50:\n      swap1\n      0x00\n      mstore\n      keccak256(0x00, 0x20)\n      swap1\n      0x05\n      mul\n      add\n        /* \"Contracts\":2119:2160  Request storage request = requests[index] */\n      swap1\n      pop\n        /* \"Contracts\":2223:2224  2 */\n      0x02\n        /* \"Contracts\":2206:2220  approversCount */\n      sload(0x03)\n        /* \"Contracts\":2206:2224  approversCount / 2 */\n      tag_52\n      swap2\n      swap1\n      tag_53\n      jump\t// in\n    tag_52:\n        /* \"Contracts\":2181:2188  request */\n      dup2\n        /* \"Contracts\":2181:2202  request.approvalCount */\n      0x04\n      add\n      sload\n        /* \"Contracts\":2181:2225  request.approvalCount > (approversCount / 2) */\n      gt\n        /* \"Contracts\":2173:2226  require(request.approvalCount > (approversCount / 2)) */\n      tag_54\n      jumpi\n      0x00\n      dup1\n      revert\n    tag_54:\n        /* \"Contracts\":2246:2253  request */\n      dup1\n        /* \"Contracts\":2246:2262  request.complete */\n      0x03\n      add\n      0x14\n      swap1\n      sload\n      swap1\n      0x0100\n      exp\n      swap1\n      div\n      0xff\n      and\n        /* \"Contracts\":2245:2262  !request.complete */\n      iszero\n        /* \"Contracts\":2237:2263  require(!request.complete) */\n      tag_55\n      jumpi\n      0x00\n      dup1\n      revert\n    tag_55:\n        /* \"Contracts\":2284:2291  request */\n      dup1\n        /* \"Contracts\":2284:2301  request.recipient */\n      0x03\n      add\n      0x00\n      swap1\n      sload\n      swap1\n      0x0100\n      exp\n      swap1\n      div\n      0xffffffffffffffffffffffffffffffffffffffff\n      and\n        /* \"Contracts\":2284:2310  request.recipient.transfer */\n      0xffffffffffffffffffffffffffffffffffffffff\n      and\n        /* \"Contracts\":2284:2325  request.recipient.transfer(request.value) */\n      0x08fc\n        /* \"Contracts\":2311:2318  request */\n      dup3\n        /* \"Contracts\":2311:2324  request.value */\n      0x02\n      add\n      sload\n        /* \"Contracts\":2284:2325  request.recipient.transfer(request.value) */\n      swap1\n      dup2\n      iszero\n      mul\n      swap1\n      mload(0x40)\n      0x00\n      mload(0x40)\n      dup1\n      dup4\n      sub\n      dup2\n      dup6\n      dup9\n      dup9\n      call\n      swap4\n      pop\n      pop\n      pop\n      pop\n      iszero\n      dup1\n      iszero\n      tag_57\n      jumpi\n      returndatasize\n      0x00\n      dup1\n      returndatacopy\n      revert(0x00, returndatasize)\n    tag_57:\n      pop\n        /* \"Contracts\":2355:2359  true */\n      0x01\n        /* \"Contracts\":2336:2343  request */\n      dup2\n        /* \"Contracts\":2336:2352  request.complete */\n      0x03\n      add\n      0x14\n        /* \"Contracts\":2336:2359  request.complete = true */\n      0x0100\n      exp\n      dup2\n      sload\n      dup2\n      0xff\n      mul\n      not\n      and\n      swap1\n      dup4\n      iszero\n      iszero\n      mul\n      or\n      swap1\n      sstore\n      pop\n        /* \"Contracts\":984:985  _ */\n      pop\n        /* \"Contracts\":2053:2367  function finalizeRequest(uint index) public restricted {\r... */\n      pop\n      jump\t// out\n        /* \"Contracts\":667:689  address public manager */\n    tag_18:\n      0x00\n      dup1\n      sload\n      swap1\n      0x0100\n      exp\n      swap1\n      div\n      0xffffffffffffffffffffffffffffffffffffffff\n      and\n      dup2\n      jump\t// out\n        /* \"Contracts\":811:836  Request[] public requests */\n    tag_24:\n      0x04\n      dup2\n      dup2\n      sload\n      dup2\n      lt\n      tag_58\n      jumpi\n      0x00\n      dup1\n      revert\n    tag_58:\n      swap1\n      0x00\n      mstore\n      keccak256(0x00, 0x20)\n      swap1\n      0x05\n      mul\n      add\n      0x00\n      swap2\n      pop\n      swap1\n      pop\n      dup1\n      0x00\n      add\n      sload\n      swap1\n      dup1\n      0x01\n      add\n      dup1\n      sload\n      tag_60\n      swap1\n      tag_61\n      jump\t// in\n    tag_60:\n      dup1\n      0x1f\n      add\n      0x20\n      dup1\n      swap2\n      div\n      mul\n      0x20\n      add\n      mload(0x40)\n      swap1\n      dup2\n      add\n      0x40\n      mstore\n      dup1\n      swap3\n      swap2\n      swap1\n      dup2\n      dup2\n      mstore\n      0x20\n      add\n      dup3\n      dup1\n      sload\n      tag_62\n      swap1\n      tag_61\n      jump\t// in\n    tag_62:\n      dup1\n      iszero\n      tag_63\n      jumpi\n      dup1\n      0x1f\n      lt\n      tag_64\n      jumpi\n      0x0100\n      dup1\n      dup4\n      sload\n      div\n      mul\n      dup4\n      mstore\n      swap2\n      0x20\n      add\n      swap2\n      jump(tag_63)\n    tag_64:\n      dup3\n      add\n      swap2\n      swap1\n      0x00\n      mstore\n      keccak256(0x00, 0x20)\n      swap1\n    tag_65:\n      dup2\n      sload\n      dup2\n      mstore\n      swap1\n      0x01\n      add\n      swap1\n      0x20\n      add\n      dup1\n      dup4\n      gt\n      tag_65\n      jumpi\n      dup3\n      swap1\n      sub\n      0x1f\n      and\n      dup3\n      add\n      swap2\n    tag_63:\n      pop\n      pop\n      pop\n      pop\n      pop\n      swap1\n      dup1\n      0x02\n      add\n      sload\n      swap1\n      dup1\n      0x03\n      add\n      0x00\n      swap1\n      sload\n      swap1\n      0x0100\n      exp\n      swap1\n      div\n      0xffffffffffffffffffffffffffffffffffffffff\n      and\n      swap1\n      dup1\n      0x03\n      add\n      0x14\n      swap1\n      sload\n      swap1\n      0x0100\n      exp\n      swap1\n      div\n      0xff\n      and\n      swap1\n      dup1\n      0x04\n      add\n      sload\n      swap1\n      pop\n      dup7\n      jump\t// out\n        /* \"Contracts\":778:804  uint public approversCount */\n    tag_29:\n      sload(0x03)\n      dup2\n      jump\t// out\n        /* \"Contracts\":1303:1730  function createRequest(string memory description, uint value, address payable recipient) \r... */\n    tag_36:\n        /* \"Contracts\":965:972  manager */\n      0x00\n      dup1\n      sload\n      swap1\n      0x0100\n      exp\n      swap1\n      div\n      0xffffffffffffffffffffffffffffffffffffffff\n      and\n        /* \"Contracts\":951:972  msg.sender == manager */\n      0xffffffffffffffffffffffffffffffffffffffff\n      and\n        /* \"Contracts\":951:961  msg.sender */\n      caller\n        /* \"Contracts\":951:972  msg.sender == manager */\n      0xffffffffffffffffffffffffffffffffffffffff\n      and\n      eq\n        /* \"Contracts\":943:973  require(msg.sender == manager) */\n      tag_67\n      jumpi\n      0x00\n      dup1\n      revert\n    tag_67:\n        /* \"Contracts\":1437:1462  Request memory newRequest */\n      0x00\n        /* \"Contracts\":1465:1684  Request({\r... */\n      mload(0x40)\n      dup1\n      0xc0\n      add\n      0x40\n      mstore\n      dup1\n        /* \"Contracts\":1495:1503  requests */\n      0x04\n        /* \"Contracts\":1495:1510  requests.length */\n      dup1\n      sload\n      swap1\n      pop\n        /* \"Contracts\":1465:1684  Request({\r... */\n      dup2\n      mstore\n      0x20\n      add\n        /* \"Contracts\":1538:1549  description */\n      dup6\n        /* \"Contracts\":1465:1684  Request({\r... */\n      dup2\n      mstore\n      0x20\n      add\n        /* \"Contracts\":1571:1576  value */\n      dup5\n        /* \"Contracts\":1465:1684  Request({\r... */\n      dup2\n      mstore\n      0x20\n      add\n        /* \"Contracts\":1602:1611  recipient */\n      dup4\n        /* \"Contracts\":1465:1684  Request({\r... */\n      0xffffffffffffffffffffffffffffffffffffffff\n      and\n      dup2\n      mstore\n      0x20\n      add\n        /* \"Contracts\":1636:1641  false */\n      0x00\n        /* \"Contracts\":1465:1684  Request({\r... */\n      iszero\n      iszero\n      dup2\n      mstore\n      0x20\n      add\n        /* \"Contracts\":1671:1672  0 */\n      0x00\n        /* \"Contracts\":1465:1684  Request({\r... */\n      dup2\n      mstore\n      pop\n        /* \"Contracts\":1437:1684  Request memory newRequest = Request({\r... */\n      swap1\n      pop\n        /* \"Contracts\":1697:1705  requests */\n      0x04\n        /* \"Contracts\":1711:1721  newRequest */\n      dup2\n        /* \"Contracts\":1697:1722  requests.push(newRequest) */\n      swap1\n      dup1\n      0x01\n      dup2\n      sload\n      add\n      dup1\n      dup3\n      sstore\n      dup1\n      swap2\n      pop\n      pop\n      0x01\n      swap1\n      sub\n      swap1\n      0x00\n      mstore\n      keccak256(0x00, 0x20)\n      swap1\n      0x05\n      mul\n      add\n      0x00\n      swap1\n      swap2\n      swap1\n      swap2\n      swap1\n      swap2\n      pop\n      0x00\n      dup3\n      add\n      mload\n      dup2\n      0x00\n      add\n      sstore\n      0x20\n      dup3\n      add\n      mload\n      dup2\n      0x01\n      add\n      swap1\n      dup1\n      mload\n      swap1\n      0x20\n      add\n      swap1\n      tag_70\n      swap3\n      swap2\n      swap1\n      tag_71\n      jump\t// in\n    tag_70:\n      pop\n      0x40\n      dup3\n      add\n      mload\n      dup2\n      0x02\n      add\n      sstore\n      0x60\n      dup3\n      add\n      mload\n      dup2\n      0x03\n      add\n      exp(0x0100, 0x00)\n      dup2\n      sload\n      dup2\n      0xffffffffffffffffffffffffffffffffffffffff\n      mul\n      not\n      and\n      swap1\n      dup4\n      0xffffffffffffffffffffffffffffffffffffffff\n      and\n      mul\n      or\n      swap1\n      sstore\n      pop\n      0x80\n      dup3\n      add\n      mload\n      dup2\n      0x03\n      add\n      exp(0x0100, 0x14)\n      dup2\n      sload\n      dup2\n      0xff\n      mul\n      not\n      and\n      swap1\n      dup4\n      iszero\n      iszero\n      mul\n      or\n      swap1\n      sstore\n      pop\n      0xa0\n      dup3\n      add\n      mload\n      dup2\n      0x04\n      add\n      sstore\n      pop\n      pop\n        /* \"Contracts\":984:985  _ */\n      pop\n        /* \"Contracts\":1303:1730  function createRequest(string memory description, uint value, address payable recipient) \r... */\n      pop\n      pop\n      pop\n      jump\t// out\n        /* \"Contracts\":696:730  uint256 public minimumContribution */\n    tag_39:\n      sload(0x01)\n      dup2\n      jump\t// out\n        /* \"Contracts\":1131:1295  function contribute() public payable {\r... */\n    tag_42:\n        /* \"Contracts\":1199:1218  minimumContribution */\n      sload(0x01)\n        /* \"Contracts\":1187:1196  msg.value */\n      callvalue\n        /* \"Contracts\":1187:1218  msg.value > minimumContribution */\n      gt\n        /* \"Contracts\":1179:1219  require(msg.value > minimumContribution) */\n      tag_73\n      jumpi\n      0x00\n      dup1\n      revert\n    tag_73:\n        /* \"Contracts\":1256:1260  true */\n      0x01\n        /* \"Contracts\":1232:1241  approvers */\n      0x02\n        /* \"Contracts\":1232:1253  approvers[msg.sender] */\n      0x00\n        /* \"Contracts\":1242:1252  msg.sender */\n      caller\n        /* \"Contracts\":1232:1253  approvers[msg.sender] */\n      0xffffffffffffffffffffffffffffffffffffffff\n      and\n      0xffffffffffffffffffffffffffffffffffffffff\n      and\n      dup2\n      mstore\n      0x20\n      add\n      swap1\n      dup2\n      mstore\n      0x20\n      add\n      0x00\n      keccak256\n      0x00\n        /* \"Contracts\":1232:1260  approvers[msg.sender] = true */\n      0x0100\n      exp\n      dup2\n      sload\n      dup2\n      0xff\n      mul\n      not\n      and\n      swap1\n      dup4\n      iszero\n      iszero\n      mul\n      or\n      swap1\n      sstore\n      pop\n        /* \"Contracts\":1271:1285  approversCount */\n      0x03\n      0x00\n        /* \"Contracts\":1271:1287  approversCount++ */\n      dup2\n      sload\n      dup1\n      swap3\n      swap2\n      swap1\n      tag_74\n      swap1\n      tag_75\n      jump\t// in\n    tag_74:\n      swap2\n      swap1\n      pop\n      sstore\n      pop\n        /* \"Contracts\":1131:1295  function contribute() public payable {\r... */\n      jump\t// out\n        /* \"Contracts\":1738:2045  function approveRequest(uint index) public {\r... */\n    tag_46:\n        /* \"Contracts\":1792:1815  Request storage request */\n      0x00\n        /* \"Contracts\":1818:1826  requests */\n      0x04\n        /* \"Contracts\":1827:1832  index */\n      dup3\n        /* \"Contracts\":1818:1833  requests[index] */\n      dup2\n      sload\n      dup2\n      lt\n      tag_77\n      jumpi\n      mstore(0x00, 0x4e487b7100000000000000000000000000000000000000000000000000000000)\n      mstore(0x04, 0x32)\n      revert(0x00, 0x24)\n    tag_77:\n      swap1\n      0x00\n      mstore\n      keccak256(0x00, 0x20)\n      swap1\n      0x05\n      mul\n      add\n        /* \"Contracts\":1792:1833  Request storage request = requests[index] */\n      swap1\n      pop\n        /* \"Contracts\":1854:1863  approvers */\n      0x02\n        /* \"Contracts\":1854:1875  approvers[msg.sender] */\n      0x00\n        /* \"Contracts\":1864:1874  msg.sender */\n      caller\n        /* \"Contracts\":1854:1875  approvers[msg.sender] */\n      0xffffffffffffffffffffffffffffffffffffffff\n      and\n      0xffffffffffffffffffffffffffffffffffffffff\n      and\n      dup2\n      mstore\n      0x20\n      add\n      swap1\n      dup2\n      mstore\n      0x20\n      add\n      0x00\n      keccak256\n      0x00\n      swap1\n      sload\n      swap1\n      0x0100\n      exp\n      swap1\n      div\n      0xff\n      and\n        /* \"Contracts\":1846:1876  require(approvers[msg.sender]) */\n      tag_79\n      jumpi\n      0x00\n      dup1\n      revert\n    tag_79:\n        /* \"Contracts\":1896:1912  requestApprovals */\n      0x05\n        /* \"Contracts\":1896:1927  requestApprovals[request.index] */\n      0x00\n        /* \"Contracts\":1913:1920  request */\n      dup3\n        /* \"Contracts\":1913:1926  request.index */\n      0x00\n      add\n      sload\n        /* \"Contracts\":1896:1927  requestApprovals[request.index] */\n      dup2\n      mstore\n      0x20\n      add\n      swap1\n      dup2\n      mstore\n      0x20\n      add\n      0x00\n      keccak256\n        /* \"Contracts\":1896:1939  requestApprovals[request.index][msg.sender] */\n      0x00\n        /* \"Contracts\":1928:1938  msg.sender */\n      caller\n        /* \"Contracts\":1896:1939  requestApprovals[request.index][msg.sender] */\n      0xffffffffffffffffffffffffffffffffffffffff\n      and\n      0xffffffffffffffffffffffffffffffffffffffff\n      and\n      dup2\n      mstore\n      0x20\n      add\n      swap1\n      dup2\n      mstore\n      0x20\n      add\n      0x00\n      keccak256\n      0x00\n      swap1\n      sload\n      swap1\n      0x0100\n      exp\n      swap1\n      div\n      0xff\n      and\n        /* \"Contracts\":1895:1939  !requestApprovals[request.index][msg.sender] */\n      iszero\n        /* \"Contracts\":1887:1940  require(!requestApprovals[request.index][msg.sender]) */\n      tag_80\n      jumpi\n      0x00\n      dup1\n      revert\n    tag_80:\n        /* \"Contracts\":1999:2003  true */\n      0x01\n        /* \"Contracts\":1953:1969  requestApprovals */\n      0x05\n        /* \"Contracts\":1953:1984  requestApprovals[request.index] */\n      0x00\n        /* \"Contracts\":1970:1977  request */\n      dup4\n        /* \"Contracts\":1970:1983  request.index */\n      0x00\n      add\n      sload\n        /* \"Contracts\":1953:1984  requestApprovals[request.index] */\n      dup2\n      mstore\n      0x20\n      add\n      swap1\n      dup2\n      mstore\n      0x20\n      add\n      0x00\n      keccak256\n        /* \"Contracts\":1953:1996  requestApprovals[request.index][msg.sender] */\n      0x00\n        /* \"Contracts\":1985:1995  msg.sender */\n      caller\n        /* \"Contracts\":1953:1996  requestApprovals[request.index][msg.sender] */\n      0xffffffffffffffffffffffffffffffffffffffff\n      and\n      0xffffffffffffffffffffffffffffffffffffffff\n      and\n      dup2\n      mstore\n      0x20\n      add\n      swap1\n      dup2\n      mstore\n      0x20\n      add\n      0x00\n      keccak256\n      0x00\n        /* \"Contracts\":1953:2003  requestApprovals[request.index][msg.sender] = true */\n      0x0100\n      exp\n      dup2\n      sload\n      dup2\n      0xff\n      mul\n      not\n      and\n      swap1\n      dup4\n      iszero\n      iszero\n      mul\n      or\n      swap1\n      sstore\n      pop\n        /* \"Contracts\":2014:2021  request */\n      dup1\n        /* \"Contracts\":2014:2035  request.approvalCount */\n      0x04\n      add\n      0x00\n        /* \"Contracts\":2014:2037  request.approvalCount++ */\n      dup2\n      sload\n      dup1\n      swap3\n      swap2\n      swap1\n      tag_81\n      swap1\n      tag_75\n      jump\t// in\n    tag_81:\n      swap2\n      swap1\n      pop\n      sstore\n      pop\n        /* \"Contracts\":1738:2045  function approveRequest(uint index) public {\r... */\n      pop\n      pop\n      jump\t// out\n    tag_71:\n      dup3\n      dup1\n      sload\n      tag_82\n      swap1\n      tag_61\n      jump\t// in\n    tag_82:\n      swap1\n      0x00\n      mstore\n      keccak256(0x00, 0x20)\n      swap1\n      0x1f\n      add\n      0x20\n      swap1\n      div\n      dup2\n      add\n      swap3\n      dup3\n      tag_84\n      jumpi\n      0x00\n      dup6\n      sstore\n      jump(tag_83)\n    tag_84:\n      dup3\n      0x1f\n      lt\n      tag_85\n      jumpi\n      dup1\n      mload\n      not(0xff)\n      and\n      dup4\n      dup1\n      add\n      or\n      dup6\n      sstore\n      jump(tag_83)\n    tag_85:\n      dup3\n      dup1\n      add\n      0x01\n      add\n      dup6\n      sstore\n      dup3\n      iszero\n      tag_83\n      jumpi\n      swap2\n      dup3\n      add\n    tag_86:\n      dup3\n      dup2\n      gt\n      iszero\n      tag_87\n      jumpi\n      dup3\n      mload\n      dup3\n      sstore\n      swap2\n      0x20\n      add\n      swap2\n      swap1\n      0x01\n      add\n      swap1\n      jump(tag_86)\n    tag_87:\n    tag_83:\n      pop\n      swap1\n      pop\n      tag_88\n      swap2\n      swap1\n      tag_89\n      jump\t// in\n    tag_88:\n      pop\n      swap1\n      jump\t// out\n    tag_89:\n    tag_90:\n      dup1\n      dup3\n      gt\n      iszero\n      tag_91\n      jumpi\n      0x00\n      dup2\n      0x00\n      swap1\n      sstore\n      pop\n      0x01\n      add\n      jump(tag_90)\n    tag_91:\n      pop\n      swap1\n      jump\t// out\n        /* \"#utility.yul\":7:351   */\n    tag_93:\n      0x00\n        /* \"#utility.yul\":110:175   */\n      tag_95\n        /* \"#utility.yul\":125:174   */\n      tag_96\n        /* \"#utility.yul\":167:173   */\n      dup5\n        /* \"#utility.yul\":125:174   */\n      tag_97\n      jump\t// in\n    tag_96:\n        /* \"#utility.yul\":110:175   */\n      tag_98\n      jump\t// in\n    tag_95:\n        /* \"#utility.yul\":101:175   */\n      swap1\n      pop\n        /* \"#utility.yul\":198:204   */\n      dup3\n        /* \"#utility.yul\":191:196   */\n      dup2\n        /* \"#utility.yul\":184:205   */\n      mstore\n        /* \"#utility.yul\":236:240   */\n      0x20\n        /* \"#utility.yul\":229:234   */\n      dup2\n        /* \"#utility.yul\":225:241   */\n      add\n        /* \"#utility.yul\":274:277   */\n      dup5\n        /* \"#utility.yul\":265:271   */\n      dup5\n        /* \"#utility.yul\":260:263   */\n      dup5\n        /* \"#utility.yul\":256:272   */\n      add\n        /* \"#utility.yul\":253:278   */\n      gt\n        /* \"#utility.yul\":250:252   */\n      iszero\n      tag_99\n      jumpi\n        /* \"#utility.yul\":291:292   */\n      0x00\n        /* \"#utility.yul\":288:289   */\n      dup1\n        /* \"#utility.yul\":281:293   */\n      revert\n        /* \"#utility.yul\":250:252   */\n    tag_99:\n        /* \"#utility.yul\":304:345   */\n      tag_100\n        /* \"#utility.yul\":338:344   */\n      dup5\n        /* \"#utility.yul\":333:336   */\n      dup3\n        /* \"#utility.yul\":328:331   */\n      dup6\n        /* \"#utility.yul\":304:345   */\n      tag_101\n      jump\t// in\n    tag_100:\n        /* \"#utility.yul\":91:351   */\n      pop\n      swap4\n      swap3\n      pop\n      pop\n      pop\n      jump\t// out\n        /* \"#utility.yul\":357:512   */\n    tag_102:\n      0x00\n        /* \"#utility.yul\":449:455   */\n      dup2\n        /* \"#utility.yul\":436:456   */\n      calldataload\n        /* \"#utility.yul\":427:456   */\n      swap1\n      pop\n        /* \"#utility.yul\":465:506   */\n      tag_104\n        /* \"#utility.yul\":500:505   */\n      dup2\n        /* \"#utility.yul\":465:506   */\n      tag_105\n      jump\t// in\n    tag_104:\n        /* \"#utility.yul\":417:512   */\n      swap3\n      swap2\n      pop\n      pop\n      jump\t// out\n        /* \"#utility.yul\":532:805   */\n    tag_106:\n      0x00\n        /* \"#utility.yul\":637:640   */\n      dup3\n        /* \"#utility.yul\":630:634   */\n      0x1f\n        /* \"#utility.yul\":622:628   */\n      dup4\n        /* \"#utility.yul\":618:635   */\n      add\n        /* \"#utility.yul\":614:641   */\n      slt\n        /* \"#utility.yul\":604:606   */\n      tag_108\n      jumpi\n        /* \"#utility.yul\":655:656   */\n      0x00\n        /* \"#utility.yul\":652:653   */\n      dup1\n        /* \"#utility.yul\":645:657   */\n      revert\n        /* \"#utility.yul\":604:606   */\n    tag_108:\n        /* \"#utility.yul\":695:701   */\n      dup2\n        /* \"#utility.yul\":682:702   */\n      calldataload\n        /* \"#utility.yul\":720:799   */\n      tag_109\n        /* \"#utility.yul\":795:798   */\n      dup5\n        /* \"#utility.yul\":787:793   */\n      dup3\n        /* \"#utility.yul\":780:784   */\n      0x20\n        /* \"#utility.yul\":772:778   */\n      dup7\n        /* \"#utility.yul\":768:785   */\n      add\n        /* \"#utility.yul\":720:799   */\n      tag_93\n      jump\t// in\n    tag_109:\n        /* \"#utility.yul\":711:799   */\n      swap2\n      pop\n        /* \"#utility.yul\":594:805   */\n      pop\n      swap3\n      swap2\n      pop\n      pop\n      jump\t// out\n        /* \"#utility.yul\":811:950   */\n    tag_110:\n      0x00\n        /* \"#utility.yul\":895:901   */\n      dup2\n        /* \"#utility.yul\":882:902   */\n      calldataload\n        /* \"#utility.yul\":873:902   */\n      swap1\n      pop\n        /* \"#utility.yul\":911:944   */\n      tag_112\n        /* \"#utility.yul\":938:943   */\n      dup2\n        /* \"#utility.yul\":911:944   */\n      tag_113\n      jump\t// in\n    tag_112:\n        /* \"#utility.yul\":863:950   */\n      swap3\n      swap2\n      pop\n      pop\n      jump\t// out\n        /* \"#utility.yul\":956:1637   */\n    tag_35:\n      0x00\n      dup1\n      0x00\n        /* \"#utility.yul\":1116:1118   */\n      0x60\n        /* \"#utility.yul\":1104:1113   */\n      dup5\n        /* \"#utility.yul\":1095:1102   */\n      dup7\n        /* \"#utility.yul\":1091:1114   */\n      sub\n        /* \"#utility.yul\":1087:1119   */\n      slt\n        /* \"#utility.yul\":1084:1086   */\n      iszero\n      tag_115\n      jumpi\n        /* \"#utility.yul\":1132:1133   */\n      0x00\n        /* \"#utility.yul\":1129:1130   */\n      dup1\n        /* \"#utility.yul\":1122:1134   */\n      revert\n        /* \"#utility.yul\":1084:1086   */\n    tag_115:\n        /* \"#utility.yul\":1203:1204   */\n      0x00\n        /* \"#utility.yul\":1192:1201   */\n      dup5\n        /* \"#utility.yul\":1188:1205   */\n      add\n        /* \"#utility.yul\":1175:1206   */\n      calldataload\n        /* \"#utility.yul\":1233:1251   */\n      0xffffffffffffffff\n        /* \"#utility.yul\":1225:1231   */\n      dup2\n        /* \"#utility.yul\":1222:1252   */\n      gt\n        /* \"#utility.yul\":1219:1221   */\n      iszero\n      tag_116\n      jumpi\n        /* \"#utility.yul\":1265:1266   */\n      0x00\n        /* \"#utility.yul\":1262:1263   */\n      dup1\n        /* \"#utility.yul\":1255:1267   */\n      revert\n        /* \"#utility.yul\":1219:1221   */\n    tag_116:\n        /* \"#utility.yul\":1293:1356   */\n      tag_117\n        /* \"#utility.yul\":1348:1355   */\n      dup7\n        /* \"#utility.yul\":1339:1345   */\n      dup3\n        /* \"#utility.yul\":1328:1337   */\n      dup8\n        /* \"#utility.yul\":1324:1346   */\n      add\n        /* \"#utility.yul\":1293:1356   */\n      tag_106\n      jump\t// in\n    tag_117:\n        /* \"#utility.yul\":1283:1356   */\n      swap4\n      pop\n        /* \"#utility.yul\":1146:1366   */\n      pop\n        /* \"#utility.yul\":1405:1407   */\n      0x20\n        /* \"#utility.yul\":1431:1484   */\n      tag_118\n        /* \"#utility.yul\":1476:1483   */\n      dup7\n        /* \"#utility.yul\":1467:1473   */\n      dup3\n        /* \"#utility.yul\":1456:1465   */\n      dup8\n        /* \"#utility.yul\":1452:1474   */\n      add\n        /* \"#utility.yul\":1431:1484   */\n      tag_110\n      jump\t// in\n    tag_118:\n        /* \"#utility.yul\":1421:1484   */\n      swap3\n      pop\n        /* \"#utility.yul\":1376:1494   */\n      pop\n        /* \"#utility.yul\":1533:1535   */\n      0x40\n        /* \"#utility.yul\":1559:1620   */\n      tag_119\n        /* \"#utility.yul\":1612:1619   */\n      dup7\n        /* \"#utility.yul\":1603:1609   */\n      dup3\n        /* \"#utility.yul\":1592:1601   */\n      dup8\n        /* \"#utility.yul\":1588:1610   */\n      add\n        /* \"#utility.yul\":1559:1620   */\n      tag_102\n      jump\t// in\n    tag_119:\n        /* \"#utility.yul\":1549:1620   */\n      swap2\n      pop\n        /* \"#utility.yul\":1504:1630   */\n      pop\n        /* \"#utility.yul\":1074:1637   */\n      swap3\n      pop\n      swap3\n      pop\n      swap3\n      jump\t// out\n        /* \"#utility.yul\":1643:1905   */\n    tag_14:\n      0x00\n        /* \"#utility.yul\":1751:1753   */\n      0x20\n        /* \"#utility.yul\":1739:1748   */\n      dup3\n        /* \"#utility.yul\":1730:1737   */\n      dup5\n        /* \"#utility.yul\":1726:1749   */\n      sub\n        /* \"#utility.yul\":1722:1754   */\n      slt\n        /* \"#utility.yul\":1719:1721   */\n      iszero\n      tag_121\n      jumpi\n        /* \"#utility.yul\":1767:1768   */\n      0x00\n        /* \"#utility.yul\":1764:1765   */\n      dup1\n        /* \"#utility.yul\":1757:1769   */\n      revert\n        /* \"#utility.yul\":1719:1721   */\n    tag_121:\n        /* \"#utility.yul\":1810:1811   */\n      0x00\n        /* \"#utility.yul\":1835:1888   */\n      tag_122\n        /* \"#utility.yul\":1880:1887   */\n      dup5\n        /* \"#utility.yul\":1871:1877   */\n      dup3\n        /* \"#utility.yul\":1860:1869   */\n      dup6\n        /* \"#utility.yul\":1856:1878   */\n      add\n        /* \"#utility.yul\":1835:1888   */\n      tag_110\n      jump\t// in\n    tag_122:\n        /* \"#utility.yul\":1825:1888   */\n      swap2\n      pop\n        /* \"#utility.yul\":1781:1898   */\n      pop\n        /* \"#utility.yul\":1709:1905   */\n      swap3\n      swap2\n      pop\n      pop\n      jump\t// out\n        /* \"#utility.yul\":1911:2053   */\n    tag_123:\n        /* \"#utility.yul\":2014:2046   */\n      tag_125\n        /* \"#utility.yul\":2040:2045   */\n      dup2\n        /* \"#utility.yul\":2014:2046   */\n      tag_126\n      jump\t// in\n    tag_125:\n        /* \"#utility.yul\":2009:2012   */\n      dup3\n        /* \"#utility.yul\":2002:2047   */\n      mstore\n        /* \"#utility.yul\":1992:2053   */\n      pop\n      pop\n      jump\t// out\n        /* \"#utility.yul\":2059:2177   */\n    tag_127:\n        /* \"#utility.yul\":2146:2170   */\n      tag_129\n        /* \"#utility.yul\":2164:2169   */\n      dup2\n        /* \"#utility.yul\":2146:2170   */\n      tag_130\n      jump\t// in\n    tag_129:\n        /* \"#utility.yul\":2141:2144   */\n      dup3\n        /* \"#utility.yul\":2134:2171   */\n      mstore\n        /* \"#utility.yul\":2124:2177   */\n      pop\n      pop\n      jump\t// out\n        /* \"#utility.yul\":2183:2292   */\n    tag_131:\n        /* \"#utility.yul\":2264:2285   */\n      tag_133\n        /* \"#utility.yul\":2279:2284   */\n      dup2\n        /* \"#utility.yul\":2264:2285   */\n      tag_134\n      jump\t// in\n    tag_133:\n        /* \"#utility.yul\":2259:2262   */\n      dup3\n        /* \"#utility.yul\":2252:2286   */\n      mstore\n        /* \"#utility.yul\":2242:2292   */\n      pop\n      pop\n      jump\t// out\n        /* \"#utility.yul\":2298:2662   */\n    tag_135:\n      0x00\n        /* \"#utility.yul\":2414:2453   */\n      tag_137\n        /* \"#utility.yul\":2447:2452   */\n      dup3\n        /* \"#utility.yul\":2414:2453   */\n      tag_138\n      jump\t// in\n    tag_137:\n        /* \"#utility.yul\":2469:2540   */\n      tag_139\n        /* \"#utility.yul\":2533:2539   */\n      dup2\n        /* \"#utility.yul\":2528:2531   */\n      dup6\n        /* \"#utility.yul\":2469:2540   */\n      tag_140\n      jump\t// in\n    tag_139:\n        /* \"#utility.yul\":2462:2540   */\n      swap4\n      pop\n        /* \"#utility.yul\":2549:2601   */\n      tag_141\n        /* \"#utility.yul\":2594:2600   */\n      dup2\n        /* \"#utility.yul\":2589:2592   */\n      dup6\n        /* \"#utility.yul\":2582:2586   */\n      0x20\n        /* \"#utility.yul\":2575:2580   */\n      dup7\n        /* \"#utility.yul\":2571:2587   */\n      add\n        /* \"#utility.yul\":2549:2601   */\n      tag_142\n      jump\t// in\n    tag_141:\n        /* \"#utility.yul\":2626:2655   */\n      tag_143\n        /* \"#utility.yul\":2648:2654   */\n      dup2\n        /* \"#utility.yul\":2626:2655   */\n      tag_144\n      jump\t// in\n    tag_143:\n        /* \"#utility.yul\":2621:2624   */\n      dup5\n        /* \"#utility.yul\":2617:2656   */\n      add\n        /* \"#utility.yul\":2610:2656   */\n      swap2\n      pop\n        /* \"#utility.yul\":2390:2662   */\n      pop\n      swap3\n      swap2\n      pop\n      pop\n      jump\t// out\n        /* \"#utility.yul\":2668:2786   */\n    tag_145:\n        /* \"#utility.yul\":2755:2779   */\n      tag_147\n        /* \"#utility.yul\":2773:2778   */\n      dup2\n        /* \"#utility.yul\":2755:2779   */\n      tag_148\n      jump\t// in\n    tag_147:\n        /* \"#utility.yul\":2750:2753   */\n      dup3\n        /* \"#utility.yul\":2743:2780   */\n      mstore\n        /* \"#utility.yul\":2733:2786   */\n      pop\n      pop\n      jump\t// out\n        /* \"#utility.yul\":2792:3014   */\n    tag_20:\n      0x00\n        /* \"#utility.yul\":2923:2925   */\n      0x20\n        /* \"#utility.yul\":2912:2921   */\n      dup3\n        /* \"#utility.yul\":2908:2926   */\n      add\n        /* \"#utility.yul\":2900:2926   */\n      swap1\n      pop\n        /* \"#utility.yul\":2936:3007   */\n      tag_150\n        /* \"#utility.yul\":3004:3005   */\n      0x00\n        /* \"#utility.yul\":2993:3002   */\n      dup4\n        /* \"#utility.yul\":2989:3006   */\n      add\n        /* \"#utility.yul\":2980:2986   */\n      dup5\n        /* \"#utility.yul\":2936:3007   */\n      tag_127\n      jump\t// in\n    tag_150:\n        /* \"#utility.yul\":2890:3014   */\n      swap3\n      swap2\n      pop\n      pop\n      jump\t// out\n        /* \"#utility.yul\":3020:3242   */\n    tag_31:\n      0x00\n        /* \"#utility.yul\":3151:3153   */\n      0x20\n        /* \"#utility.yul\":3140:3149   */\n      dup3\n        /* \"#utility.yul\":3136:3154   */\n      add\n        /* \"#utility.yul\":3128:3154   */\n      swap1\n      pop\n        /* \"#utility.yul\":3164:3235   */\n      tag_152\n        /* \"#utility.yul\":3232:3233   */\n      0x00\n        /* \"#utility.yul\":3221:3230   */\n      dup4\n        /* \"#utility.yul\":3217:3234   */\n      add\n        /* \"#utility.yul\":3208:3214   */\n      dup5\n        /* \"#utility.yul\":3164:3235   */\n      tag_145\n      jump\t// in\n    tag_152:\n        /* \"#utility.yul\":3118:3242   */\n      swap3\n      swap2\n      pop\n      pop\n      jump\t// out\n        /* \"#utility.yul\":3248:4134   */\n    tag_26:\n      0x00\n        /* \"#utility.yul\":3549:3552   */\n      0xc0\n        /* \"#utility.yul\":3538:3547   */\n      dup3\n        /* \"#utility.yul\":3534:3553   */\n      add\n        /* \"#utility.yul\":3526:3553   */\n      swap1\n      pop\n        /* \"#utility.yul\":3563:3634   */\n      tag_154\n        /* \"#utility.yul\":3631:3632   */\n      0x00\n        /* \"#utility.yul\":3620:3629   */\n      dup4\n        /* \"#utility.yul\":3616:3633   */\n      add\n        /* \"#utility.yul\":3607:3613   */\n      dup10\n        /* \"#utility.yul\":3563:3634   */\n      tag_145\n      jump\t// in\n    tag_154:\n        /* \"#utility.yul\":3681:3690   */\n      dup2\n        /* \"#utility.yul\":3675:3679   */\n      dup2\n        /* \"#utility.yul\":3671:3691   */\n      sub\n        /* \"#utility.yul\":3666:3668   */\n      0x20\n        /* \"#utility.yul\":3655:3664   */\n      dup4\n        /* \"#utility.yul\":3651:3669   */\n      add\n        /* \"#utility.yul\":3644:3692   */\n      mstore\n        /* \"#utility.yul\":3709:3787   */\n      tag_155\n        /* \"#utility.yul\":3782:3786   */\n      dup2\n        /* \"#utility.yul\":3773:3779   */\n      dup9\n        /* \"#utility.yul\":3709:3787   */\n      tag_135\n      jump\t// in\n    tag_155:\n        /* \"#utility.yul\":3701:3787   */\n      swap1\n      pop\n        /* \"#utility.yul\":3797:3869   */\n      tag_156\n        /* \"#utility.yul\":3865:3867   */\n      0x40\n        /* \"#utility.yul\":3854:3863   */\n      dup4\n        /* \"#utility.yul\":3850:3868   */\n      add\n        /* \"#utility.yul\":3841:3847   */\n      dup8\n        /* \"#utility.yul\":3797:3869   */\n      tag_145\n      jump\t// in\n    tag_156:\n        /* \"#utility.yul\":3879:3967   */\n      tag_157\n        /* \"#utility.yul\":3963:3965   */\n      0x60\n        /* \"#utility.yul\":3952:3961   */\n      dup4\n        /* \"#utility.yul\":3948:3966   */\n      add\n        /* \"#utility.yul\":3939:3945   */\n      dup7\n        /* \"#utility.yul\":3879:3967   */\n      tag_123\n      jump\t// in\n    tag_157:\n        /* \"#utility.yul\":3977:4044   */\n      tag_158\n        /* \"#utility.yul\":4039:4042   */\n      0x80\n        /* \"#utility.yul\":4028:4037   */\n      dup4\n        /* \"#utility.yul\":4024:4043   */\n      add\n        /* \"#utility.yul\":4015:4021   */\n      dup6\n        /* \"#utility.yul\":3977:4044   */\n      tag_131\n      jump\t// in\n    tag_158:\n        /* \"#utility.yul\":4054:4127   */\n      tag_159\n        /* \"#utility.yul\":4122:4125   */\n      0xa0\n        /* \"#utility.yul\":4111:4120   */\n      dup4\n        /* \"#utility.yul\":4107:4126   */\n      add\n        /* \"#utility.yul\":4098:4104   */\n      dup5\n        /* \"#utility.yul\":4054:4127   */\n      tag_145\n      jump\t// in\n    tag_159:\n        /* \"#utility.yul\":3516:4134   */\n      swap8\n      swap7\n      pop\n      pop\n      pop\n      pop\n      pop\n      pop\n      pop\n      jump\t// out\n        /* \"#utility.yul\":4140:4423   */\n    tag_98:\n      0x00\n        /* \"#utility.yul\":4206:4208   */\n      0x40\n        /* \"#utility.yul\":4200:4209   */\n      mload\n        /* \"#utility.yul\":4190:4209   */\n      swap1\n      pop\n        /* \"#utility.yul\":4248:4252   */\n      dup2\n        /* \"#utility.yul\":4240:4246   */\n      dup2\n        /* \"#utility.yul\":4236:4253   */\n      add\n        /* \"#utility.yul\":4355:4361   */\n      dup2\n        /* \"#utility.yul\":4343:4353   */\n      dup2\n        /* \"#utility.yul\":4340:4362   */\n      lt\n        /* \"#utility.yul\":4319:4337   */\n      0xffffffffffffffff\n        /* \"#utility.yul\":4307:4317   */\n      dup3\n        /* \"#utility.yul\":4304:4338   */\n      gt\n        /* \"#utility.yul\":4301:4363   */\n      or\n        /* \"#utility.yul\":4298:4300   */\n      iszero\n      tag_161\n      jumpi\n        /* \"#utility.yul\":4366:4384   */\n      tag_162\n      tag_163\n      jump\t// in\n    tag_162:\n        /* \"#utility.yul\":4298:4300   */\n    tag_161:\n        /* \"#utility.yul\":4406:4416   */\n      dup1\n        /* \"#utility.yul\":4402:4404   */\n      0x40\n        /* \"#utility.yul\":4395:4417   */\n      mstore\n        /* \"#utility.yul\":4180:4423   */\n      pop\n      swap2\n      swap1\n      pop\n      jump\t// out\n        /* \"#utility.yul\":4429:4761   */\n    tag_97:\n      0x00\n        /* \"#utility.yul\":4581:4599   */\n      0xffffffffffffffff\n        /* \"#utility.yul\":4573:4579   */\n      dup3\n        /* \"#utility.yul\":4570:4600   */\n      gt\n        /* \"#utility.yul\":4567:4569   */\n      iszero\n      tag_165\n      jumpi\n        /* \"#utility.yul\":4603:4621   */\n      tag_166\n      tag_163\n      jump\t// in\n    tag_166:\n        /* \"#utility.yul\":4567:4569   */\n    tag_165:\n        /* \"#utility.yul\":4688:4692   */\n      0x1f\n        /* \"#utility.yul\":4684:4693   */\n      not\n        /* \"#utility.yul\":4677:4681   */\n      0x1f\n        /* \"#utility.yul\":4669:4675   */\n      dup4\n        /* \"#utility.yul\":4665:4682   */\n      add\n        /* \"#utility.yul\":4661:4694   */\n      and\n        /* \"#utility.yul\":4653:4694   */\n      swap1\n      pop\n        /* \"#utility.yul\":4749:4753   */\n      0x20\n        /* \"#utility.yul\":4743:4747   */\n      dup2\n        /* \"#utility.yul\":4739:4754   */\n      add\n        /* \"#utility.yul\":4731:4754   */\n      swap1\n      pop\n        /* \"#utility.yul\":4496:4761   */\n      swap2\n      swap1\n      pop\n      jump\t// out\n        /* \"#utility.yul\":4767:4866   */\n    tag_138:\n      0x00\n        /* \"#utility.yul\":4853:4858   */\n      dup2\n        /* \"#utility.yul\":4847:4859   */\n      mload\n        /* \"#utility.yul\":4837:4859   */\n      swap1\n      pop\n        /* \"#utility.yul\":4826:4866   */\n      swap2\n      swap1\n      pop\n      jump\t// out\n        /* \"#utility.yul\":4872:5041   */\n    tag_140:\n      0x00\n        /* \"#utility.yul\":4990:4996   */\n      dup3\n        /* \"#utility.yul\":4985:4988   */\n      dup3\n        /* \"#utility.yul\":4978:4997   */\n      mstore\n        /* \"#utility.yul\":5030:5034   */\n      0x20\n        /* \"#utility.yul\":5025:5028   */\n      dup3\n        /* \"#utility.yul\":5021:5035   */\n      add\n        /* \"#utility.yul\":5006:5035   */\n      swap1\n      pop\n        /* \"#utility.yul\":4968:5041   */\n      swap3\n      swap2\n      pop\n      pop\n      jump\t// out\n        /* \"#utility.yul\":5047:5232   */\n    tag_53:\n      0x00\n        /* \"#utility.yul\":5104:5124   */\n      tag_170\n        /* \"#utility.yul\":5122:5123   */\n      dup3\n        /* \"#utility.yul\":5104:5124   */\n      tag_148\n      jump\t// in\n    tag_170:\n        /* \"#utility.yul\":5099:5124   */\n      swap2\n      pop\n        /* \"#utility.yul\":5138:5158   */\n      tag_171\n        /* \"#utility.yul\":5156:5157   */\n      dup4\n        /* \"#utility.yul\":5138:5158   */\n      tag_148\n      jump\t// in\n    tag_171:\n        /* \"#utility.yul\":5133:5158   */\n      swap3\n      pop\n        /* \"#utility.yul\":5177:5178   */\n      dup3\n        /* \"#utility.yul\":5167:5169   */\n      tag_172\n      jumpi\n        /* \"#utility.yul\":5182:5200   */\n      tag_173\n      tag_174\n      jump\t// in\n    tag_173:\n        /* \"#utility.yul\":5167:5169   */\n    tag_172:\n        /* \"#utility.yul\":5224:5225   */\n      dup3\n        /* \"#utility.yul\":5221:5222   */\n      dup3\n        /* \"#utility.yul\":5217:5226   */\n      div\n        /* \"#utility.yul\":5212:5226   */\n      swap1\n      pop\n        /* \"#utility.yul\":5089:5232   */\n      swap3\n      swap2\n      pop\n      pop\n      jump\t// out\n        /* \"#utility.yul\":5238:5334   */\n    tag_130:\n      0x00\n        /* \"#utility.yul\":5304:5328   */\n      tag_176\n        /* \"#utility.yul\":5322:5327   */\n      dup3\n        /* \"#utility.yul\":5304:5328   */\n      tag_177\n      jump\t// in\n    tag_176:\n        /* \"#utility.yul\":5293:5328   */\n      swap1\n      pop\n        /* \"#utility.yul\":5283:5334   */\n      swap2\n      swap1\n      pop\n      jump\t// out\n        /* \"#utility.yul\":5340:5444   */\n    tag_126:\n      0x00\n        /* \"#utility.yul\":5414:5438   */\n      tag_179\n        /* \"#utility.yul\":5432:5437   */\n      dup3\n        /* \"#utility.yul\":5414:5438   */\n      tag_177\n      jump\t// in\n    tag_179:\n        /* \"#utility.yul\":5403:5438   */\n      swap1\n      pop\n        /* \"#utility.yul\":5393:5444   */\n      swap2\n      swap1\n      pop\n      jump\t// out\n        /* \"#utility.yul\":5450:5540   */\n    tag_134:\n      0x00\n        /* \"#utility.yul\":5527:5532   */\n      dup2\n        /* \"#utility.yul\":5520:5533   */\n      iszero\n        /* \"#utility.yul\":5513:5534   */\n      iszero\n        /* \"#utility.yul\":5502:5534   */\n      swap1\n      pop\n        /* \"#utility.yul\":5492:5540   */\n      swap2\n      swap1\n      pop\n      jump\t// out\n        /* \"#utility.yul\":5546:5672   */\n    tag_177:\n      0x00\n        /* \"#utility.yul\":5623:5665   */\n      0xffffffffffffffffffffffffffffffffffffffff\n        /* \"#utility.yul\":5616:5621   */\n      dup3\n        /* \"#utility.yul\":5612:5666   */\n      and\n        /* \"#utility.yul\":5601:5666   */\n      swap1\n      pop\n        /* \"#utility.yul\":5591:5672   */\n      swap2\n      swap1\n      pop\n      jump\t// out\n        /* \"#utility.yul\":5678:5755   */\n    tag_148:\n      0x00\n        /* \"#utility.yul\":5744:5749   */\n      dup2\n        /* \"#utility.yul\":5733:5749   */\n      swap1\n      pop\n        /* \"#utility.yul\":5723:5755   */\n      swap2\n      swap1\n      pop\n      jump\t// out\n        /* \"#utility.yul\":5761:5915   */\n    tag_101:\n        /* \"#utility.yul\":5845:5851   */\n      dup3\n        /* \"#utility.yul\":5840:5843   */\n      dup2\n        /* \"#utility.yul\":5835:5838   */\n      dup4\n        /* \"#utility.yul\":5822:5852   */\n      calldatacopy\n        /* \"#utility.yul\":5907:5908   */\n      0x00\n        /* \"#utility.yul\":5898:5904   */\n      dup4\n        /* \"#utility.yul\":5893:5896   */\n      dup4\n        /* \"#utility.yul\":5889:5905   */\n      add\n        /* \"#utility.yul\":5882:5909   */\n      mstore\n        /* \"#utility.yul\":5812:5915   */\n      pop\n      pop\n      pop\n      jump\t// out\n        /* \"#utility.yul\":5921:6228   */\n    tag_142:\n        /* \"#utility.yul\":5989:5990   */\n      0x00\n        /* \"#utility.yul\":5999:6112   */\n    tag_185:\n        /* \"#utility.yul\":6013:6019   */\n      dup4\n        /* \"#utility.yul\":6010:6011   */\n      dup2\n        /* \"#utility.yul\":6007:6020   */\n      lt\n        /* \"#utility.yul\":5999:6112   */\n      iszero\n      tag_187\n      jumpi\n        /* \"#utility.yul\":6098:6099   */\n      dup1\n        /* \"#utility.yul\":6093:6096   */\n      dup3\n        /* \"#utility.yul\":6089:6100   */\n      add\n        /* \"#utility.yul\":6083:6101   */\n      mload\n        /* \"#utility.yul\":6079:6080   */\n      dup2\n        /* \"#utility.yul\":6074:6077   */\n      dup5\n        /* \"#utility.yul\":6070:6081   */\n      add\n        /* \"#utility.yul\":6063:6102   */\n      mstore\n        /* \"#utility.yul\":6035:6037   */\n      0x20\n        /* \"#utility.yul\":6032:6033   */\n      dup2\n        /* \"#utility.yul\":6028:6038   */\n      add\n        /* \"#utility.yul\":6023:6038   */\n      swap1\n      pop\n        /* \"#utility.yul\":5999:6112   */\n      jump(tag_185)\n    tag_187:\n        /* \"#utility.yul\":6130:6136   */\n      dup4\n        /* \"#utility.yul\":6127:6128   */\n      dup2\n        /* \"#utility.yul\":6124:6137   */\n      gt\n        /* \"#utility.yul\":6121:6123   */\n      iszero\n      tag_188\n      jumpi\n        /* \"#utility.yul\":6210:6211   */\n      0x00\n        /* \"#utility.yul\":6201:6207   */\n      dup5\n        /* \"#utility.yul\":6196:6199   */\n      dup5\n        /* \"#utility.yul\":6192:6208   */\n      add\n        /* \"#utility.yul\":6185:6212   */\n      mstore\n        /* \"#utility.yul\":6121:6123   */\n    tag_188:\n        /* \"#utility.yul\":5970:6228   */\n      pop\n      pop\n      pop\n      pop\n      jump\t// out\n        /* \"#utility.yul\":6234:6554   */\n    tag_61:\n      0x00\n        /* \"#utility.yul\":6315:6316   */\n      0x02\n        /* \"#utility.yul\":6309:6313   */\n      dup3\n        /* \"#utility.yul\":6305:6317   */\n      div\n        /* \"#utility.yul\":6295:6317   */\n      swap1\n      pop\n        /* \"#utility.yul\":6362:6363   */\n      0x01\n        /* \"#utility.yul\":6356:6360   */\n      dup3\n        /* \"#utility.yul\":6352:6364   */\n      and\n        /* \"#utility.yul\":6383:6401   */\n      dup1\n        /* \"#utility.yul\":6373:6375   */\n      tag_190\n      jumpi\n        /* \"#utility.yul\":6439:6443   */\n      0x7f\n        /* \"#utility.yul\":6431:6437   */\n      dup3\n        /* \"#utility.yul\":6427:6444   */\n      and\n        /* \"#utility.yul\":6417:6444   */\n      swap2\n      pop\n        /* \"#utility.yul\":6373:6375   */\n    tag_190:\n        /* \"#utility.yul\":6501:6503   */\n      0x20\n        /* \"#utility.yul\":6493:6499   */\n      dup3\n        /* \"#utility.yul\":6490:6504   */\n      lt\n        /* \"#utility.yul\":6470:6488   */\n      dup2\n        /* \"#utility.yul\":6467:6505   */\n      eq\n        /* \"#utility.yul\":6464:6466   */\n      iszero\n      tag_191\n      jumpi\n        /* \"#utility.yul\":6520:6538   */\n      tag_192\n      tag_193\n      jump\t// in\n    tag_192:\n        /* \"#utility.yul\":6464:6466   */\n    tag_191:\n        /* \"#utility.yul\":6285:6554   */\n      pop\n      swap2\n      swap1\n      pop\n      jump\t// out\n        /* \"#utility.yul\":6560:6793   */\n    tag_75:\n      0x00\n        /* \"#utility.yul\":6622:6646   */\n      tag_195\n        /* \"#utility.yul\":6640:6645   */\n      dup3\n        /* \"#utility.yul\":6622:6646   */\n      tag_148\n      jump\t// in\n    tag_195:\n        /* \"#utility.yul\":6613:6646   */\n      swap2\n      pop\n        /* \"#utility.yul\":6668:6734   */\n      0xffffffffffffffffffffffffffffffffffffffffffffffffffffffffffffffff\n        /* \"#utility.yul\":6661:6666   */\n      dup3\n        /* \"#utility.yul\":6658:6735   */\n      eq\n        /* \"#utility.yul\":6655:6657   */\n      iszero\n      tag_196\n      jumpi\n        /* \"#utility.yul\":6738:6756   */\n      tag_197\n      tag_198\n      jump\t// in\n    tag_197:\n        /* \"#utility.yul\":6655:6657   */\n    tag_196:\n        /* \"#utility.yul\":6785:6786   */\n      0x01\n        /* \"#utility.yul\":6778:6783   */\n      dup3\n        /* \"#utility.yul\":6774:6787   */\n      add\n        /* \"#utility.yul\":6767:6787   */\n      swap1\n      pop\n        /* \"#utility.yul\":6603:6793   */\n      swap2\n      swap1\n      pop\n      jump\t// out\n        /* \"#utility.yul\":6799:6979   */\n    tag_198:\n        /* \"#utility.yul\":6847:6924   */\n      0x4e487b7100000000000000000000000000000000000000000000000000000000\n        /* \"#utility.yul\":6844:6845   */\n      0x00\n        /* \"#utility.yul\":6837:6925   */\n      mstore\n        /* \"#utility.yul\":6944:6948   */\n      0x11\n        /* \"#utility.yul\":6941:6942   */\n      0x04\n        /* \"#utility.yul\":6934:6949   */\n      mstore\n        /* \"#utility.yul\":6968:6972   */\n      0x24\n        /* \"#utility.yul\":6965:6966   */\n      0x00\n        /* \"#utility.yul\":6958:6973   */\n      revert\n        /* \"#utility.yul\":6985:7165   */\n    tag_174:\n        /* \"#utility.yul\":7033:7110   */\n      0x4e487b7100000000000000000000000000000000000000000000000000000000\n        /* \"#utility.yul\":7030:7031   */\n      0x00\n        /* \"#utility.yul\":7023:7111   */\n      mstore\n        /* \"#utility.yul\":7130:7134   */\n      0x12\n        /* \"#utility.yul\":7127:7128   */\n      0x04\n        /* \"#utility.yul\":7120:7135   */\n      mstore\n        /* \"#utility.yul\":7154:7158   */\n      0x24\n        /* \"#utility.yul\":7151:7152   */\n      0x00\n        /* \"#utility.yul\":7144:7159   */\n      revert\n        /* \"#utility.yul\":7171:7351   */\n    tag_193:\n        /* \"#utility.yul\":7219:7296   */\n      0x4e487b7100000000000000000000000000000000000000000000000000000000\n        /* \"#utility.yul\":7216:7217   */\n      0x00\n        /* \"#utility.yul\":7209:7297   */\n      mstore\n        /* \"#utility.yul\":7316:7320   */\n      0x22\n        /* \"#utility.yul\":7313:7314   */\n      0x04\n        /* \"#utility.yul\":7306:7321   */\n      mstore\n        /* \"#utility.yul\":7340:7344   */\n      0x24\n        /* \"#utility.yul\":7337:7338   */\n      0x00\n        /* \"#utility.yul\":7330:7345   */\n      revert\n        /* \"#utility.yul\":7357:7537   */\n    tag_163:\n        /* \"#utility.yul\":7405:7482   */\n      0x4e487b7100000000000000000000000000000000000000000000000000000000\n        /* \"#utility.yul\":7402:7403   */\n      0x00\n        /* \"#utility.yul\":7395:7483   */\n      mstore\n        /* \"#utility.yul\":7502:7506   */\n      0x41\n        /* \"#utility.yul\":7499:7500   */\n      0x04\n        /* \"#utility.yul\":7492:7507   */\n      mstore\n        /* \"#utility.yul\":7526:7530   */\n      0x24\n        /* \"#utility.yul\":7523:7524   */\n      0x00\n        /* \"#utility.yul\":7516:7531   */\n      revert\n        /* \"#utility.yul\":7543:7645   */\n    tag_144:\n      0x00\n        /* \"#utility.yul\":7635:7637   */\n      0x1f\n        /* \"#utility.yul\":7631:7638   */\n      not\n        /* \"#utility.yul\":7626:7628   */\n      0x1f\n        /* \"#utility.yul\":7619:7624   */\n      dup4\n        /* \"#utility.yul\":7615:7629   */\n      add\n        /* \"#utility.yul\":7611:7639   */\n      and\n        /* \"#utility.yul\":7601:7639   */\n      swap1\n      pop\n        /* \"#utility.yul\":7591:7645   */\n      swap2\n      swap1\n      pop\n      jump\t// out\n        /* \"#utility.yul\":7651:7789   */\n    tag_105:\n        /* \"#utility.yul\":7732:7764   */\n      tag_205\n        /* \"#utility.yul\":7758:7763   */\n      dup2\n        /* \"#utility.yul\":7732:7764   */\n      tag_126\n      jump\t// in\n    tag_205:\n        /* \"#utility.yul\":7725:7730   */\n      dup2\n        /* \"#utility.yul\":7722:7765   */\n      eq\n        /* \"#utility.yul\":7712:7714   */\n      tag_206\n      jumpi\n        /* \"#utility.yul\":7779:7780   */\n      0x00\n        /* \"#utility.yul\":7776:7777   */\n      dup1\n        /* \"#utility.yul\":7769:7781   */\n      revert\n        /* \"#utility.yul\":7712:7714   */\n    tag_206:\n        /* \"#utility.yul\":7702:7789   */\n      pop\n      jump\t// out\n        /* \"#utility.yul\":7795:7917   */\n    tag_113:\n        /* \"#utility.yul\":7868:7892   */\n      tag_208\n        /* \"#utility.yul\":7886:7891   */\n      dup2\n        /* \"#utility.yul\":7868:7892   */\n      tag_148\n      jump\t// in\n    tag_208:\n        /* \"#utility.yul\":7861:7866   */\n      dup2\n        /* \"#utility.yul\":7858:7893   */\n      eq\n        /* \"#utility.yul\":7848:7850   */\n      tag_209\n      jumpi\n        /* \"#utility.yul\":7907:7908   */\n      0x00\n        /* \"#utility.yul\":7904:7905   */\n      dup1\n        /* \"#utility.yul\":7897:7909   */\n      revert\n        /* \"#utility.yul\":7848:7850   */\n    tag_209:\n        /* \"#utility.yul\":7838:7917   */\n      pop\n      jump\t// out\n\n    auxdata: 0xa26469706673582212201f620d4f1a54f12025d5570b5af8d4c2773edeed4985c0219d58c3f73163f56c64736f6c63430008000033\n}\n","bytecode":{"linkReferences":{},"object":"60806040523480156200001157600080fd5b5060405162000f4338038062000f438339818101604052810190620000379190620000b4565b806000806101000a81548173ffffffffffffffffffffffffffffffffffffffff021916908373ffffffffffffffffffffffffffffffffffffffff16021790555081600181905550505062000167565b600081519050620000978162000133565b92915050565b600081519050620000ae816200014d565b92915050565b60008060408385031215620000c857600080fd5b6000620000d8858286016200009d565b9250506020620000eb8582860162000086565b9150509250929050565b6000620001028262000109565b9050919050565b600073ffffffffffffffffffffffffffffffffffffffff82169050919050565b6000819050919050565b6200013e81620000f5565b81146200014a57600080fd5b50565b620001588162000129565b81146200016457600080fd5b50565b610dcc80620001776000396000f3fe60806040526004361061007b5760003560e01c80638a9cfd551161004e5780638a9cfd5514610141578063937e09b11461016a578063d7bb99ba14610195578063d7d1bbdb1461019f5761007b565b80630344100614610080578063481c6a75146100a957806381d12c58146100d457806382fde09314610116575b600080fd5b34801561008c57600080fd5b506100a760048036038101906100a2919061099a565b6101c8565b005b3480156100b557600080fd5b506100be610336565b6040516100cb9190610a38565b60405180910390f35b3480156100e057600080fd5b506100fb60048036038101906100f6919061099a565b61035a565b60405161010d96959493929190610a6e565b60405180910390f35b34801561012257600080fd5b5061012b61045b565b6040516101389190610a53565b60405180910390f35b34801561014d57600080fd5b5061016860048036038101906101639190610933565b610461565b005b34801561017657600080fd5b5061017f6105df565b60405161018c9190610a53565b60405180910390f35b61019d6105e5565b005b3480156101ab57600080fd5b506101c660048036038101906101c1919061099a565b610665565b005b60008054906101000a900473ffffffffffffffffffffffffffffffffffffffff1673ffffffffffffffffffffffffffffffffffffffff163373ffffffffffffffffffffffffffffffffffffffff161461022057600080fd5b60006004828154811061025c577f4e487b7100000000000000000000000000000000000000000000000000000000600052603260045260246000fd5b90600052602060002090600502019050600260035461027b9190610b53565b81600401541161028a57600080fd5b8060030160149054906101000a900460ff16156102a657600080fd5b8060030160009054906101000a900473ffffffffffffffffffffffffffffffffffffffff1673ffffffffffffffffffffffffffffffffffffffff166108fc82600201549081150290604051600060405180830381858888f19350505050158015610314573d6000803e3d6000fd5b5060018160030160146101000a81548160ff0219169083151502179055505050565b60008054906101000a900473ffffffffffffffffffffffffffffffffffffffff1681565b6004818154811061036a57600080fd5b906000526020600020906005020160009150905080600001549080600101805461039390610c20565b80601f01602080910402602001604051908101604052809291908181526020018280546103bf90610c20565b801561040c5780601f106103e15761010080835404028352916020019161040c565b820191906000526020600020905b8154815290600101906020018083116103ef57829003601f168201915b5050505050908060020154908060030160009054906101000a900473ffffffffffffffffffffffffffffffffffffffff16908060030160149054906101000a900460ff16908060040154905086565b60035481565b60008054906101000a900473ffffffffffffffffffffffffffffffffffffffff1673ffffffffffffffffffffffffffffffffffffffff163373ffffffffffffffffffffffffffffffffffffffff16146104b957600080fd5b60006040518060c0016040528060048054905081526020018581526020018481526020018373ffffffffffffffffffffffffffffffffffffffff16815260200160001515815260200160008152509050600481908060018154018082558091505060019003906000526020600020906005020160009091909190915060008201518160000155602082015181600101908051906020019061055b9291906107fe565b506040820151816002015560608201518160030160006101000a81548173ffffffffffffffffffffffffffffffffffffffff021916908373ffffffffffffffffffffffffffffffffffffffff16021790555060808201518160030160146101000a81548160ff02191690831515021790555060a08201518160040155505050505050565b60015481565b60015434116105f357600080fd5b6001600260003373ffffffffffffffffffffffffffffffffffffffff1673ffffffffffffffffffffffffffffffffffffffff16815260200190815260200160002060006101000a81548160ff0219169083151502179055506003600081548092919061065e90610c52565b9190505550565b6000600482815481106106a1577f4e487b7100000000000000000000000000000000000000000000000000000000600052603260045260246000fd5b90600052602060002090600502019050600260003373ffffffffffffffffffffffffffffffffffffffff1673ffffffffffffffffffffffffffffffffffffffff16815260200190815260200160002060009054906101000a900460ff1661070757600080fd5b600560008260000154815260200190815260200160002060003373ffffffffffffffffffffffffffffffffffffffff1673ffffffffffffffffffffffffffffffffffffffff16815260200190815260200160002060009054906101000a900460ff161561077357600080fd5b6001600560008360000154815260200190815260200160002060003373ffffffffffffffffffffffffffffffffffffffff1673ffffffffffffffffffffffffffffffffffffffff16815260200190815260200160002060006101000a81548160ff0219169083151502179055508060040160008154809291906107f590610c52565b91905055505050565b82805461080a90610c20565b90600052602060002090601f01602090048101928261082c5760008555610873565b82601f1061084557805160ff1916838001178555610873565b82800160010185558215610873579182015b82811115610872578251825591602001919060010190610857565b5b5090506108809190610884565b5090565b5b8082111561089d576000816000905550600101610885565b5090565b60006108b46108af84610b07565b610ad6565b9050828152602081018484840111156108cc57600080fd5b6108d7848285610bde565b509392505050565b6000813590506108ee81610d68565b92915050565b600082601f83011261090557600080fd5b81356109158482602086016108a1565b91505092915050565b60008135905061092d81610d7f565b92915050565b60008060006060848603121561094857600080fd5b600084013567ffffffffffffffff81111561096257600080fd5b61096e868287016108f4565b935050602061097f8682870161091e565b9250506040610990868287016108df565b9150509250925092565b6000602082840312156109ac57600080fd5b60006109ba8482850161091e565b91505092915050565b6109cc81610b96565b82525050565b6109db81610b84565b82525050565b6109ea81610ba8565b82525050565b60006109fb82610b37565b610a058185610b42565b9350610a15818560208601610bed565b610a1e81610d57565b840191505092915050565b610a3281610bd4565b82525050565b6000602082019050610a4d60008301846109d2565b92915050565b6000602082019050610a686000830184610a29565b92915050565b600060c082019050610a836000830189610a29565b8181036020830152610a9581886109f0565b9050610aa46040830187610a29565b610ab160608301866109c3565b610abe60808301856109e1565b610acb60a0830184610a29565b979650505050505050565b6000604051905081810181811067ffffffffffffffff82111715610afd57610afc610d28565b5b8060405250919050565b600067ffffffffffffffff821115610b2257610b21610d28565b5b601f19601f8301169050602081019050919050565b600081519050919050565b600082825260208201905092915050565b6000610b5e82610bd4565b9150610b6983610bd4565b925082610b7957610b78610cca565b5b828204905092915050565b6000610b8f82610bb4565b9050919050565b6000610ba182610bb4565b9050919050565b60008115159050919050565b600073ffffffffffffffffffffffffffffffffffffffff82169050919050565b6000819050919050565b82818337600083830152505050565b60005b83811015610c0b578082015181840152602081019050610bf0565b83811115610c1a576000848401525b50505050565b60006002820490506001821680610c3857607f821691505b60208210811415610c4c57610c4b610cf9565b5b50919050565b6000610c5d82610bd4565b91507fffffffffffffffffffffffffffffffffffffffffffffffffffffffffffffffff821415610c9057610c8f610c9b565b5b600182019050919050565b7f4e487b7100000000000000000000000000000000000000000000000000000000600052601160045260246000fd5b7f4e487b7100000000000000000000000000000000000000000000000000000000600052601260045260246000fd5b7f4e487b7100000000000000000000000000000000000000000000000000000000600052602260045260246000fd5b7f4e487b7100000000000000000000000000000000000000000000000000000000600052604160045260246000fd5b6000601f19601f8301169050919050565b610d7181610b96565b8114610d7c57600080fd5b50565b610d8881610bd4565b8114610d9357600080fd5b5056fea26469706673582212201f620d4f1a54f12025d5570b5af8d4c2773edeed4985c0219d58c3f73163f56c64736f6c63430008000033","opcodes":"PUSH1 0x80 PUSH1 0x40 MSTORE CALLVALUE DUP1 ISZERO PUSH3 0x11 JUMPI PUSH1 0x0 DUP1 REVERT JUMPDEST POP PUSH1 0x40 MLOAD PUSH3 0xF43 CODESIZE SUB DUP1 PUSH3 0xF43 DUP4 CODECOPY DUP2 DUP2 ADD PUSH1 0x40 MSTORE DUP2 ADD SWAP1 PUSH3 0x37 SWAP2 SWAP1 PUSH3 0xB4 JUMP JUMPDEST DUP1 PUSH1 0x0 DUP1 PUSH2 0x100 EXP DUP2 SLOAD DUP2 PUSH20 0xFFFFFFFFFFFFFFFFFFFFFFFFFFFFFFFFFFFFFFFF MUL NOT AND SWAP1 DUP4 PUSH20 0xFFFFFFFFFFFFFFFFFFFFFFFFFFFFFFFFFFFFFFFF AND MUL OR SWAP1 SSTORE POP DUP2 PUSH1 0x1 DUP2 SWAP1 SSTORE POP POP POP PUSH3 0x167 JUMP JUMPDEST PUSH1 0x0 DUP2 MLOAD SWAP1 POP PUSH3 0x97 DUP2 PUSH3 0x133 JUMP JUMPDEST SWAP3 SWAP2 POP POP JUMP JUMPDEST PUSH1 0x0 DUP2 MLOAD SWAP1 POP PUSH3 0xAE DUP2 PUSH3 0x14D JUMP JUMPDEST SWAP3 SWAP2 POP POP JUMP JUMPDEST PUSH1 0x0 DUP1 PUSH1 0x40 DUP4 DUP6 SUB SLT ISZERO PUSH3 0xC8 JUMPI PUSH1 0x0 DUP1 REVERT JUMPDEST PUSH1 0x0 PUSH3 0xD8 DUP6 DUP3 DUP7 ADD PUSH3 0x9D JUMP JUMPDEST SWAP3 POP POP PUSH1 0x20 PUSH3 0xEB DUP6 DUP3 DUP7 ADD PUSH3 0x86 JUMP JUMPDEST SWAP2 POP POP SWAP3 POP SWAP3 SWAP1 POP JUMP JUMPDEST PUSH1 0x0 PUSH3 0x102 DUP3 PUSH3 0x109 JUMP JUMPDEST SWAP1 POP SWAP2 SWAP1 POP JUMP JUMPDEST PUSH1 0x0 PUSH20 0xFFFFFFFFFFFFFFFFFFFFFFFFFFFFFFFFFFFFFFFF DUP3 AND SWAP1 POP SWAP2 SWAP1 POP JUMP JUMPDEST PUSH1 0x0 DUP2 SWAP1 POP SWAP2 SWAP1 POP JUMP JUMPDEST PUSH3 0x13E DUP2 PUSH3 0xF5 JUMP JUMPDEST DUP2 EQ PUSH3 0x14A JUMPI PUSH1 0x0 DUP1 REVERT JUMPDEST POP JUMP JUMPDEST PUSH3 0x158 DUP2 PUSH3 0x129 JUMP JUMPDEST DUP2 EQ PUSH3 0x164 JUMPI PUSH1 0x0 DUP1 REVERT JUMPDEST POP JUMP JUMPDEST PUSH2 0xDCC DUP1 PUSH3 0x177 PUSH1 0x0 CODECOPY PUSH1 0x0 RETURN INVALID PUSH1 0x80 PUSH1 0x40 MSTORE PUSH1 0x4 CALLDATASIZE LT PUSH2 0x7B JUMPI PUSH1 0x0 CALLDATALOAD PUSH1 0xE0 SHR DUP1 PUSH4 0x8A9CFD55 GT PUSH2 0x4E JUMPI DUP1 PUSH4 0x8A9CFD55 EQ PUSH2 0x141 JUMPI DUP1 PUSH4 0x937E09B1 EQ PUSH2 0x16A JUMPI DUP1 PUSH4 0xD7BB99BA EQ PUSH2 0x195 JUMPI DUP1 PUSH4 0xD7D1BBDB EQ PUSH2 0x19F JUMPI PUSH2 0x7B JUMP JUMPDEST DUP1 PUSH4 0x3441006 EQ PUSH2 0x80 JUMPI DUP1 PUSH4 0x481C6A75 EQ PUSH2 0xA9 JUMPI DUP1 PUSH4 0x81D12C58 EQ PUSH2 0xD4 JUMPI DUP1 PUSH4 0x82FDE093 EQ PUSH2 0x116 JUMPI JUMPDEST PUSH1 0x0 DUP1 REVERT JUMPDEST CALLVALUE DUP1 ISZERO PUSH2 0x8C JUMPI PUSH1 0x0 DUP1 REVERT JUMPDEST POP PUSH2 0xA7 PUSH1 0x4 DUP1 CALLDATASIZE SUB DUP2 ADD SWAP1 PUSH2 0xA2 SWAP2 SWAP1 PUSH2 0x99A JUMP JUMPDEST PUSH2 0x1C8 JUMP JUMPDEST STOP JUMPDEST CALLVALUE DUP1 ISZERO PUSH2 0xB5 JUMPI PUSH1 0x0 DUP1 REVERT JUMPDEST POP PUSH2 0xBE PUSH2 0x336 JUMP JUMPDEST PUSH1 0x40 MLOAD PUSH2 0xCB SWAP2 SWAP1 PUSH2 0xA38 JUMP JUMPDEST PUSH1 0x40 MLOAD DUP1 SWAP2 SUB SWAP1 RETURN JUMPDEST CALLVALUE DUP1 ISZERO PUSH2 0xE0 JUMPI PUSH1 0x0 DUP1 REVERT JUMPDEST POP PUSH2 0xFB PUSH1 0x4 DUP1 CALLDATASIZE SUB DUP2 ADD SWAP1 PUSH2 0xF6 SWAP2 SWAP1 PUSH2 0x99A JUMP JUMPDEST PUSH2 0x35A JUMP JUMPDEST PUSH1 0x40 MLOAD PUSH2 0x10D SWAP7 SWAP6 SWAP5 SWAP4 SWAP3 SWAP2 SWAP1 PUSH2 0xA6E JUMP JUMPDEST PUSH1 0x40 MLOAD DUP1 SWAP2 SUB SWAP1 RETURN JUMPDEST CALLVALUE DUP1 ISZERO PUSH2 0x122 JUMPI PUSH1 0x0 DUP1 REVERT JUMPDEST POP PUSH2 0x12B PUSH2 0x45B JUMP JUMPDEST PUSH1 0x40 MLOAD PUSH2 0x138 SWAP2 SWAP1 PUSH2 0xA53 JUMP JUMPDEST PUSH1 0x40 MLOAD DUP1 SWAP2 SUB SWAP1 RETURN JUMPDEST CALLVALUE DUP1 ISZERO PUSH2 0x14D JUMPI PUSH1 0x0 DUP1 REVERT JUMPDEST POP PUSH2 0x168 PUSH1 0x4 DUP1 CALLDATASIZE SUB DUP2 ADD SWAP1 PUSH2 0x163 SWAP2 SWAP1 PUSH2 0x933 JUMP JUMPDEST PUSH2 0x461 JUMP JUMPDEST STOP JUMPDEST CALLVALUE DUP1 ISZERO PUSH2 0x176 JUMPI PUSH1 0x0 DUP1 REVERT JUMPDEST POP PUSH2 0x17F PUSH2 0x5DF JUMP JUMPDEST PUSH1 0x40 MLOAD PUSH2 0x18C SWAP2 SWAP1 PUSH2 0xA53 JUMP JUMPDEST PUSH1 0x40 MLOAD DUP1 SWAP2 SUB SWAP1 RETURN JUMPDEST PUSH2 0x19D PUSH2 0x5E5 JUMP JUMPDEST STOP JUMPDEST CALLVALUE DUP1 ISZERO PUSH2 0x1AB JUMPI PUSH1 0x0 DUP1 REVERT JUMPDEST POP PUSH2 0x1C6 PUSH1 0x4 DUP1 CALLDATASIZE SUB DUP2 ADD SWAP1 PUSH2 0x1C1 SWAP2 SWAP1 PUSH2 0x99A JUMP JUMPDEST PUSH2 0x665 JUMP JUMPDEST STOP JUMPDEST PUSH1 0x0 DUP1 SLOAD SWAP1 PUSH2 0x100 EXP SWAP1 DIV PUSH20 0xFFFFFFFFFFFFFFFFFFFFFFFFFFFFFFFFFFFFFFFF AND PUSH20 0xFFFFFFFFFFFFFFFFFFFFFFFFFFFFFFFFFFFFFFFF AND CALLER PUSH20 0xFFFFFFFFFFFFFFFFFFFFFFFFFFFFFFFFFFFFFFFF AND EQ PUSH2 0x220 JUMPI PUSH1 0x0 DUP1 REVERT JUMPDEST PUSH1 0x0 PUSH1 0x4 DUP3 DUP2 SLOAD DUP2 LT PUSH2 0x25C JUMPI PUSH32 0x4E487B7100000000000000000000000000000000000000000000000000000000 PUSH1 0x0 MSTORE PUSH1 0x32 PUSH1 0x4 MSTORE PUSH1 0x24 PUSH1 0x0 REVERT JUMPDEST SWAP1 PUSH1 0x0 MSTORE PUSH1 0x20 PUSH1 0x0 KECCAK256 SWAP1 PUSH1 0x5 MUL ADD SWAP1 POP PUSH1 0x2 PUSH1 0x3 SLOAD PUSH2 0x27B SWAP2 SWAP1 PUSH2 0xB53 JUMP JUMPDEST DUP2 PUSH1 0x4 ADD SLOAD GT PUSH2 0x28A JUMPI PUSH1 0x0 DUP1 REVERT JUMPDEST DUP1 PUSH1 0x3 ADD PUSH1 0x14 SWAP1 SLOAD SWAP1 PUSH2 0x100 EXP SWAP1 DIV PUSH1 0xFF AND ISZERO PUSH2 0x2A6 JUMPI PUSH1 0x0 DUP1 REVERT JUMPDEST DUP1 PUSH1 0x3 ADD PUSH1 0x0 SWAP1 SLOAD SWAP1 PUSH2 0x100 EXP SWAP1 DIV PUSH20 0xFFFFFFFFFFFFFFFFFFFFFFFFFFFFFFFFFFFFFFFF AND PUSH20 0xFFFFFFFFFFFFFFFFFFFFFFFFFFFFFFFFFFFFFFFF AND PUSH2 0x8FC DUP3 PUSH1 0x2 ADD SLOAD SWAP1 DUP2 ISZERO MUL SWAP1 PUSH1 0x40 MLOAD PUSH1 0x0 PUSH1 0x40 MLOAD DUP1 DUP4 SUB DUP2 DUP6 DUP9 DUP9 CALL SWAP4 POP POP POP POP ISZERO DUP1 ISZERO PUSH2 0x314 JUMPI RETURNDATASIZE PUSH1 0x0 DUP1 RETURNDATACOPY RETURNDATASIZE PUSH1 0x0 REVERT JUMPDEST POP PUSH1 0x1 DUP2 PUSH1 0x3 ADD PUSH1 0x14 PUSH2 0x100 EXP DUP2 SLOAD DUP2 PUSH1 0xFF MUL NOT AND SWAP1 DUP4 ISZERO ISZERO MUL OR SWAP1 SSTORE POP POP POP JUMP JUMPDEST PUSH1 0x0 DUP1 SLOAD SWAP1 PUSH2 0x100 EXP SWAP1 DIV PUSH20 0xFFFFFFFFFFFFFFFFFFFFFFFFFFFFFFFFFFFFFFFF AND DUP2 JUMP JUMPDEST PUSH1 0x4 DUP2 DUP2 SLOAD DUP2 LT PUSH2 0x36A JUMPI PUSH1 0x0 DUP1 REVERT JUMPDEST SWAP1 PUSH1 0x0 MSTORE PUSH1 0x20 PUSH1 0x0 KECCAK256 SWAP1 PUSH1 0x5 MUL ADD PUSH1 0x0 SWAP2 POP SWAP1 POP DUP1 PUSH1 0x0 ADD SLOAD SWAP1 DUP1 PUSH1 0x1 ADD DUP1 SLOAD PUSH2 0x393 SWAP1 PUSH2 0xC20 JUMP JUMPDEST DUP1 PUSH1 0x1F ADD PUSH1 0x20 DUP1 SWAP2 DIV MUL PUSH1 0x20 ADD PUSH1 0x40 MLOAD SWAP1 DUP2 ADD PUSH1 0x40 MSTORE DUP1 SWAP3 SWAP2 SWAP1 DUP2 DUP2 MSTORE PUSH1 0x20 ADD DUP3 DUP1 SLOAD PUSH2 0x3BF SWAP1 PUSH2 0xC20 JUMP JUMPDEST DUP1 ISZERO PUSH2 0x40C JUMPI DUP1 PUSH1 0x1F LT PUSH2 0x3E1 JUMPI PUSH2 0x100 DUP1 DUP4 SLOAD DIV MUL DUP4 MSTORE SWAP2 PUSH1 0x20 ADD SWAP2 PUSH2 0x40C JUMP JUMPDEST DUP3 ADD SWAP2 SWAP1 PUSH1 0x0 MSTORE PUSH1 0x20 PUSH1 0x0 KECCAK256 SWAP1 JUMPDEST DUP2 SLOAD DUP2 MSTORE SWAP1 PUSH1 0x1 ADD SWAP1 PUSH1 0x20 ADD DUP1 DUP4 GT PUSH2 0x3EF JUMPI DUP3 SWAP1 SUB PUSH1 0x1F AND DUP3 ADD SWAP2 JUMPDEST POP POP POP POP POP SWAP1 DUP1 PUSH1 0x2 ADD SLOAD SWAP1 DUP1 PUSH1 0x3 ADD PUSH1 0x0 SWAP1 SLOAD SWAP1 PUSH2 0x100 EXP SWAP1 DIV PUSH20 0xFFFFFFFFFFFFFFFFFFFFFFFFFFFFFFFFFFFFFFFF AND SWAP1 DUP1 PUSH1 0x3 ADD PUSH1 0x14 SWAP1 SLOAD SWAP1 PUSH2 0x100 EXP SWAP1 DIV PUSH1 0xFF AND SWAP1 DUP1 PUSH1 0x4 ADD SLOAD SWAP1 POP DUP7 JUMP JUMPDEST PUSH1 0x3 SLOAD DUP2 JUMP JUMPDEST PUSH1 0x0 DUP1 SLOAD SWAP1 PUSH2 0x100 EXP SWAP1 DIV PUSH20 0xFFFFFFFFFFFFFFFFFFFFFFFFFFFFFFFFFFFFFFFF AND PUSH20 0xFFFFFFFFFFFFFFFFFFFFFFFFFFFFFFFFFFFFFFFF AND CALLER PUSH20 0xFFFFFFFFFFFFFFFFFFFFFFFFFFFFFFFFFFFFFFFF AND EQ PUSH2 0x4B9 JUMPI PUSH1 0x0 DUP1 REVERT JUMPDEST PUSH1 0x0 PUSH1 0x40 MLOAD DUP1 PUSH1 0xC0 ADD PUSH1 0x40 MSTORE DUP1 PUSH1 0x4 DUP1 SLOAD SWAP1 POP DUP2 MSTORE PUSH1 0x20 ADD DUP6 DUP2 MSTORE PUSH1 0x20 ADD DUP5 DUP2 MSTORE PUSH1 0x20 ADD DUP4 PUSH20 0xFFFFFFFFFFFFFFFFFFFFFFFFFFFFFFFFFFFFFFFF AND DUP2 MSTORE PUSH1 0x20 ADD PUSH1 0x0 ISZERO ISZERO DUP2 MSTORE PUSH1 0x20 ADD PUSH1 0x0 DUP2 MSTORE POP SWAP1 POP PUSH1 0x4 DUP2 SWAP1 DUP1 PUSH1 0x1 DUP2 SLOAD ADD DUP1 DUP3 SSTORE DUP1 SWAP2 POP POP PUSH1 0x1 SWAP1 SUB SWAP1 PUSH1 0x0 MSTORE PUSH1 0x20 PUSH1 0x0 KECCAK256 SWAP1 PUSH1 0x5 MUL ADD PUSH1 0x0 SWAP1 SWAP2 SWAP1 SWAP2 SWAP1 SWAP2 POP PUSH1 0x0 DUP3 ADD MLOAD DUP2 PUSH1 0x0 ADD SSTORE PUSH1 0x20 DUP3 ADD MLOAD DUP2 PUSH1 0x1 ADD SWAP1 DUP1 MLOAD SWAP1 PUSH1 0x20 ADD SWAP1 PUSH2 0x55B SWAP3 SWAP2 SWAP1 PUSH2 0x7FE JUMP JUMPDEST POP PUSH1 0x40 DUP3 ADD MLOAD DUP2 PUSH1 0x2 ADD SSTORE PUSH1 0x60 DUP3 ADD MLOAD DUP2 PUSH1 0x3 ADD PUSH1 0x0 PUSH2 0x100 EXP DUP2 SLOAD DUP2 PUSH20 0xFFFFFFFFFFFFFFFFFFFFFFFFFFFFFFFFFFFFFFFF MUL NOT AND SWAP1 DUP4 PUSH20 0xFFFFFFFFFFFFFFFFFFFFFFFFFFFFFFFFFFFFFFFF AND MUL OR SWAP1 SSTORE POP PUSH1 0x80 DUP3 ADD MLOAD DUP2 PUSH1 0x3 ADD PUSH1 0x14 PUSH2 0x100 EXP DUP2 SLOAD DUP2 PUSH1 0xFF MUL NOT AND SWAP1 DUP4 ISZERO ISZERO MUL OR SWAP1 SSTORE POP PUSH1 0xA0 DUP3 ADD MLOAD DUP2 PUSH1 0x4 ADD SSTORE POP POP POP POP POP POP JUMP JUMPDEST PUSH1 0x1 SLOAD DUP2 JUMP JUMPDEST PUSH1 0x1 SLOAD CALLVALUE GT PUSH2 0x5F3 JUMPI PUSH1 0x0 DUP1 REVERT JUMPDEST PUSH1 0x1 PUSH1 0x2 PUSH1 0x0 CALLER PUSH20 0xFFFFFFFFFFFFFFFFFFFFFFFFFFFFFFFFFFFFFFFF AND PUSH20 0xFFFFFFFFFFFFFFFFFFFFFFFFFFFFFFFFFFFFFFFF AND DUP2 MSTORE PUSH1 0x20 ADD SWAP1 DUP2 MSTORE PUSH1 0x20 ADD PUSH1 0x0 KECCAK256 PUSH1 0x0 PUSH2 0x100 EXP DUP2 SLOAD DUP2 PUSH1 0xFF MUL NOT AND SWAP1 DUP4 ISZERO ISZERO MUL OR SWAP1 SSTORE POP PUSH1 0x3 PUSH1 0x0 DUP2 SLOAD DUP1 SWAP3 SWAP2 SWAP1 PUSH2 0x65E SWAP1 PUSH2 0xC52 JUMP JUMPDEST SWAP2 SWAP1 POP SSTORE POP JUMP JUMPDEST PUSH1 0x0 PUSH1 0x4 DUP3 DUP2 SLOAD DUP2 LT PUSH2 0x6A1 JUMPI PUSH32 0x4E487B7100000000000000000000000000000000000000000000000000000000 PUSH1 0x0 MSTORE PUSH1 0x32 PUSH1 0x4 MSTORE PUSH1 0x24 PUSH1 0x0 REVERT JUMPDEST SWAP1 PUSH1 0x0 MSTORE PUSH1 0x20 PUSH1 0x0 KECCAK256 SWAP1 PUSH1 0x5 MUL ADD SWAP1 POP PUSH1 0x2 PUSH1 0x0 CALLER PUSH20 0xFFFFFFFFFFFFFFFFFFFFFFFFFFFFFFFFFFFFFFFF AND PUSH20 0xFFFFFFFFFFFFFFFFFFFFFFFFFFFFFFFFFFFFFFFF AND DUP2 MSTORE PUSH1 0x20 ADD SWAP1 DUP2 MSTORE PUSH1 0x20 ADD PUSH1 0x0 KECCAK256 PUSH1 0x0 SWAP1 SLOAD SWAP1 PUSH2 0x100 EXP SWAP1 DIV PUSH1 0xFF AND PUSH2 0x707 JUMPI PUSH1 0x0 DUP1 REVERT JUMPDEST PUSH1 0x5 PUSH1 0x0 DUP3 PUSH1 0x0 ADD SLOAD DUP2 MSTORE PUSH1 0x20 ADD SWAP1 DUP2 MSTORE PUSH1 0x20 ADD PUSH1 0x0 KECCAK256 PUSH1 0x0 CALLER PUSH20 0xFFFFFFFFFFFFFFFFFFFFFFFFFFFFFFFFFFFFFFFF AND PUSH20 0xFFFFFFFFFFFFFFFFFFFFFFFFFFFFFFFFFFFFFFFF AND DUP2 MSTORE PUSH1 0x20 ADD SWAP1 DUP2 MSTORE PUSH1 0x20 ADD PUSH1 0x0 KECCAK256 PUSH1 0x0 SWAP1 SLOAD SWAP1 PUSH2 0x100 EXP SWAP1 DIV PUSH1 0xFF AND ISZERO PUSH2 0x773 JUMPI PUSH1 0x0 DUP1 REVERT JUMPDEST PUSH1 0x1 PUSH1 0x5 PUSH1 0x0 DUP4 PUSH1 0x0 ADD SLOAD DUP2 MSTORE PUSH1 0x20 ADD SWAP1 DUP2 MSTORE PUSH1 0x20 ADD PUSH1 0x0 KECCAK256 PUSH1 0x0 CALLER PUSH20 0xFFFFFFFFFFFFFFFFFFFFFFFFFFFFFFFFFFFFFFFF AND PUSH20 0xFFFFFFFFFFFFFFFFFFFFFFFFFFFFFFFFFFFFFFFF AND DUP2 MSTORE PUSH1 0x20 ADD SWAP1 DUP2 MSTORE PUSH1 0x20 ADD PUSH1 0x0 KECCAK256 PUSH1 0x0 PUSH2 0x100 EXP DUP2 SLOAD DUP2 PUSH1 0xFF MUL NOT AND SWAP1 DUP4 ISZERO ISZERO MUL OR SWAP1 SSTORE POP DUP1 PUSH1 0x4 ADD PUSH1 0x0 DUP2 SLOAD DUP1 SWAP3 SWAP2 SWAP1 PUSH2 0x7F5 SWAP1 PUSH2 0xC52 JUMP JUMPDEST SWAP2 SWAP1 POP SSTORE POP POP POP JUMP JUMPDEST DUP3 DUP1 SLOAD PUSH2 0x80A SWAP1 PUSH2 0xC20 JUMP JUMPDEST SWAP1 PUSH1 0x0 MSTORE PUSH1 0x20 PUSH1 0x0 KECCAK256 SWAP1 PUSH1 0x1F ADD PUSH1 0x20 SWAP1 DIV DUP2 ADD SWAP3 DUP3 PUSH2 0x82C JUMPI PUSH1 0x0 DUP6 SSTORE PUSH2 0x873 JUMP JUMPDEST DUP3 PUSH1 0x1F LT PUSH2 0x845 JUMPI DUP1 MLOAD PUSH1 0xFF NOT AND DUP4 DUP1 ADD OR DUP6 SSTORE PUSH2 0x873 JUMP JUMPDEST DUP3 DUP1 ADD PUSH1 0x1 ADD DUP6 SSTORE DUP3 ISZERO PUSH2 0x873 JUMPI SWAP2 DUP3 ADD JUMPDEST DUP3 DUP2 GT ISZERO PUSH2 0x872 JUMPI DUP3 MLOAD DUP3 SSTORE SWAP2 PUSH1 0x20 ADD SWAP2 SWAP1 PUSH1 0x1 ADD SWAP1 PUSH2 0x857 JUMP JUMPDEST JUMPDEST POP SWAP1 POP PUSH2 0x880 SWAP2 SWAP1 PUSH2 0x884 JUMP JUMPDEST POP SWAP1 JUMP JUMPDEST JUMPDEST DUP1 DUP3 GT ISZERO PUSH2 0x89D JUMPI PUSH1 0x0 DUP2 PUSH1 0x0 SWAP1 SSTORE POP PUSH1 0x1 ADD PUSH2 0x885 JUMP JUMPDEST POP SWAP1 JUMP JUMPDEST PUSH1 0x0 PUSH2 0x8B4 PUSH2 0x8AF DUP5 PUSH2 0xB07 JUMP JUMPDEST PUSH2 0xAD6 JUMP JUMPDEST SWAP1 POP DUP3 DUP2 MSTORE PUSH1 0x20 DUP2 ADD DUP5 DUP5 DUP5 ADD GT ISZERO PUSH2 0x8CC JUMPI PUSH1 0x0 DUP1 REVERT JUMPDEST PUSH2 0x8D7 DUP5 DUP3 DUP6 PUSH2 0xBDE JUMP JUMPDEST POP SWAP4 SWAP3 POP POP POP JUMP JUMPDEST PUSH1 0x0 DUP2 CALLDATALOAD SWAP1 POP PUSH2 0x8EE DUP2 PUSH2 0xD68 JUMP JUMPDEST SWAP3 SWAP2 POP POP JUMP JUMPDEST PUSH1 0x0 DUP3 PUSH1 0x1F DUP4 ADD SLT PUSH2 0x905 JUMPI PUSH1 0x0 DUP1 REVERT JUMPDEST DUP2 CALLDATALOAD PUSH2 0x915 DUP5 DUP3 PUSH1 0x20 DUP7 ADD PUSH2 0x8A1 JUMP JUMPDEST SWAP2 POP POP SWAP3 SWAP2 POP POP JUMP JUMPDEST PUSH1 0x0 DUP2 CALLDATALOAD SWAP1 POP PUSH2 0x92D DUP2 PUSH2 0xD7F JUMP JUMPDEST SWAP3 SWAP2 POP POP JUMP JUMPDEST PUSH1 0x0 DUP1 PUSH1 0x0 PUSH1 0x60 DUP5 DUP7 SUB SLT ISZERO PUSH2 0x948 JUMPI PUSH1 0x0 DUP1 REVERT JUMPDEST PUSH1 0x0 DUP5 ADD CALLDATALOAD PUSH8 0xFFFFFFFFFFFFFFFF DUP2 GT ISZERO PUSH2 0x962 JUMPI PUSH1 0x0 DUP1 REVERT JUMPDEST PUSH2 0x96E DUP7 DUP3 DUP8 ADD PUSH2 0x8F4 JUMP JUMPDEST SWAP4 POP POP PUSH1 0x20 PUSH2 0x97F DUP7 DUP3 DUP8 ADD PUSH2 0x91E JUMP JUMPDEST SWAP3 POP POP PUSH1 0x40 PUSH2 0x990 DUP7 DUP3 DUP8 ADD PUSH2 0x8DF JUMP JUMPDEST SWAP2 POP POP SWAP3 POP SWAP3 POP SWAP3 JUMP JUMPDEST PUSH1 0x0 PUSH1 0x20 DUP3 DUP5 SUB SLT ISZERO PUSH2 0x9AC JUMPI PUSH1 0x0 DUP1 REVERT JUMPDEST PUSH1 0x0 PUSH2 0x9BA DUP5 DUP3 DUP6 ADD PUSH2 0x91E JUMP JUMPDEST SWAP2 POP POP SWAP3 SWAP2 POP POP JUMP JUMPDEST PUSH2 0x9CC DUP2 PUSH2 0xB96 JUMP JUMPDEST DUP3 MSTORE POP POP JUMP JUMPDEST PUSH2 0x9DB DUP2 PUSH2 0xB84 JUMP JUMPDEST DUP3 MSTORE POP POP JUMP JUMPDEST PUSH2 0x9EA DUP2 PUSH2 0xBA8 JUMP JUMPDEST DUP3 MSTORE POP POP JUMP JUMPDEST PUSH1 0x0 PUSH2 0x9FB DUP3 PUSH2 0xB37 JUMP JUMPDEST PUSH2 0xA05 DUP2 DUP6 PUSH2 0xB42 JUMP JUMPDEST SWAP4 POP PUSH2 0xA15 DUP2 DUP6 PUSH1 0x20 DUP7 ADD PUSH2 0xBED JUMP JUMPDEST PUSH2 0xA1E DUP2 PUSH2 0xD57 JUMP JUMPDEST DUP5 ADD SWAP2 POP POP SWAP3 SWAP2 POP POP JUMP JUMPDEST PUSH2 0xA32 DUP2 PUSH2 0xBD4 JUMP JUMPDEST DUP3 MSTORE POP POP JUMP JUMPDEST PUSH1 0x0 PUSH1 0x20 DUP3 ADD SWAP1 POP PUSH2 0xA4D PUSH1 0x0 DUP4 ADD DUP5 PUSH2 0x9D2 JUMP JUMPDEST SWAP3 SWAP2 POP POP JUMP JUMPDEST PUSH1 0x0 PUSH1 0x20 DUP3 ADD SWAP1 POP PUSH2 0xA68 PUSH1 0x0 DUP4 ADD DUP5 PUSH2 0xA29 JUMP JUMPDEST SWAP3 SWAP2 POP POP JUMP JUMPDEST PUSH1 0x0 PUSH1 0xC0 DUP3 ADD SWAP1 POP PUSH2 0xA83 PUSH1 0x0 DUP4 ADD DUP10 PUSH2 0xA29 JUMP JUMPDEST DUP2 DUP2 SUB PUSH1 0x20 DUP4 ADD MSTORE PUSH2 0xA95 DUP2 DUP9 PUSH2 0x9F0 JUMP JUMPDEST SWAP1 POP PUSH2 0xAA4 PUSH1 0x40 DUP4 ADD DUP8 PUSH2 0xA29 JUMP JUMPDEST PUSH2 0xAB1 PUSH1 0x60 DUP4 ADD DUP7 PUSH2 0x9C3 JUMP JUMPDEST PUSH2 0xABE PUSH1 0x80 DUP4 ADD DUP6 PUSH2 0x9E1 JUMP JUMPDEST PUSH2 0xACB PUSH1 0xA0 DUP4 ADD DUP5 PUSH2 0xA29 JUMP JUMPDEST SWAP8 SWAP7 POP POP POP POP POP POP POP JUMP JUMPDEST PUSH1 0x0 PUSH1 0x40 MLOAD SWAP1 POP DUP2 DUP2 ADD DUP2 DUP2 LT PUSH8 0xFFFFFFFFFFFFFFFF DUP3 GT OR ISZERO PUSH2 0xAFD JUMPI PUSH2 0xAFC PUSH2 0xD28 JUMP JUMPDEST JUMPDEST DUP1 PUSH1 0x40 MSTORE POP SWAP2 SWAP1 POP JUMP JUMPDEST PUSH1 0x0 PUSH8 0xFFFFFFFFFFFFFFFF DUP3 GT ISZERO PUSH2 0xB22 JUMPI PUSH2 0xB21 PUSH2 0xD28 JUMP JUMPDEST JUMPDEST PUSH1 0x1F NOT PUSH1 0x1F DUP4 ADD AND SWAP1 POP PUSH1 0x20 DUP2 ADD SWAP1 POP SWAP2 SWAP1 POP JUMP JUMPDEST PUSH1 0x0 DUP2 MLOAD SWAP1 POP SWAP2 SWAP1 POP JUMP JUMPDEST PUSH1 0x0 DUP3 DUP3 MSTORE PUSH1 0x20 DUP3 ADD SWAP1 POP SWAP3 SWAP2 POP POP JUMP JUMPDEST PUSH1 0x0 PUSH2 0xB5E DUP3 PUSH2 0xBD4 JUMP JUMPDEST SWAP2 POP PUSH2 0xB69 DUP4 PUSH2 0xBD4 JUMP JUMPDEST SWAP3 POP DUP3 PUSH2 0xB79 JUMPI PUSH2 0xB78 PUSH2 0xCCA JUMP JUMPDEST JUMPDEST DUP3 DUP3 DIV SWAP1 POP SWAP3 SWAP2 POP POP JUMP JUMPDEST PUSH1 0x0 PUSH2 0xB8F DUP3 PUSH2 0xBB4 JUMP JUMPDEST SWAP1 POP SWAP2 SWAP1 POP JUMP JUMPDEST PUSH1 0x0 PUSH2 0xBA1 DUP3 PUSH2 0xBB4 JUMP JUMPDEST SWAP1 POP SWAP2 SWAP1 POP JUMP JUMPDEST PUSH1 0x0 DUP2 ISZERO ISZERO SWAP1 POP SWAP2 SWAP1 POP JUMP JUMPDEST PUSH1 0x0 PUSH20 0xFFFFFFFFFFFFFFFFFFFFFFFFFFFFFFFFFFFFFFFF DUP3 AND SWAP1 POP SWAP2 SWAP1 POP JUMP JUMPDEST PUSH1 0x0 DUP2 SWAP1 POP SWAP2 SWAP1 POP JUMP JUMPDEST DUP3 DUP2 DUP4 CALLDATACOPY PUSH1 0x0 DUP4 DUP4 ADD MSTORE POP POP POP JUMP JUMPDEST PUSH1 0x0 JUMPDEST DUP4 DUP2 LT ISZERO PUSH2 0xC0B JUMPI DUP1 DUP3 ADD MLOAD DUP2 DUP5 ADD MSTORE PUSH1 0x20 DUP2 ADD SWAP1 POP PUSH2 0xBF0 JUMP JUMPDEST DUP4 DUP2 GT ISZERO PUSH2 0xC1A JUMPI PUSH1 0x0 DUP5 DUP5 ADD MSTORE JUMPDEST POP POP POP POP JUMP JUMPDEST PUSH1 0x0 PUSH1 0x2 DUP3 DIV SWAP1 POP PUSH1 0x1 DUP3 AND DUP1 PUSH2 0xC38 JUMPI PUSH1 0x7F DUP3 AND SWAP2 POP JUMPDEST PUSH1 0x20 DUP3 LT DUP2 EQ ISZERO PUSH2 0xC4C JUMPI PUSH2 0xC4B PUSH2 0xCF9 JUMP JUMPDEST JUMPDEST POP SWAP2 SWAP1 POP JUMP JUMPDEST PUSH1 0x0 PUSH2 0xC5D DUP3 PUSH2 0xBD4 JUMP JUMPDEST SWAP2 POP PUSH32 0xFFFFFFFFFFFFFFFFFFFFFFFFFFFFFFFFFFFFFFFFFFFFFFFFFFFFFFFFFFFFFFFF DUP3 EQ ISZERO PUSH2 0xC90 JUMPI PUSH2 0xC8F PUSH2 0xC9B JUMP JUMPDEST JUMPDEST PUSH1 0x1 DUP3 ADD SWAP1 POP SWAP2 SWAP1 POP JUMP JUMPDEST PUSH32 0x4E487B7100000000000000000000000000000000000000000000000000000000 PUSH1 0x0 MSTORE PUSH1 0x11 PUSH1 0x4 MSTORE PUSH1 0x24 PUSH1 0x0 REVERT JUMPDEST PUSH32 0x4E487B7100000000000000000000000000000000000000000000000000000000 PUSH1 0x0 MSTORE PUSH1 0x12 PUSH1 0x4 MSTORE PUSH1 0x24 PUSH1 0x0 REVERT JUMPDEST PUSH32 0x4E487B7100000000000000000000000000000000000000000000000000000000 PUSH1 0x0 MSTORE PUSH1 0x22 PUSH1 0x4 MSTORE PUSH1 0x24 PUSH1 0x0 REVERT JUMPDEST PUSH32 0x4E487B7100000000000000000000000000000000000000000000000000000000 PUSH1 0x0 MSTORE PUSH1 0x41 PUSH1 0x4 MSTORE PUSH1 0x24 PUSH1 0x0 REVERT JUMPDEST PUSH1 0x0 PUSH1 0x1F NOT PUSH1 0x1F DUP4 ADD AND SWAP1 POP SWAP2 SWAP1 POP JUMP JUMPDEST PUSH2 0xD71 DUP2 PUSH2 0xB96 JUMP JUMPDEST DUP2 EQ PUSH2 0xD7C JUMPI PUSH1 0x0 DUP1 REVERT JUMPDEST POP JUMP JUMPDEST PUSH2 0xD88 DUP2 PUSH2 0xBD4 JUMP JUMPDEST DUP2 EQ PUSH2 0xD93 JUMPI PUSH1 0x0 DUP1 REVERT JUMPDEST POP JUMP INVALID LOG2 PUSH5 0x6970667358 0x22 SLT KECCAK256 0x1F PUSH3 0xD4F1A SLOAD CALL KECCAK256 0x25 0xD5 JUMPI SIGNEXTEND GAS 0xF8 0xD4 0xC2 PUSH24 0x3EDEED4985C0219D58C3F73163F56C64736F6C6343000800 STOP CALLER "},"gasEstimates":{"creation":{"codeDepositCost":"706400","executionCost":"infinite","totalCost":"infinite"},"external":{"approveRequest(uint256)":"infinite","approversCount()":"1196","contribute()":"42902","createRequest(string,uint256,address)":"infinite","finalizeRequest(uint256)":"infinite","manager()":"1234","minimumContribution()":"1151","requests(uint256)":"infinite"}},"methodIdentifiers":{"approveRequest(uint256)":"d7d1bbdb","approversCount()":"82fde093","contribute()":"d7bb99ba","createRequest(string,uint256,address)":"8a9cfd55","finalizeRequest(uint256)":"03441006","manager()":"481c6a75","minimumContribution()":"937e09b1","requests(uint256)":"81d12c58"}},"storageLayout":{"storage":[{"astId":54,"contract":"Contracts:Campaign","label":"manager","offset":0,"slot":"0","type":"t_address"},{"astId":56,"contract":"Contracts:Campaign","label":"minimumContribution","offset":0,"slot":"1","type":"t_uint256"},{"astId":60,"contract":"Contracts:Campaign","label":"approvers","offset":0,"slot":"2","type":"t_mapping(t_address,t_bool)"},{"astId":62,"contract":"Contracts:Campaign","label":"approversCount","offset":0,"slot":"3","type":"t_uint256"},{"astId":66,"contract":"Contracts:Campaign","label":"requests","offset":0,"slot":"4","type":"t_array(t_struct(Request)52_storage)dyn_storage"},{"astId":72,"contract":"Contracts:Campaign","label":"requestApprovals","offset":0,"slot":"5","type":"t_mapping(t_uint256,t_mapping(t_address,t_bool))"}],"types":{"t_address":{"encoding":"inplace","label":"address","numberOfBytes":"20"},"t_address_payable":{"encoding":"inplace","label":"address payable","numberOfBytes":"20"},"t_array(t_struct(Request)52_storage)dyn_storage":{"base":"t_struct(Request)52_storage","encoding":"dynamic_array","label":"struct Campaign.Request[]","numberOfBytes":"32"},"t_bool":{"encoding":"inplace","label":"bool","numberOfBytes":"1"},"t_mapping(t_address,t_bool)":{"encoding":"mapping","key":"t_address","label":"mapping(address => bool)","numberOfBytes":"32","value":"t_bool"},"t_mapping(t_uint256,t_mapping(t_address,t_bool))":{"encoding":"mapping","key":"t_uint256","label":"mapping(uint256 => mapping(address => bool))","numberOfBytes":"32","value":"t_mapping(t_address,t_bool)"},"t_string_storage":{"encoding":"bytes","label":"string","numberOfBytes":"32"},"t_struct(Request)52_storage":{"encoding":"inplace","label":"struct Campaign.Request","members":[{"astId":41,"contract":"Contracts:Campaign","label":"index","offset":0,"slot":"0","type":"t_uint256"},{"astId":43,"contract":"Contracts:Campaign","label":"description","offset":0,"slot":"1","type":"t_string_storage"},{"astId":45,"contract":"Contracts:Campaign","label":"value","offset":0,"slot":"2","type":"t_uint256"},{"astId":47,"contract":"Contracts:Campaign","label":"recipient","offset":0,"slot":"3","type":"t_address_payable"},{"astId":49,"contract":"Contracts:Campaign","label":"complete","offset":20,"slot":"3","type":"t_bool"},{"astId":51,"contract":"Contracts:Campaign","label":"approvalCount","offset":0,"slot":"4","type":"t_uint256"}],"numberOfBytes":"160"},"t_uint256":{"encoding":"inplace","label":"uint256","numberOfBytes":"32"}}},"userdoc":{"kind":"user","methods":{},"version":1}}